:100000000C941F040C9466040C9466040C9466040F
:100010000C9466040C9466040C9466040C946604B8
:100020000C9466040C9466040C944F2B0C940B2BCC
:100030000C944C2C0C9466040C9466040C9466048A
:100040000C9466040C94F82C0C9466040C946604CE
:100050000C94732C0C94282C0C9466040C94660459
:100060000C9466040C9466040C9466040C94660468
:100070000C9466040C9466040C9466040C94660458
:100080000C9466040C9466040C9466040C94660448
:100090000C9466040C9466040C9466040C94660438
:1000A0000C9466040C9466040C9466040501090221
:1000B000A10185020901A100050919012905150001
:1000C00025019505750181029501750381010501E1
:1000D000093009311581257F950275088106093897
:1000E0001581257F950175088106050C0A380215D2
:1000F00081257F950175088106C0C005010980A191
:1001000001850319012AB700150126B7009501756D
:10011000108100C0050C0901A101850419012AA064
:1001200002150126A002950175108100C005010984
:1001300006A1018506050719E029E71500250195A7
:1001400008750181020507190029EF1500250195A1
:10015000F0750181020508190129059505750191C0
:1001600002950175039101C00660FF0961A10109B3
:1001700062150026FF0095207508810209631500AD
:1001800026FF00952075089102C005010906A1010E
:10019000050719E029E71500250195087501810279
:1001A0009501750881010507190029FF150026FF33
:1001B0000095067508810005081901290595057542
:1001C000019102950175039101C00000000000003B
:1001D000000000000000000000000000000000001F
:1001E00000000000000000000000000000007E0F82
:1001F00000D4FFFFFFC700000078000000000000EF
:1002000000002A2B28000000000000000000000071
:10021000000000000029000000002C1E34202122D4
:1002200024342627252E362D3738271E1F2021223D
:10023000232425263333362E37381F0405060708B6
:10024000090A0B0C0D0E0F101112131415161718A6
:10025000191A1B1C1D2F3130232D350405060708E4
:10026000090A0B0C0D0E0F10111213141516171886
:10027000191A1B1C1D2F3130354CFD377A585A0086
:100280000004E6D6B4460200210116000000742FD7
:10029000E5A3E0038D012F5D003D8889C65436C378
:1002A000174FE4E33B694B119285B903F86F56ACE5
:1002B000E42F2B35BC4C59EE0625973B2AA4E4F0DD
:1002C000738C50751BFA044EA3ED801C4DA37FD395
:1002D000D8467B165EAC23923AADCB15F670B5E9E5
:1002E0006CCC23C0C9C3D208DD7F6BD19A21BFBCBF
:1002F00033CD686FD2C25F1C9EF2960334B1642A7C
:1003000006C2E1E8940B497AD364565F003E5B0075
:100310006CA252BBB54BC51BE0A2C6F4A95CD49C31
:1003200055957E5C55A42D84A6C658466AEA743459
:10033000DB26921AE7D6F480BC4B65BEF0840E3BF8
:10034000FCF06467FB59FA557F8383F397F2360B11
:100350008C1771D6D432D0D2E120BD40720A789584
:10036000178B424F83081142AE0F9C92EB69F47ECB
:10037000873BA8608B32F5A1002BCAE0D06E8209C2
:10038000336289A39D338001302EF785313C29F4F7
:100390009FFBC5EAAF33D80E514FB5C185D61F8933
:1003A0001A805194E3C4CAC3F399000C0145B5F512
:1003B00030B3B8174E3D0B3763DFB9A26C7BC93B36
:1003C000A091A8CB28ED81F300002B541DE159D357
:1003D00078870001CB028E07000047BE73CAB1C404
:1003E00067FB020000000004595A000000000000F2
:1003F000000000000001010203040506080A0C0FBA
:100400001114181C2024292E33393F464C535B62AB
:100410006A7179818A929AA2AAB2B9C1C8CFD5DC91
:10042000E1E7EBF0F4F7FAFCFDFEFFFEFDFCFAF766
:10043000F4F0EBE7E1DCD5CFC8C1B9B2AAA29A9239
:100440008A8179716A625B534C463F39332E292485
:10045000201C1814110F0C0A0806050403020101E0
:1004600000000000000000000000680029001E00DD
:100470001F00200021002200230024002500260068
:1004800027002D002E002A004C0069002B001400CC
:100490001A000800150017001C0018000C001200BC
:1004A00013002F00300031004B006A0039000400B7
:1004B0001600070009000A000B000D000E000F00D7
:1004C00033003400280000004E006B00E1001D00E6
:1004D0001B0006001900050011001000360037004F
:1004E0003800E500520000000000E000E300E200F8
:1004F0000000000000002C0000000000015100007E
:10050000500051004F0000000000010035003A008B
:100510003B003C003D003E003F00400041004200E7
:100520004300440045004C000100010001000100AF
:1005300001000100010001000100010001000100B3
:1005400001000100010001004A000100010001005A
:100550000100010001000100010001000100010093
:1005600001000100010000004D00005C01000100DD
:100570000100010001000100010001000100010073
:1005800001000100A90000000000010001000100BD
:100590000000000000000100000000000100000059
:1005A0000100AA000100000000000100010001009C
:1005B0000100010001000100010001000100010033
:1005C0000100010001000100010001000100010023
:1005D0000100010001000100010001000100010013
:1005E0000100010001000100010001000100010003
:1005F00001000100010001000100010001000100F3
:1006000001000100010000000100010001000100E3
:1006100001000100010001000100010001000100D2
:1006200001000100010000000000010001000100C4
:1006300000000000000001000000000001000000B8
:1006400001000100010000000000010001000100A4
:100650000100010001000100010001000100010092
:100660000100010001000100010001000100010082
:100670000100010001000100010001000100010072
:100680000100010001000100010001000100010062
:100690000100010001000100010001000100010052
:1006A0000100010001000000010001000100010043
:1006B0000100010001000100010001000100010032
:1006C0000100010001000000000001000100010024
:1006D0000000000000000100000000000100000018
:1006E0000100010001000000000001000100A00362
:1006F0000000020002009C03000003000100A103AF
:100700000000040002008603E00605000100A203C9
:1007100000000600020088030000070002009E039C
:10072000000008000100A3030000090002008A0382
:10073000BB060A0002008C03BB060B0002008E03FE
:10074000BB060C0002009003BB060D0002009203E2
:10075000BB060E0002009403BB060F0002009603C6
:10076000BB06100002009803BB06110002009A03AA
:10077000BB0612000200A403000013000200A6033F
:10078000000009025B00030100A0FA090400000157
:100790000301010009211101000122400007058128
:1007A0000308000A090401000203000000092111E6
:1007B0000100012222000705820320000107050332
:1007C00003200001090402000103000000092111B7
:1007D00001000122BC000705840320000A12010069
:1007E0000200000008D804B5ED0100010203011C5D
:1007F000037600690061006C003A00660036003440
:10080000006300320062003300630000000E034EFC
:10081000006900630065003600390000001A0343D8
:10082000004C00410043004B002D00410054005497
:1008300000410043004B00000004030904001124A0
:100840001FBECFEFDAE0DEBFCDBF04B603FE27C088
:1008500080919E0490919F04A091A004B091A10466
:100860008730904BA740B04BD1F410929E04109269
:100870009F041092A0041092A10414BE84B7877F35
:1008800084BF0FB6F894A89580916000886180932A
:100890006000109260000FBEE0E0F8E3099511E0FF
:1008A000A0E0B1E0EAE7FAE602C005900D92AA37AF
:1008B000B107D9F724E0AAE7B1E001C01D92AE3933
:1008C000B207E1F70E94FA2C0C9402350C94000058
:1008D000E8EDF0E080818E7F80831092E20010923C
:1008E000DA001092E100A0EEB0E08C9181608C9370
:1008F00080818F77808319BCA7EDB0E08C918E7FCB
:100900008C9380818F7E808310926D040895209156
:10091000E4003091E50095E6A9012091EC00822FDA
:10092000817020FF06C08091E80080FF06C080E053
:1009300008952091E80022FD1AC080919B0488232D
:1009400089F0853089F08091EB0085FD0FC0209102
:10095000E4003091E50042175307F9F29150E1F6B7
:1009600084E0089582E0089583E0089581E0089589
:10097000EF92FF920F931F93CF937C018B010E9404
:100980008704C82F811117C08091E80085FD0BC036
:100990008091E8008E778093E8000E948704882386
:1009A00099F3C82F08C0F70181917F018093F1006E
:1009B0000150110949F78C2FCF911F910F91FF9092
:1009C000EF900895CF93FC0180919B04843001F552
:1009D000C091E900CF702091EC00922F917020FD22
:1009E00090E8C92B82E08093E9008091E80080FFC5
:1009F0000CC050E040E060E270E0CF010E94B8041B
:100A00008091E8008E778093E800CF70C093E90072
:100A1000CF9108958091930487FF13C08091E800DF
:100A200082FF06C08091E8008B778093E80004C0C5
:100A300080919B048111F2CF089580919B048823BB
:100A4000D9F38091E80080FFF8CF8091E8008E779D
:100A5000ECCF982F9093E900242F762F50E0891740
:100A600031F07091EC002091ED005091F00021FDEB
:100A700007C09F5F973071F78093E90081E0089588
:100A80003091EB003E7F3093EB003091ED003D7FE5
:100A90003093ED003091EB0031603093EB007093B8
:100AA000EC002093ED005093F0002091EE0027FD24
:100AB000E0CF80E00895CF92DF92EF92FF920F9304
:100AC0001F93CF93DF93C8EDD0E088818F7E88831A
:100AD000E7EDF0E080818160808384E082BF81E087
:100AE00080936D0488818E7F888302EE10E0F80188
:100AF00010821092DA0081EEC82ED12CF6011082FD
:100B000088818F77888388818068888388818F7DBA
:100B1000888319BC10929B04109292041092910445
:100B20001092900490EEE92EF12CF70180818B7FDA
:100B3000808388818160888342E060E080E00E9459
:100B40002905F60180818E7F8083F8018081816094
:100B50008083808188608083F70180818E7F80839D
:100B6000888180618883DF91CF911F910F91FF90E1
:100B7000EF90DF90CF900895FC01809199049091BF
:100B80009A0486179707A0F06115710529F49091D2
:100B9000E8009E779093E80090E06115710551F4AC
:100BA000911108C08091E80082FF34C080E0089570
:100BB000BC01F2CF80919B048823C1F18530C1F143
:100BC0008091E80083FD30C08091E80082FDEACF8B
:100BD0008091E80080FFE1CF8091F3002091F20046
:100BE000382F6115710519F02830310558F091E062
:100BF0002830310509F090E02091E8002E7720930D
:100C0000E800CBCF81918093F100615071092F5F93
:100C10003F4FE7CF80919B04882341F0853041F01E
:100C20008091E80083FFBECF81E0089582E00895BF
:100C300083E00895089580916F0408959C014FB753
:100C4000F8948091640490916504A0916604B09139
:100C500067044FBF821B930B08952FB7F8948091C0
:100C6000640490916504A0916604B09167042FBF5D
:100C7000089520916104309162042817390771F0BA
:100C80009093620480936104E0915F04F0916004AA
:100C9000309721F00084F185E02D0994089520918A
:100CA0005D0430915E042817390771F090935E045B
:100CB00080935D04E0915F04F0916004309721F02F
:100CC0000680F781E02D09940895E0915F04F0918A
:100CD0006004309721F00190F081E02D099480E0CC
:100CE0000895452B39F0682381E06F3F09F080E0DB
:100CF0008170089581E0FCCFDC01609182038091D6
:100D00008303962F891301C00895292F30E0F9013C
:100D1000EE0FFF1FE658FC4F408151814A175B07D9
:100D2000A1F487E08A9FA0018B9F500D11244E5B98
:100D30005C4F81E0FA0184839613E6CF2F5F3F4F2B
:100D4000237033272093820308952F5F3F4F922F04
:100D50009370D8CF1092DF021092DE02E2E4F3E04B
:100D60008581811102C014821682379683E0EA37AA
:100D7000F807B1F70895E6E8F3E0848195812AE069
:100D800030E0B9010E94113460931601868180938E
:100D900015018285809314018485809313018685D3
:100DA0009785B9010E941134609312018089809364
:100DB0001101828980931001848980930F01089525
:100DC0008091860390918703909318018093170177
:100DD00008958F929F92AF92BF92CF92DF92EF923F
:100DE000FF920F931F93CF93DF938C018091860026
:100DF000909187006CE070E00E94113460177107D9
:100E000098F0C80169E070E00E941134CB01DF91D5
:100E1000CF911F910F91FF90EF90DF90CF90BF90F7
:100E2000AF909F908F900895809186009091870059
:100E3000E0908600F0908700C0908600D0908700F8
:100E4000C6E0D0E0BE010E94113430E020E0060F81
:100E5000171F211D311D4801590185E0880C991C7F
:100E6000AA1CBB1C8A95D1F7C701BE010E94113490
:100E7000F12CE12CA7019601260F371F411D511DB2
:100E8000C501B4010E94393469017A01E0918600FC
:100E9000F0918700CA01B9010E9401349B01AC01A5
:100EA000DF010E9477349B01AC01C701B6010E94AB
:100EB00001342FE096958795779567952A95D1F718
:100EC000009186001091870030E020E00617170798
:100ED0002807390708F09ACF609186007091870043
:100EE00095CF853058F581112AC020918800309126
:100EF0008900232B51F090916F009D7F90936F009C
:100F000090916F009E7F90936F002898A09186002B
:100F1000B0918700282F30E00E946834DC01CB01BB
:100F200022E0B695A795979587952A95D1F70E94C7
:100F3000E9069093890080938800089584E02091C9
:100F4000880030918900232B09F790916F009260FF
:100F500090936F0090916F00916090936F00D6CF47
:100F6000282F220F220F220F90914C029770922B64
:100F700090934C02987F21E009F420E090914C027C
:100F800020FB90F990934C020C9471070E942D065F
:100F90009C019091480280914902982B21F0309356
:100FA00045022093440290914A0280914B02982B73
:100FB00021F03093430220934202E0915F04F091CC
:100FC0006004309749F082E0809346020480F58106
:100FD000E02D86E492E00994089590914802803FC4
:100FE00059F48091490287FF0DC010924902911176
:100FF0000BC01092400208C0813F81F480914902E9
:1010000018169CF3992381F080914A0290914B022B
:10101000892B09F064C010923F020895823F49F481
:1010200097FFF0CF10924802809149028111ECCFD6
:10103000E0CF833F19F41916ACF3E4CF20914A02B4
:10104000893F29F41216F4F610924A02DBCF8A3F48
:1010500019F427FFD7CFF8CF20914B028B3F29F40B
:1010600027FFD0CF10924B02CDCF8C3F19F4121630
:10107000CCF3C8CF843F31F4809147028E7F8093B8
:101080004702C0CF853F21F4809147028D7FF7CF83
:10109000863F21F4809147028B7FF1CF873F21F477
:1010A00080914702877FEBCF883F21F480914702F0
:1010B0008F7EE5CF8D3F31F4809141028E7F80930A
:1010C0004102A0CF8E3F21F4809141028D7FF7CF66
:1010D0008F3F09F097CF809141028B7FF0CF089529
:1010E0008091410280FF0CC06091100170E0759505
:1010F0006795759567956115710549F1862F089576
:1011000081FF06C06091100170E075956795F3CF7F
:101110006091100182FD0BC090913F029923A1F0D4
:1011200060910F0180911001961738F0682F70E0E0
:101130006038710500F38FE70895899FC00111247D
:1011400070E00E942534F4CF61E070E0D7CF81E0F9
:1011500008958091410260918E0370918F0380FF0A
:1011600016C020911401269FC001279F900D1124C5
:10117000BC0176956795769567956038710508F09E
:1011800043C06115710509F441C0862F089581FFA0
:101190000BC020911401269FC001279F900D1124A0
:1011A000BC0176956795E9CF82FF09C08091140153
:1011B0009B01829FB001839F700D1124DECF20918F
:1011C00040022223D1F29091130180911401482F03
:1011D00050E0291748F0CB01849FB001859F700D26
:1011E000949F700D1124C9CF289F90011124269F30
:1011F000A001279F500D369F500D1124692F70E0DC
:10120000CA010E941134B9CF8FE7089581E0089593
:10121000803F31F40E94A908819580934902089586
:10122000813F19F40E94A908F8CF823F31F40E944F
:10123000A9088195809348020895833F19F40E947C
:10124000A908F8CF893F29F40E94700880934A02C8
:1012500008958A3F21F40E9470088195F7CF8B3F53
:1012600031F40E947008819580934B0208958C3F61
:1012700019F40E947008F8CF843F31F4809147023E
:101280008160809347020895853F21F48091470251
:101290008260F7CF863F21F4809147028460F1CFCE
:1012A000873F21F4809147028860EBCF883F21F48B
:1012B000809147028061E5CF8D3F31F480914102FA
:1012C00081608093410208958E3F21F48091410214
:1012D0008260F7CF8F3FB9F7809141028460F1CFF0
:1012E00080E00895F894E82FE295EF70F0E031A1E6
:1012F000282F2F7081E090E001C0880F2A95EAF72F
:10130000982F9095932391A392A1892B82A37894EF
:1013100008959091680492FF06C0282F2871283004
:10132000F9F4877F846093FF06C0282F2871283145
:10133000F1F4877E84612091690420FF06C0382F74
:1013400038713830D9F4877F816021FF06C0282F9B
:1013500028712831D1F4877E816194FD877E0895BC
:10136000282F24712430F9F68B7F8860DCCF282F5A
:101370002471243101F78B7E8861DDCF382F3171E4
:10138000313019F78E7F8860E0CF282F217121310D
:1013900021F78E7E8861E1CFCF93DF93EC01823815
:1013A0009105A9F1D8F58133910509F496C048F566
:1013B0008932910509F48AC08A9709F495C0C1154C
:1013C00021E5D20708F0BCC0C11530E5D30708F00D
:1013D00014C1C83ED10508F09CC0C03ED10560F5DF
:1013E000C83AD10508F087C0C53AD10508F0FDC05C
:1013F000C130D10509F12097F9F0C430D105E0F4EE
:1014000040C08533910509F45AC0C997C1F680914F
:101410006804837089F0C0EED0E00EC0833E910571
:1014200099F170F4803E910501F1823E910539F603
:101430008091680482FD21C0CE01DF91CF91089593
:10144000863E910561F1873E910571F1843E9105DB
:1014500009F0B5CF8091690481FFEECF80916804D7
:10146000C7EED0E084FD0DC0E7CF8091680480FD19
:1014700012C19091690490FFDFCFC3EED0E084FFEA
:10148000DBCFD0E0C0E0D8CF8091680482FD06C1F8
:101490009091690490FDBFCF84FFCECFF2CF8091B1
:1014A000680483FDDDCFC8CF8091680483FDF9C057
:1014B0009091690491FFF0CFC4EED0E0BDCF809150
:1014C000680485FFB9CFC9E2D0E0B6CF8091680447
:1014D00085FFB2CFC5E3D0E0AFCF8091680486FF2F
:1014E000ABCFCAE2D0E0A8CF8091680486FFA4CF3A
:1014F000C1E3D0E0A1CFCF3BD10518F6C85AD0E068
:10150000CC0FDD1FC95DDE4F0990D881C02DD4649A
:1015100093CFC11540E2D40758F4C11581E0D80734
:1015200008F08ACFC03FD10508F4ABCFD06584CF97
:10153000C11590E4D90708F4A4CFDF70D06A7CCF3E
:10154000C11525E5D20700F5C11534E5D30708F02C
:101550008AC0C11543E5D40708F071C0C11582E502
:10156000D80708F467C0CE018370992721E030E0E6
:1015700002C0220F331F8A95E2F7C695C69580E216
:10158000C89FE001112452C0C11599E5D907A8F4FC
:10159000C11528E5D20708F06BC0C11536E5D307A1
:1015A00008F06FCF8C2F0E948909C82FD0E0DC2F64
:1015B000CC27CC27DF71D0623FCFC1154AE5D407D5
:1015C00008F45BC0CE0190568115904208F059CFC7
:1015D0008D2F8F710E94890990E0982F8827882786
:1015E0009F719C012C2BE901E6CFC55AD0E0CC5D60
:1015F000DE4FC881D0E0D0641FCFCE01E4E09695E5
:101600008795EA95E1F783702C2F26952695237010
:1016100040E2249F90011124382B8C2F8370C1E06D
:10162000D0E002C0CC0FDD1F8A95E2F7C22BD32B8E
:10163000DC6802CFDC2FCC27C16FD06AFDCECE0193
:101640008370992721E030E002C0220F331F8A9572
:10165000E2F7C695C69590E2C99FE0011124C22B1E
:10166000D32BDA68E9CEDC2FCC27C46FD06AE4CE66
:10167000DC2FCC27C06FD06ADFCE8C2F8F700E94FA
:10168000890934E0D695C7953A95E1F7CF709C2F3C
:10169000EC01D069D1CEC9E3D0E0CECEC2EED0E02D
:1016A000CBCEC6EED0E0C8CE80910E02882331F0BA
:1016B00010920E0210920D0210920C020895CF9318
:1016C000C82F8091690482FD0CC080910E028C1796
:1016D00041F00E942D0690930D0280930C02C0935E
:1016E0000E02CF910895809590919D049823909338
:1016F0009D04089580959091B90298239093B90222
:1017000008959091B902892B8093B902089510929F
:101710000A0210920902109208020895809188032B
:1017200090918903892B89F00E942D0620910C024B
:1017300030910D02AC01421B530B81E020918803D4
:10174000309189034217530708F480E081700895AF
:101750008091B90290919D04892B90910B02892B65
:1017600080937C0180910E02882319F18091880377
:1017700090918903892B29F00E948E0B81110E9480
:10178000540B80917C0190910E02892B80937C01F7
:1017900080911B01882341F18091680487FF24C058
:1017A0008EE1EEE7F1E090E0815000F591110E94AA
:1017B000540BE0915F04F09160043097E1F0809168
:1017C0001B01882359F08091680487FF07C080912E
:1017D0007C0180937D0186E080937C010280F3810F
:1017E000E02D8CE791E0099486E0DBCF2191222364
:1017F000D9F29F5FD9CF0895EF92FF920F931F9375
:10180000CF93DF93EC018A85811134C0EB80FC809B
:1018100087E5F81A26E12E9DC0012F9D900D112419
:10182000DC01A355BC4F1496ED91FC9115973097B0
:1018300031F054966D917C918D549C4F099586E1C1
:101840008E9D80018F9D100D112403551C4FF801B2
:1018500087810E947A0BF80180850E94730B0E9499
:10186000A80B188219861B861E821D821092AC035B
:101870001092AB03DF91CF911F910F91FF90EF90EA
:101880000895CF93DF93EC018989811118C081E01D
:10189000898B8F810E94810B80919D049885892B73
:1018A00080939D040E94A80BEA81FB81309739F058
:1018B0006C897D89CE010696DF91CF910994DF91E5
:1018C000CF91089580911901877F8093190182E05B
:1018D0000E94730B8091190184FF06C08F7E809354
:1018E000190182E00E94810B8091190185FF06C0D9
:1018F0008F7D8093190180E20E94810B0C94A80BCC
:1019000080910702811110920702089590911B01A6
:101910009923D1F09091680497FF16C0E82FE695BF
:10192000E695E695EE31E0F4F0E0E458FE4F282F1E
:10193000277081E090E001C0880F2A95EAF7809532
:101940009281892382830895EEE7F1E091918913D2
:1019500003C0DF0111971C9291E0E438F907B1F759
:10196000089590911B019923C1F09091680497FF0D
:1019700014C0E82FE695E695E695EE31F8F4F0E030
:10198000E458FE4F877021E030E001C0220F8A95B5
:10199000EAF78281822B82830895AEE7B1E0EFEF10
:1019A00090E02D91821751F0EF3F19F4211101C001
:1019B000E92F9F5F9630A9F7EF3F09F408950E2EA7
:1019C000000CFF0BE458FE4FE6CF209106029091E9
:1019D000C501291302C080E0089530E0F90153E009
:1019E000EE0FFF1F5A95E1F7EA53FE4F5181561350
:1019F00006C05081581303C05281541304C02F5F96
:101A00003F4F2770E6CF81E00895809106029091C4
:101A1000C501981301C008958F5F8770FACF9E3F6C
:101A200041F19295907FE92FE80F9E2F9770E695F0
:101A3000E695E69583E0E89FF0011124E156FE4F1C
:101A400050E040E080E0219130E0092E02C0369560
:101A500027950A94E2F721703327042E01C0220F44
:101A60000A94EAF7822B4F5F5F4F4330510559F7D5
:101A7000089580E008959E3F61F19295907FE92F4F
:101A8000E80F8E2F877041E001C0440F8A95EAF776
:101A9000E695E695E69583E0E89FF0011124E1568E
:101AA000FE4F30E020E070E05191DF011197CB0153
:101AB000022E02C0969587950A94E2F7817081956F
:101AC0008527842385278C932F5F3F4F2330310553
:101AD00059F70895E92FE295EF70E250EE3070F477
:101AE000F0E0EC5FFA4C0C945B34803F19F020F48A
:101AF000883E20F481E00895843FE1F380E008957A
:101B0000883EC0F3813FD1F7F5CF93FB882780F95A
:101B1000089590E080E00E944F0690E080E00E94EF
:101B2000390610929D0410920B020E94A80B86E0C9
:101B3000E6E4F2E0DF011D928A95E9F71092400297
:101B400010923F02109241020C94C60780939C04AD
:101B50000C94890D80919C04982F9670963019F4FE
:101B600088600C94A60D877FFCCF21E030E001C097
:101B7000220F8A95EAF7209580919C0482230C9489
:101B8000A60D90910A028095892380930A02282F3E
:101B9000277091F4282F082E000C330B9217130690
:101BA00059F09091690492FD07C0859585958595BA
:101BB0000E94B50D0C94870B089521E030E001C020
:101BC000220F8A95EAF780919C04822B0C94A60D33
:101BD0009091690492FD10C098E0899F90011124B2
:101BE000622B60930A020E94DD0D0E942D069093E5
:101BF00009028093080208950C94DD0D80930F0272
:101C00000C94890D882321F00E94730B0C94A80B6F
:101C10000895882339F090919D04982B90939D040A
:101C20000C94A80B0895882321F00E947A0B0C9441
:101C3000A80B0895882321F00E94810B0C94A80B17
:101C40000895882309F452C0823871F40E94650611
:101C500081FF4CC089E30E94B10C0E94A80B89E36C
:101C60000E94860C0C94A80B833859F40E946506D8
:101C700080FF3CC083E50E94B10C0E94A80B83E565
:101C8000EFCF843859F40E94650682FF2FC087E4A5
:101C90000E94B10C0E94A80B87E4E2CF9CEF980F42
:101CA000913AF0F290E2980F983050F4877091E0FA
:101CB00001C0990F8A95EAF7892F0E947A0BD2CF3B
:101CC0009BE5980F933020F490E080E00C944F0651
:101CD00098E5980F973120F490E080E00C94390655
:101CE000803F20F00E94ED070C94C607089581FF05
:101CF00002C05A9A08955A9808959C013A95211560
:101D00003F4150F5FC01EE27F170BC01662772706F
:101D1000AC01442754709C012227387094FF0EC0F8
:101D200080E1EF2B09F480E0672B09F08062452BFE
:101D300009F08064232B89F08068089581E0EF2BFF
:101D400009F480E0672B09F08260452B09F084607C
:101D5000232B19F08860089580E00895CF93DF93D6
:101D6000EC010E94210ECE010E947D0E9E01205E9C
:101D700031092830310510F0CD2B21F4DF91CF91BE
:101D80000C94130EDF91CF910C94020E80936A0491
:101D900070936C0460936B0480919B048430F9F41D
:101DA0008093E9008FEF9091E800815095FD06C087
:101DB00095ED9A95F1F700008111F5CF8091E8003B
:101DC00085FF0DC050E040E063E070E08AE694E0FB
:101DD0000E94B8048091E8008E778093E80008950F
:101DE000BC0184E00C94C60EBC0183E00C94C60ECA
:101DF0009C0184E08093E9009FEF8091E80091507E
:101E000085FD06C085ED8A95F1F700009111F5CFAB
:101E10008091E80085FF0CC050E040E066E070E093
:101E2000C9010E94B8048091E8008E778093E80091
:101E30000895CF93DF93EC0180911B018823B1F1CA
:101E40008091680487FF32C060E284E08093E900FB
:101E50008FEF9091E800815095FD06C095ED9A9521
:101E6000F1F700008111F5CF8091E80085FF1BC0DC
:101E700080911B0170E050E040E0811104C050E00F
:101E800040E068E070E0CE010E94B8048091E80074
:101E90008E778093E80080E2FE01A0E7B4E0019035
:101EA0000D928A95E1F7DF91CF91089568E081E086
:101EB000CDCF81E08093E00080E28093D800109243
:101EC000C9008FE19EE40197F1F700C0000087E0B0
:101ED00090EBDC0180939E0490939F04A093A00458
:101EE000B093A10488E19CE00FB6F894A895809384
:101EF00060000FBE90936000FFCF019708F4089533
:101F0000EFE9FFE03197F1F700C00000F6CFCF9383
:101F1000C82F882309F4AAC08238C1F40E9465063C
:101F200081FDA4C089E30E94B10C0E94A80B2FEF91
:101F300081EE94E0215080409040E1F700C0000025
:101F400089E30E94860CCF910C94A80B8338A1F4EE
:101F50000E94650680FD8AC083E50E94B10C0E9444
:101F6000A80B2FEF81EE94E0215080409040E1F7E4
:101F700000C0000083E5E5CF8438A1F40E94650627
:101F800082FD74C087E40E94B10C0E94A80B2FEF61
:101F900081EE94E0215080409040E1F700C00000C5
:101FA00087E4CFCF8CEF8C0F813A88F580911B01AD
:101FB000882301F18091680487FF1CC0EC2FE6950F
:101FC000E695E695F0E0E458FE4F828190E04C2FD4
:101FD000477021E030E002C0220F331F4A95E2F73C
:101FE00082239323892B79F08C2F0E94860C0E94E8
:101FF000A80B09C0EEE7F1E08191C817A9F321E031
:10200000E438F207C9F78C2F0E94B10C9CCF80E214
:102010008C0F883048F4C77081E001C0880FCA95E2
:10202000EAF70E94810B8FCFEBE5EC0FE33040F431
:10203000F0E0EC5DFE4F808190E0CF910C944F0674
:10204000E8E5EC0FE73150F4F0E0EE0FFF1FE95D3B
:10205000FE4F80819181CF910C943906C03F30F0C2
:102060008C2F0E940809CF910C94C607CF91089538
:102070001F93CF93DF93182FC091A603D091A7038E
:10208000893321F0C091A403D091A503812F0E9430
:10209000870F209731F4812FDF91CF911F910C94FE
:1020A000210E8FE99FE00197F1F700C00000219712
:1020B000F0CF0F931F93CF93DF93C42FD22FFC0148
:1020C00082818823A1F04093AA030E942D06909359
:1020D000A9038093A803C77081E001C0880FCA9547
:1020E000EAF7DF91CF911F910F910C941A0E109186
:1020F000AA03141339C08091A8039091A9030E94E8
:102100001E0620919E0330919F038217930760F56E
:10211000C0E2CD0F1D17B9F080E2810F883040F486
:10212000177081E001C0880F1A95EAF70E94130E1C
:10213000C83048F481E09D2F977001C0880F9A95B0
:10214000EAF70E941A0E802F0E943810C83098F4C7
:10215000D77081E001C0880FDA95EAF7DF91CF915F
:102160001F910F910C94130EC77081E001C0880F6E
:10217000CA95EAF7F3CFDF91CF911F910F910895A0
:10218000CF93DF93EC010E947D0E9E01205E31090A
:102190002830310510F0209739F40E941A0E8C2F48
:1021A000DF91CF910C94870F0E94090EF8CF662320
:1021B00029F020919D04226020939D049C013056BB
:1021C000211540E2340720F0305E2115304108F43B
:1021D00099270C94C010DF92EF92FF920F931F93F8
:1021E000CF93DF937C018B01D42E8091190182FF64
:1021F0008CC0C091DC02D091DD02CE15DF0521F04C
:10220000E114F10409F081C0809119018B7F809362
:10221000190181FD73C08091DA029091DB02A8015F
:10222000481B590B81E0209117013091180142178A
:10223000530708F480E08170F82E80911901F0FABC
:1022400081F980931901FE0183E0F695E7958A955F
:10225000E1F7EE71FF27E654FD4F20813181AE0199
:102260004F70552781E090E002C0880F991F4A9572
:10227000E2F7FF2009F444C0822B932B91838083E3
:102280008091B90281FF08C080911901806180931B
:10229000190182E00E947A0B8091B90285FF08C083
:1022A0008091190180628093190180E20E947A0B6B
:1022B0006F2DCE010E94D710DD2031F08091A10357
:1022C00085FF02C086FF3BC08091A4039091A503C7
:1022D0000E947D0F8091DC029091DD029C013056BE
:1022E000211540E2340720F0305E2115304108F41A
:1022F00099270E94AE0E0E94620C1DC081E09BCF08
:102300008095909582239323B9CFC7019927970190
:102310003056211540E2340728F0305E2115304157
:1023200008F0C7010E94AE0E8091DC029091DD02A0
:102330008E159F0501F31093DB020093DA02DF9103
:10234000CF911F910F91FF90EF90DF900895AF9282
:10235000BF92CF92DF92EF92FF920F931F93CF9392
:10236000DF93EC018AE0A82E2881222309F48CC097
:102370002130C9F599818A81913021F422960E94F9
:10238000381005C0923029F422960E94870F2196BA
:10239000EBCF933021F422960E94210EF8CF943097
:1023A00011F02196F4CF229630E020E0AE014F5F8D
:1023B0005F4F8053990B8A30910550F021503109BD
:1023C00030F38FE99FE00197F1F700C00000F6CFEE
:1023D000A29EB001A39E700D11249C01260F371FF1
:1023E0008981EA01E3CFE22FF0E0E650FE4FB4909E
:1023F000822F86958695869590E0FC01E651FE4FEA
:10240000E4902770F12C022E02C0F594E7940A9410
:10241000E2F731E0E322FF24FC01E652FE4FC490D4
:10242000D12C022E02C0D594C7940A94E2F731E071
:10243000C322DD24FC01E653FE4F049110E002C0EC
:10244000159507952A95E2F701701127E114F1041B
:1024500019F081EE0E94870FC114D10419F086EEA5
:102460000E94870F8B2D0E943810CD2819F086EE20
:102470000E94210EEF2819F081EE0E94210E012BFF
:1024800009F485CF8CE27BCFDF91CF911F910F9123
:10249000FF90EF90DF90CF90BF90AF9008950F9393
:1024A0001F93CF93DF9306E813E0C7EAD2E0CE0193
:1024B0000E94B834F80181938F012196C93CF2E063
:1024C000DF07A9F7C0EFD6E0FE0185919491009750
:1024D00011F0FC0109952896F7E0C838DF07A1F74D
:1024E000DF91CF911F910F9108950F931F93CF9379
:1024F000DF93843030F5653020F5403110F520E26F
:10250000629F8001112450E0440F551F040F151FD6
:1025100030EA839F000D111D1124C80187960E9487
:10252000B834C82FD0E0DC2FCC27C80188960E9491
:10253000B8349E01282BC901DF91CF911F910F91D3
:10254000089590E080E0F8CF462F2091B7023091B7
:10255000B802232B91F47E3F39F46E3F71F48091E1
:10256000B5029091B6020895843038F4753028F49D
:10257000603118F4672F0C94751290E080E0089594
:10258000CF92DF92FF920F931F93CF93DF936C0153
:1025900000919C0480910F02082BC7E0D0E010E06E
:1025A000FC2EC8010C2E02C0959587950A94E2F77F
:1025B00080FD0CC02197A0F7F12C8F2DDF91CF91DA
:1025C0001F910F91FF90DF90CF900895B6018C2F4F
:1025D0000E94A4120E94CC09019761F3EECFCF9321
:1025E000DF93EC010E94C012BE010E94A412DF9191
:1025F000CF910C94CC09FC0186819781009721F042
:102600000E94CC090C946A0D808191810E94EF1286
:10261000F9CF1F93CF93DF9300D000D00F92CDB7A7
:10262000DEB749835A8389819A816623B9F02223D0
:10263000A9F00E94C012182F682F89819A810E94E8
:102640003B0D69817A81812F0F900F900F900F9031
:102650000F90DF91CF911F910C94A4120E940F0D47
:10266000182FEFCFFC01262F86819781009739F430
:10267000408151816281738184810C940913089592
:1026800083E290E00E94B8348B3489F484E290E0D5
:102690000E94B834883959F485E290E00E94B83439
:1026A00091E0873409F090E0892F8170089580E0EF
:1026B000FCCFCF9384E090E00E94B834C82F82E230
:1026C00090E00E94B834982F8C2FCF9108950F93EB
:1026D0001F93CF93DF9306E813E0C7EAD2E0CE0161
:1026E0000E94B834F80161918F01681719F0CE018A
:1026F0000E94C6342196C93CF2E0DF0781F7DF91E2
:10270000CF911F910F910895E6E8F3E0128E138E9A
:102710008FEA90E09183808385E0848F88E893E15D
:10272000938382834CE251E05583448322E330E07B
:102730003783268385E090E0918780878AE090E068
:102740009387828764E170E075876487578746873F
:1027500044E650E0518B408B48E050E0538B428B75
:1027600048E250E0558B448B378B268B28EC30E0C9
:10277000318F208F158E978F868F80E590E091A303
:1027800080A30E9467130C944F12CF93DF93C9E686
:10279000D3E060E0CE010E94C6342196C11584E0EA
:1027A000D807B9F7DF91CF9108950F931F93CF9377
:1027B000DF938901843048F5653038F5403128F5DC
:1027C00021153C4531F42091B3023091B402232B02
:1027D000E1F090E2699FE001112450E0440F551FA1
:1027E000C40FD51F90EA899FC00DD11D1124612F00
:1027F000CE0187960E94C634602FCE018896DF9165
:10280000CF911F910F910C94C634DF91CF911F91FE
:102810000F910895CF93C82F6FEF81116BE483E27E
:1028200090E00E94C6346FEFC11168E984E290E045
:102830000E94C6346FEFC11167E485E290E0CF914A
:102840000C94C634682F86E090E00C94C6348091D6
:102850004C0281FF0EC08D7F80934C020E94221497
:1028600010924D0280914C028695869586950C9427
:102870007107089580914C0281FD0EC082608093A3
:102880004C020E9422141092500210924F02109299
:102890004E0281E080934D020895CF93C091690468
:1028A000C2FB992790F9981799F080FBC2F9C09361
:1028B00069046091680484E090E00E94C6346C2F43
:1028C00082E290E00E94C63482E0CF910C94C10D68
:1028D000CF9108957F928F929F92AF92BF92CF92A5
:1028E000DF92EF92FF920F931F93CF93DF93CDB7B9
:1028F000DEB764970FB6F894DEBF0FBECDBFA090D1
:10290000B302B090B40281E090E09093B40280935F
:10291000B3028AE6C82E84E0D82E00E0760110E0EB
:1029200015C0F40125913491472D612F802F0E940D
:10293000D51382E0880E911C7394E0E17E12F1CFF2
:10294000F0E2EF0EF11C1F5F153019F04701712CFA
:10295000E8CF0F5F80EAC80ED11C0430F9F60E9460
:1029600084131A8219821C821B821E821D82188681
:102970001F8288EC90E09A87898709EC12E04AE090
:1029800050E0B801CE0101960E94EA34065F1F4F65
:102990000931E3E01E0799F77E01FBE0EF0EF11C21
:1029A0008AE0F70111928A95E9F74AE050E0B80110
:1029B000C7010E94EA34065F1F4F0936F3E01F0784
:1029C000A1F7B092B402A092B30264960FB6F89445
:1029D000DEBF0FBECDBFDF91CF911F910F91FF9052
:1029E000EF90DF90CF90BF90AF909F908F907F90AF
:1029F000089580E00E940A1460E086E290E00E9460
:102A0000C6340E946A140E94C51381E00C940A1413
:102A10009B01883070F49AE0899FB00111246753BC
:102A20007D4F4AE050E0C9010E94A83490E080E068
:102A300008958FEF9FEF08958F929F92AF92BF926C
:102A4000CF92DF92EF92FF920F931F93CF93DF937A
:102A5000CDB7DEB72A970FB6F894DEBF0FBECDBF55
:102A60000DEA13E0F12CE12C8FE3C82E8AE2D82E78
:102A700099E6A92E9AE2B92E28EA822E29E2922E10
:102A8000F801D182C082B382A28295828482F58AC3
:102A9000E48ABE016F5F7F4F8E2D0E940815892B3F
:102AA00029F489859A85F801938B828BFFEFEF1AC1
:102AB000FF0A0A5E1F4F88E0E816F10409F72A961C
:102AC0000FB6F894DEBF0FBECDBFDF91CF911F913F
:102AD0000F91FF90EF90DF90CF90BF90AF909F90BD
:102AE0008F900895CF92DF92EF92FF920F931F93F2
:102AF000CF93DF93CDB7DEB72A970FB6F894DEBF3A
:102B00000FBECDBFE3E6F2E080E5DF011D928A95BE
:102B1000E9F7E2E4F3E088E3DF011D928A95E9F743
:102B200083E6C82E82E0D82E7F0109E113E0F70189
:102B3000D182C0824AE050E0B801CE0101960E94E5
:102B4000A83488E0FE013196D60101900D928A9555
:102B5000E1F789859A85D70113969C938E931297F6
:102B6000BAE0CB0ED11CE7E0EE0EF11C065F1F4F62
:102B70000936F3E01F07D9F62A960FB6F894DEBFA0
:102B80000FBECDBFDF91CF911F910F91FF90EF90BE
:102B9000DF90CF9008951092B90280911B01EEE76B
:102BA000F1E0882359F08091680487FF07C08EE127
:102BB000DF011D928A95E9F70C94890D86E0F8CF24
:102BC0001F93CF93DF93CDB7DEB7AA970FB6F894D4
:102BD000DEBF0FBECDBF83E994E02091F100DC01A0
:102BE0002D93CD01B4E08B399B07B9F78091940404
:102BF000833009F472C0B8F4813009F449C08230DE
:102C000009F4B3C08091E80083FF96C280919304D9
:102C1000909194049A3008F08FC2E92FF0E0EE5EB4
:102C2000FA4C0C945B348A3009F48EC08B3009F472
:102C300071C0893039F780919304813219F78091FE
:102C4000970490919804009711F00297D9F680911B
:102C5000E800877F8093E8008091E80082FF38C019
:102C60009091F3008091F200029731F48091F1008D
:102C7000813011F0863021F48091F10080936F044F
:102C80008091E8008B778093E8000E940A05BACF14
:102C900080919304813A09F0B5CF8091E800877F55
:102CA0008093E8008091970490919804892B61F4B7
:102CB00060E280E794E070E00E94BC058091E8004B
:102CC0008B778093E8009ECF60E090E080E0F3CFC8
:102CD00080919B048111C0CF95CF80919304813A5C
:102CE00009F090CF8091970490919804892B09F076
:102CF00089CF8091E800877F8093E8008091E80089
:102D000080FFFCCF80911B018093F1008091E8004F
:102D10008E77B9CF80919304813209F073CF80917F
:102D2000970490919804892B09F06CCF8091E8006A
:102D3000877F8093E8000E940A0580919504809324
:102D40001B010E94CB155ECF80919304813209F064
:102D500059CF8091E800877F8093E8000E940A05A0
:102D60008091960480936E044DCF80919304813AB4
:102D700009F048CF8091E800877F8093E800809138
:102D8000E80080FFFCCF80916E04BECF803899F0C0
:102D9000823809F0D1C1809197048F70873008F094
:102DA000CBC18093E9008091EB0085FB882780F9F7
:102DB0001092E90006C080919004909191049111C5
:102DC00082609091E800977F9093E8008093F100F3
:102DD0001092F1008091E8008E77AAC1882309F44F
:102DE00098C1823009F0A8C18091950481119BC1DE
:102DF000809197048F702FEF280F263008F09CC128
:102E00008093E9002091EB0020FF8DC1933031F4D5
:102E10008091EB0080628093EB0085C19091EB0084
:102E200090619093EB0021E030E001C0220F8A9581
:102E3000EAF72093EA001092EA008091EB008860A4
:102E4000EACF811179C1109195041F778091E30039
:102E50008078812B8093E3008091E800877F8093C6
:102E6000E8000E940A058091E80080FFFCCF809175
:102E7000E30080688093E30082E0111183E0809397
:102E80009B045AC18058823008F056C120919504A5
:102E9000309196042C3DE3E03E07A1F583E08A8360
:102EA0008AE289834FB7F894DE01139620E03EE072
:102EB00051E2E32FF0E050935700E49120FF03C06C
:102EC000E295EF703F5FEF708E2F90E0EA30C0F038
:102ED000C7968D939D932F5F243159F74FBF8091F3
:102EE000E800877F8093E8006AE270E0CE010196F7
:102EF0000E94BC058091E8008B778093E8001CC19C
:102F0000C096E7CF8091970490919804432F55275E
:102F10004330510509F44AC078F54130510509F4B0
:102F200085C08BE590E0E2E8F7E04230510509F01A
:102F300003C12091E800277F2093E80020919904A5
:102F400030919A048217930708F49C0140E0211500
:102F5000310509F070C041116EC08091E80082FD1A
:102F6000C9CF80919B04882329F2853019F2809182
:102F7000E80083FFF2CFBECF4132510509F447C0CC
:102F80004232510509F0D8C08330910508F0D4C011
:102F9000FC01EE0FFF1FE359FE4F0190F081E02D81
:102FA00086599E4FDC018C9190E01DC03327213063
:102FB0003105E9F02115310579F022303105F9F0BC
:102FC0002330310509F0B8C0EFEEF7E0E4918E2F21
:102FD00090E0EFEEF7E007C0E9E3F8E0E4918E2F30
:102FE00090E0E9E3F8E0009709F4A6C0A2CFEDE194
:102FF000F8E0E4918E2F90E0EDE1F8E0F4CFEDE021
:10300000F8E0E4918E2F90E0EDE0F8E0ECCF833033
:10301000910508F091C0880F991FFC01ED58FE4FF3
:103020000190F081E02D89E090E083CF82E190E093
:10303000EDEDF7E07ECF80919B04882309F45ACF11
:10304000853009F457CF8091E80083FD53CF8091FC
:10305000E80082FD82CF8091E80080FF78CF9091D8
:10306000F3008091F2002115310519F088309105A7
:1030700050F041E0089709F040E08091E8008E7739
:103080008093E80064CF44914093F1003196215041
:1030900031090196E8CF803809F04EC08091E800F0
:1030A000877F8093E800809192048093F10092CE14
:1030B000811142C0109195041230F0F58091E80022
:1030C000877F8093E800109392040E940A051123E1
:1030D00011F084E005C08091E30087FDFACF81E024
:1030E00080939B0442E061EC81E00E94290542E26A
:1030F00061EC84E00E94290542E261EC82E00E94DA
:10310000290542E260EC83E00E94290580919B043E
:1031100013C080919504813079F481E0933009F0F7
:1031200080E0809391041092E9008091E800877F0D
:103130008093E8000E940A058091E80083FF0AC09E
:103140008091E800877F8093E8008091EB008062A7
:103150008093EB00AA960FB6F894DEBF0FBECDBFEA
:10316000DF91CF911F91089590E080E00E94C034DC
:103170008A3E9E4F11F40C94401380E008956AEE4D
:103180007EEF90E080E00E94E43460E082E090E036
:103190000E94C63460E083E090E00E94C634109242
:1031A0000F0260E084E090E00E94C63460E082E2BA
:1031B00090E00E94C63460E085E090E00E94C63452
:1031C00060E086E090E00E94C6346FEF87E090E018
:1031D0000E94C63440E050E0BA0188E090E00E94CE
:1031E000D83460E08DE090E00E94C63440E050E0CA
:1031F000BA0188E190E00E94D83460E087E190E075
:103200000E94C63440E050E0BA018CE190E00E9498
:10321000D83470E060E080E290E00E94E43440E066
:1032200050E0BA0188E190E00E94D83480E00E942A
:103230000A140E94F91440E050E0BA018FE090E0D7
:103240000E94D83440E050E0BA0183E190E00C9451
:10325000D8348F929F92AF92BF92CF92DF92EF922B
:10326000FF920F931F93CF93DF9300D000D0CDB781
:10327000DEB77C01DC0113964D915C911497119699
:103280006C9111978C910E9471068111BCC061E014
:10329000C7010E9432138C01F7018281811153C052
:1032A000D70112968C9181118DC00031FFE51F0767
:1032B00009F431C101312FE5120709F430C1680169
:1032C00027E5D21A3FEFC316D10409F060F569E58E
:1032D00072E08C2D0E940815892B29F586E18C9DC2
:1032E000F0018D9DF00D1124E355FC4F8681813056
:1032F00009F017C18091590290915A02892B99F0D7
:1033000080915B0290915C02892B69F080915D0253
:1033100090915E0220915F0230916002822B932B8C
:10332000892B09F408C1F7012281222309F484C101
:10333000F801EB5BFC45E730F10508F07DC1E45E88
:10334000FA4C0C945B34809100019091010101963C
:1033500009F4A6CF6DEAC62E63E0D62EB12CA12CBF
:103360009924939480910001909101018A159B0505
:103370000CF496CFF60186818823E9F08185928549
:103380000817190739F48091AB039091AC03081723
:10339000190789F0D6011F969C921F971C961C93C3
:1033A0000E931B97C6010E94410CC60106960E940F
:1033B000FC0B10929D04BFEFAB1ABB0AE6E1CE0EE8
:1033C000D11CD0CFC80182519F45409708F060C7FB
:1033D0008FEF93E00E94B8345EEED52ED00E09E652
:1033E00013E0882369F180910A02877061F0D701A8
:1033F00012968C91882339F08091690482FD03C074
:1034000082E00E94C10D0F900F900F900F90DF91FE
:10341000CF911F910F91FF90EF90DF90CF90BF90D1
:10342000AF909F908F9008950115F4E01F07D9F297
:10343000C8010E94B834811101C0DA940F5F1F4F98
:10344000D110F2CF19821A821B821C82CC24CA941A
:1034500048012FEF821A920AC8010E94B83489836A
:103460001A82882309F4BFCF813009F048C058017F
:1034700032E0A30EB11CC4010E94B834982E8A8396
:10348000882309F4B0CFC5010E94B834D82E8FEF3D
:10349000890D833068F4580143E0A40EB11CDB822F
:1034A000DD2021F0CE0101960E94A7118501D0CF29
:1034B00054E09512FBCF580184E0A80EB11CC8015E
:1034C00003960E94B834DD2009F48DCF882309F4D7
:1034D0008ACF8150990BC89E9001C99E300D11244E
:1034E000AD2DA150BB0BCD01820F931F0197F0F2C0
:1034F000EFE9FFE03197F1F700C00000F7CFCE0110
:1035000001960E94A7115401D1CF81E00E94DD0DE8
:103510000E94AA0D68CF81E00E94B50DF9CF82E02C
:10352000FBCF823009F0FFCE80915D0290915E0268
:10353000892B09F4F8CE26E12C9DC0012D9D900D1C
:10354000112483559C4FDC0150961C920E94410C23
:10355000EACE84E00E94B00780914C020E942214BF
:1035600042CF80E0F7CF80914C02982F987F79F07E
:10357000885080934C02887F91E009F490E080911C
:103580004C0290FB80F980934C020E94221480919F
:103590004C028695869586950E94710724CF80916E
:1035A0004C02982F969596959695943040F49F5F8F
:1035B000990F990F990F8770892B80934C028091F6
:1035C0004C028160E0CF80914C0280FF07C08E7F6B
:1035D00080934C020E94221480E0DECF80FD03CF56
:1035E000816080934C02813019F489E080934C0211
:1035F00080914C02CACF90914C02892F8695869576
:1036000086958F5F8F719770853048F4880F880F8B
:10361000880F892B80934C0280914C02ACCF909301
:103620004C02FACF80914C0281FF03C00E94271404
:10363000DACE0E943A14D7CEC80197558F3F910534
:1036400011F008F04CC04091000150910101481761
:10365000590724F4909301018093000136E1389FCB
:103660005001399FB00C1124A50143555C4F6A01EC
:10367000DA0150962C935097F701928116968C910F
:103680001697992309F487C01A961C930E931997DD
:103690008F5F16968C930E942D06D6011E969C93E2
:1036A0008E931D9780910E0217968C931797809199
:1036B0009D049091B902892B18968C931897ED91DF
:1036C000FC911197309739F054966D917C91C5011A
:1036D0008D549C4F09951093AC030093AB038091DC
:1036E000A10380FF39C00E942D066C01D7011296FC
:1036F0008C91882309F46BC08091190182FF08C066
:1037000023E132E040E0B60190E080E00E94EB105F
:103710000B31BCE51B0709F44CC00C31ECE51E076E
:1037200009F44DC090911901892F8E7F90FF81601F
:103730000A31FCE51F0709F445C0C8019056811500
:1037400020E2920728F0905E8115904108F04DC06C
:103750001092DD021092DC02033FBCE51B0709F466
:1037600094C108F032C1083DFCE51F0709F487C188
:10377000093D2CE5120709F4A0C1073D3CE51307FC
:1037800009F02FC106E221EE41EE67ED7CE5C701AD
:103790000E94591028CE882309F4A1CFFA0181890B
:1037A000882309F49CCFC5018D549C4F0E94FC0BCB
:1037B00096CF80911901816080931901BECF8091CD
:1037C00019018E7F809319010E94620CB6CF8091FF
:1037D00019018F7E013E110531F0053E1105C9F436
:1037E000809119018F7D809319018091190180FFCB
:1037F000B3CFD70112968C910832110528F50E31FE
:10380000110508F074C00430110580F58111A0CFB6
:10381000A3CFC8019056811540E2940720F0905E36
:103820008115904110F78091190182FF95CF809109
:10383000A30381FD91CF23E132E040E0B60190E0A7
:1038400080E00E94EB1088CF0933110558F40D3247
:10385000110518F40B321105C9F69091A10392FDE0
:10386000D5CF08C004361105C1F3D0CF9091A10384
:1038700094FDCCCF882309F4A1C09091B902809126
:103880000E02282F292B322F3D7FB1F11092DD023D
:103890001092DC023091A10331FD2EC0F80143E00B
:1038A000F695E7954A95E1F7EE71FF27E654FD4F4F
:1038B00098012F70332781E090E002C0880F991F94
:1038C0002A95E2F780959095208131818223932378
:1038D0009183808360E0C8010E94D71080910E021E
:1038E0008D7F0E945F0B82E00E94C10D7CCD909184
:1038F000A10393FD8BCFBECF38E0F701A3E1B2E087
:1039000001900D923A95E1F710921502109217026C
:1039100010921602A090DC02B090DD020A151B0581
:10392000B1F53091A10335FF32C04091190141FB3F
:10393000992490F841FF02C036FF29C04091DA0275
:103940005091DB02B601641B750B40919E035091B0
:103950009F0364177507D8F491FF08C0809119017F
:1039600080618093190182E00E947A0B8091B902F4
:1039700085FF08C08091190180628093190180E25F
:103980000E947A0B692DC5010E94D7102CCD909111
:10399000190121FB91F9909319018D7F0E945F0B12
:1039A0001093DD020093DC02D092DB02C092DA02B7
:1039B0008091190184608093190195CF970140E0AF
:1039C000B601C8010E94EB100ECD053F4CE514076F
:1039D00009F467C008F45FC0063F8CE5180709F4D6
:1039E00066C0D70112963C91332309F45DC410924E
:1039F000AA030330BDE51B0708F065C00A3FECE5EC
:103A00001E0730F4C80182509C45449708F060C0FE
:103A10000E945913909369048093680400312CE547
:103A2000120709F461C108F0DDC008304CE5140745
:103A300009F448C108F0AFC004308CE5180709F458
:103A400033C108F095C00230ACE51A0709F426C16D
:103A500080916804826003301C4509F422C16091A2
:103A600068041091690484E090E00E94C634612FDC
:103A700082E290E00E94C6340E94CB15B4CC07E2EB
:103A800025EE45EE68ED7CE582CE06E221EE40EEC5
:103A900063EF7CE57CCE07E225EE44EE64EF7CE547
:103AA00076CE06E221EE42EE65EF7CE570CE07E2CF
:103AB00025EE46EE66EF7CE56ACE08E221E045EEB3
:103AC00069ED7CE564CE0136FDE51F0709F4A0CF62
:103AD00006315CE5150709F4EBC30A354DE514071B
:103AE00009F453C108F02FC101158CE5180709F43A
:103AF0003CC10E3D1C4509F445C1F7018681978103
:103B0000009709F446C10E94CC09182F092FF7012C
:103B1000D280C580C2943FE0C32280910A028770A0
:103B2000C1F0AD2CDD20B1F0892F807F803421F0F1
:103B300080E2810F883068F08091690482FD09C0BD
:103B400082E00E94C10D80910A028770AA24A3948A
:103B50008111A12C902E92942FE09222FBE0F91576
:103B600008F4A4C1E92DF0E0ED5DFA4C0C945B344F
:103B70008091680480610630ECE51E0709F491C06D
:103B800080916804886007301C4508F48AC08091E1
:103B90006804806286C0809168048D7F0C302CE5BB
:103BA000120709F47EC070F4809168048C600A30BA
:103BB0004CE5140709F475C008F488C080916804C6
:103BC0008E7F6FC00E308CE5180709F485C0809198
:103BD00068048B7F0F301C4508F463C08091680433
:103BE0008F7E5FC00C3FACE51A0709F479C068F519
:103BF0000431ECE51E0709F48BC080F402312CE59A
:103C0000120709F475C0809168048F7B03311C454D
:103C100008F447C080916804837F43C00A3F4CE5A5
:103C2000140709F445C008F049C005311C4509F0E6
:103C300016CF8091680482FB992790F921E09227A2
:103C400090FB82F990FB83F92CC001159DE51907C3
:103C500009F454C088F48091690483600E3FBCE588
:103C60001B0749F1809169048D7F0F3F1C4518F1B6
:103C7000809169048C7F1FC00230FDE51F0709F4A5
:103C800056C008F44EC001361D4509F0E8CE9091AB
:103C90006804892F8F7E94FF806103C0809168043F
:103CA000816080936804DBCE809168048460F9CFE2
:103CB00080916904816080936904D1CE8091690408
:103CC0008260F9CF809168048064EBCF0E94CB15AD
:103CD000809168048068E5CF80916804877FE1CF98
:103CE000809169048E7FE7CF809168048F7DD9CF62
:103CF0000E94CB15809168048F77D3CF809169049F
:103D0000982F909591708E7F892B90FB81F9D3CF5E
:103D10000E94CB1590916804892F97FB87F98058F2
:103D2000C0CF61E08EE090E00E94C63498CE60E0A3
:103D3000F9CF80919C01811104C089E20E94860C18
:103D4000E2C285E3FBCF0B35ADE51A0701F10C3577
:103D50001D4509F0D2CE8091690482FB882780F945
:103D600091E089270E944D14C8CE0E94CB15EFEF39
:103D7000F4E32CE0E150F0402040E1F700C0000007
:103D80000E94590F0E94BF182ECB81E0EBCF80E03C
:103D9000E9CF828100811181882369F0C8010E94E6
:103DA000C012D82E682FC8010E943B0DB8018D2D7E
:103DB0000E94A412A8CEC8010E940F0DD82EF6CFE3
:103DC000202F2F70B22E802F807F19F0B29490EFA9
:103DD000B922DD20A9F0BB2059F080E2810F8830A4
:103DE00010F0111107C08B2D0E94810B0E94A80BAF
:103DF000812F5AC080919D04B82AB0929D04F6CFBD
:103E0000812F0E94210EBB2009F450C080E2810F57
:103E1000883010F0111104C08B2D0E947A0B03C062
:103E20008B2D0E94730B0E94A80B40C0302F3F7057
:103E3000B32E802F807F803219F0B29480EFB822A9
:103E4000112321F1113009F4A6C0DD2009F4AFC01F
:103E5000CC2009F47FC020E0D7014C9111965C91F1
:103E6000119712966C91129713967C911397149652
:103E70008C910E9409138091A30381FDB9CFF701B2
:103E8000858180FFB5CF8F70858364C08091690480
:103E900082FF42C0DD20D1F1BB2029F08B2D0E9492
:103EA000810B0E94A80B80E00E94870FA92DA850CB
:103EB000BB0B149720F40E9465060E94770E812F99
:103EC000902F0E946A0D8111C4C110929E01109220
:103ED0009D01AA20B1F080910A0280FD12C0D70195
:103EE00012961C928595859585950E94DD0DC701DA
:103EF0000E94291980910A028595859585950E94D1
:103F0000B50D60E0C7010E9432137DCA80E00E94B7
:103F1000210EBB2059F280CFDD2001F1C11004C079
:103F200080910E028B2917C041E0C41206C0809117
:103F30000E028B290E945F0BB9CF8091A2038230C1
:103F400078F3C812EDCF0E94540B80910702B8128B
:103F5000B09207028B2D0E941A0EA8CFC11006C086
:103F60000E94540B8B2D0E94130EA0CF8091A203B0
:103F700051E0C5120BC0823008F498CF8091B9028D
:103F80008B2109F493CF0E94800CEACF823040F35A
:103F9000C812E6CF8BCFDD2029F085E08C1508F420
:103FA00085CFD8CF94E09C1508F480CFDBCFCC2010
:103FB000C9F28091A6039091A703193321F0809153
:103FC000A4039091A5030E947D0F812F0E94210ED2
:103FD0006DCF802F86958695837069F0813009F0CA
:103FE00065CF812F902F9370D11002C090E080E0B8
:103FF0000E9439065BCF812F902F9370D11002C0A1
:1040000090E080E00E944F0651CF812FDD2029F003
:104010000E9408090E94C60749CF0E94ED07FACF07
:10402000802F837091F5D11041CF412F4295469555
:104030004770440F440F812F8F70042E01C0880FEA
:104040000A94EAF7212F207114FF07C02FE030E017
:1040500001C0220F4A95EAF72095302F3695369504
:104060003370323069F050F440910F02313029F052
:10407000822B84230E94FE0D19CF842B822BFACF32
:10408000282B80910F028227F5CF8695DD2011F035
:10409000802F8170882309F409CF412F42954695DE
:1040A0004770440F440F812F8F70042E01C0880F7A
:1040B0000A94EAF7212F207114FF07C02FE030E0A7
:1040C00001C0220F4A95EAF72095302F3695369594
:1040D0003370323069F050F440919C04313029F053
:1040E000822B84230E94A60DE1CE842B822BFACF53
:1040F000282B80919C048227F5CFF02FFF70BF2ED4
:10410000DD2029F08F2F0E94DD0D812F24CF812FFC
:104110000E94130E8B2D0E94B50DC8CE123F89F15F
:1041200060F4103FB9F0113F81F0DD2009F48CC03C
:10413000C1105ECE802F8F7128C0133F49F1143F0C
:10414000A1F78091690482FF2FC0802F8F71DD203D
:1041500011F31BC0DD2081F024E02C1508F4A6CE5D
:10416000202F2F7181E090E001C0880F2A95EAF797
:1041700090919C048927B6CF35E03C1508F496CE83
:10418000EFCF802F8F71D110C6CF0E94DD0D8ECE64
:1041900080E0DD2009F4A6CF81E0902F9F7101C05F
:1041A000880F9A95EAF79ECF8091A2038230A0F102
:1041B00080910702DD20F1F00E947A0B80910A02C3
:1041C0008770843041F40E94870B802F8F710E948A
:1041D000B50DA12C6BCE8091A203C816D0F7402F4D
:1041E0004F71B42E842F0E94DD0D63E08B2D0E9451
:1041F000E80DEFCF0E94810B8091A203C81640F01A
:104200000E94870B0E94800C64E0802F8F71EFCF9B
:1042100081E00E94C10DDDCFDD2059F0502F5F718C
:10422000B52E852F0E94DD0D63E08B2D0E94E80DD9
:104230003DCE81E00E94C10D81E08C1508F036CEA4
:1042400082E00E94C10D32CEC110B3CE802F8F719B
:1042500062CFDD2019F0C11038CE3BCEC11035CE73
:1042600020E0F701408151816281738184810E9445
:1042700009138091A30383FF28CE80919D01909123
:104280009E01029709F021CE812F0E9438101DCE89
:104290000031BFE51B0709F438C90131EFE51E07FE
:1042A00009F041C882E032C906311C4509F025CC2D
:1042B0008091B902982F9A7A2091A00320FF04C020
:1042C000482F447409F090E021FF04C0482F417149
:1042D00009F090E022FF04C0482F487809F090E0F0
:1042E00023FF03C0827209F090E0332309F421CD4B
:1042F00081E0911101C080E080939C0189E29111DD
:1043000085E30E94B10C0E94A80B6DC8CF92DF928A
:10431000EF92FF920F931F93CF93DF938091C2018F
:10432000807F31F48091BF01C091060281110BC0E2
:10433000DF91CF911F910F91FF90EF90DF90CF9081
:1043400008952196C7708091C5018C1789F3F0906C
:10435000BD01E090BE01C090C001D090C101A60196
:104360006E2D8F2D0E947106D0E08111EACF8E0153
:1043700083E0000F111F8A95E1F7F801EA53FE4F21
:1043800081818E11DECF80818F11DBCF82818111FF
:10439000D8CFE380F480EC18FD0860E08DEB91E06D
:1043A0000E94321380919E0390919F03E816F906B4
:1043B00040F68091C2018F7080618093C201F80144
:1043C000E553FE4F80818F70806180838DEB91E09B
:1043D0000E942919DF91CF911F910F91FF90EF90CB
:1043E000DF90CF900C94050D3F924F925F926F92A9
:1043F0007F928F929F92AF92BF92CF92DF92EF9275
:10440000FF920F931F93CF93DF93CDB7DEB76597DE
:104410000FB6F894DEBF0FBECDBF8C0185E0F8016A
:10442000DE01519601900D928A95E1F7D8014C90EA
:1044300011965C9011971296EC9012971396CD906E
:10444000DC9060E08DEB91E00E9432138DEBA82EA2
:1044500081E0B82E8090C0019090C101A4016091CC
:10446000BE018091BD010E9471068111CAC1F09008
:10447000BF01F601E819F9094F0160E0FF2009F4D6
:104480006DC1C5010E94321360909E0370909F031E
:104490003090C2018614970408F013C14091C00106
:1044A0005091C101B090BD01A090BE01832D807FCD
:1044B0006A2D09F0ADC08B2D0E947106FE2C811172
:1044C0003BC0D80111968C9111978A1135C08C91FF
:1044D0008B1132C02091C3013091C40116968D9189
:1044E0009C912817390741F5E11026C0832D8F7064
:1044F00080618093C2018DEB91E00E942919809127
:10450000C201F80185838F2D65960FB6F894DEBF42
:104510000FBECDBFDF91CF911F910F91FF90EF9014
:10452000DF90CF90BF90AF909F908F907F906F90D3
:104530005F904F903F900895F4EF6F16F1E07F0683
:1045400020F48091A30380FF21C0A601652D842D56
:104550000E947106811118C081E08E2580FF16C06F
:104560004E2D652D842D0E94E50C882379F08DEB6E
:1045700091E00E94291988E0EDEBF1E0DF011D9246
:104580008A95E9F7F12CBFCF80E0E8CFA601652D31
:10459000842D0E947106811124C081E08E25B82FE0
:1045A000B170CB2E80FF2BC04E2D652D842D0E9427
:1045B000E50CD82E811123C0498A5A8A89899A89A3
:1045C0000E94EF12292F22952F70223060F02430A4
:1045D00088F49F7061F0F8019581907F41F4FD2C83
:1045E00092CF80E0DCCF9F7011F08823C1F3805E12
:1045F0008830A8F3C8010E942919DC2CF0CFEE20E6
:1046000009F481CF8091C20181608093C201BACF49
:104610008B2D0E947106811124C0D80111968C91B6
:1046200011978A111EC08C918B111BC02091C30160
:104630003091C40116968D919C91179728173907D0
:1046400081F4E1100EC015963C92C8010E94291910
:1046500088E0F801ADEBB1E001900D928A95E1F7A9
:1046600052CFC8010E94FB12882339F1EE2029F1B4
:104670008091C2018032A0F02091BD013091BE0135
:104680003A8729871B86DD86CC868E878091C30179
:104690009091C401988B8F87CE0109960E942919A9
:1046A00088E0F801ADEBB1E001900D928A95E1F759
:1046B0000E948621FF24F39426CFC8010E94291965
:1046C000F9CF832D807F09F452CF9090BD01809067
:1046D000BE014091C0015091C101682D892D0E94F9
:1046E000710681111CC0F8018181881118C0808178
:1046F000891115C02091C3013091C4018681978131
:104700002817390761F4E1100AC03582C8010E94F8
:10471000291988E0D5011D928A95E9F7F4CEC801E0
:104720000E94FB12882349F2EE2039F28091C201E7
:10473000803208F4B5CF2091BD013091BE013A839B
:1047400029831B82DD82CC828E838091C30190916C
:10475000C40198878F83CE010196A0CF8DEB91E0A5
:104760000E94321380919E0390919F0388169906B0
:1047700080F6FE2CEE2009F4A0CFE090BD01D09091
:10478000BE014091C0015091C1016D2D8E2D0E943E
:104790007106811128C0F80181818D1124C08081AA
:1047A0008E1121C02091C3013091C401868197816F
:1047B00028173907C1F48091A30382FD49CF909156
:1047C000C20190FD45CF907F09F442CF8091C20194
:1047D0008583903F09F439CF982F907F905F8F7039
:1047E000892B858332CFC8010E94FB12811158CFDB
:1047F0008091C20181608093C201C8010E94291981
:1048000082CEEE2009F459CFC8010E94FB12F82E87
:10481000882309F452CF88E0F801ADEBB1E00190B4
:104820000D928A95E1F78091BD019091BE010E94A1
:10483000EF120E94862167CECF93DF93CDB7DEB70C
:1048400060970FB6F894DEBF0FBECDBF29873A87B9
:104850004B875C876D877E878F87988BCE01099603
:104860000E94F42181112FC088E0FE013996DE01FB
:10487000119601900D928A95E1F74C855D856A85C8
:1048800089850E94710681111EC0A091C501B0E00A
:10489000CD010196877099272091060228171906E5
:1048A00009F193E0AA0FBB1F9A95E1F7AA53BE4FF7
:1048B00098E0FE01319601900D929A95E1F7809370
:1048C000C5010E94050D809106029091C5018913D2
:1048D00017C060960FB6F894DEBF0FBECDBFDF9154
:1048E000CF9108950E94CB151092C5011092060237
:1048F00088E0EDEBF1E0DF011D928A95E9F7E3CF67
:10490000B8E08B9FC00111248A539E4F0E94F4216E
:104910008823F9F28091060290E00196877099272A
:1049200080930602D0CFEF92FF920F931F93CF9305
:10493000DF938091E102882361F0C091E0028CE076
:10494000F82E8091E102C81758F01092E1021092FF
:10495000E002DF91CF911F910F91FF90EF900895AA
:10496000EE24E394EC0EE092E0020C2F10E0CF9DD9
:10497000E0011124CE51DD4F4B815C81698188813A
:104980000E94710681111BC08E819F81892B21F4A9
:1049900088859985019651F4288139814A815B8106
:1049A0006C817D818E819F810E941C24F09EF0018C
:1049B000F19EF00D1124EE51FD4F14821382CE2D85
:1049C000C0CF109285031092840310921A01809137
:1049D0008303809382030E94AA060C9493243F923F
:1049E0004F925F926F927F928F929F92AF92BF92FF
:1049F000CF92DF92EF92FF920F931F93CF93DF93AB
:104A0000C091820397E0892E01E010E02CE0322E65
:104A10003EEF932E44244394809183038C1315C05E
:104A20000E949324DF91CF911F910F91FF90EF90FF
:104A3000DF90CF90BF90AF909F908F907F906F90BE
:104A40005F904F903F900C94AA06D0E0FE01EE0FCD
:104A5000FF1FE658FC4F80819181889ED001899E7E
:104A6000B00D1124AE5BBC4F14962C9114972111FC
:104A700057C05090E102E2EEF2E030E020E0712C0D
:104A80005D01251508F04AC0E284F384D501CD907C
:104A9000DC906FEF7FEF612C462D50E0DA01AA0F1A
:104AA000BB1FAC0DBD1D0D90BC91A02D109731F01A
:104AB000EA16FB0609F4BA016394EECF6F3F76075E
:104AC000A1F1D80102C0AA0FBB1F6A95E2F77A2AAA
:104AD000B80102C0660F771F6A94E2F7AB0141503C
:104AE000510974161506F9F4329EF001339EF00D4B
:104AF0001124EE51FD4F889ED001899EB00D1124E6
:104B0000AE5BBC4F12962D913C9113973783268351
:104B1000908291829187808715964C920E947C06A4
:104B20002196C37079CF148213822F5F3F4F3C963A
:104B3000A8CF4F925F926F927F928F929F92AF9287
:104B4000BF92CF92DF92EF92FF920F931F93CF937A
:104B5000DF93CDB7DEB72A970FB6F894DEBF0FBE4E
:104B6000CDBF8E010F5F1F4F8AE0F80111928A9529
:104B7000E9F795E5E92E91E0F92E68012AE5422E44
:104B800021E0522E66246394712C4AE6842E41E083
:104B9000942EF70181917F018F3F09F445C0F8946D
:104BA000E82FE295EF70F0E021A18F70A30102C021
:104BB000440F551F8A95E2F7CA01922F982B91A3B3
:104BC00092A18095892382A3789400C0EAE5F1E060
:104BD00021E030E0B12CA12C41914F3F09F47EC07F
:104BE000A42FA295AF70B0E090968C9190E04F709A
:104BF00002C0959587954A95E2F780FD6FC0C9017F
:104C0000A82AB92A220F331F8E169F0629F7F7010B
:104C1000319780818F3F11F00E94720950EA5A95B6
:104C2000F1F7F601B182A082F2E0CF0ED11C4E1452
:104C30005F0409F0AECF4AE050E0B8018BE192E0AA
:104C40000E948B34DD24D394009709F4D12C892B56
:104C500009F447C08AE0F801ABE1B2E001900D929F
:104C60008A95E1F781E0809312020E942D069093CD
:104C700011028093100280911002909111020E9403
:104C80001E06059790F180911B0290911C02909353
:104C900036028093350280911D0290911E029093FE
:104CA00038028093370280911F02909120029093E6
:104CB0003A028093390280912102909122029093CE
:104CC0003C0280933B0280912302909124029093B6
:104CD0003E0280933D021092120207C090E080E0F5
:104CE0008FCF809112028111C6CF809100019091E7
:104CF000010110E006E1019609F06DC080911A01F2
:104D0000811173C08091A10380FF1EC080911901A1
:104D100082FF1AC00E942D062091DA023091DB0238
:104D2000AC01421B530B209117013091180142171F
:104D3000530750F023E132E041E0BC018091DC02F6
:104D40009091DD020E94EB108D2D2A960FB6F894FB
:104D5000DEBF0FBECDBFDF91CF911F910F91FF90AE
:104D6000EF90DF90CF90BF90AF909F908F907F900B
:104D70006F905F904F900895089FF001099FF00D8C
:104D80001124E355FC4FE288F388E114F10421F487
:104D9000E0909E03F0909F03089FF001099FF00DA3
:104DA0001124E355FC4F86818823A1F085859685E3
:104DB0000E941E06E816F90668F4109F700111247F
:104DC000C70183559C4F0E94410CC7018D549C4FD5
:104DD0000E94FC0B1F5F812F90E020910001309119
:104DE00001012817390744F689CF809184039091F7
:104DF0008503009709F486CF0E941E062091DE02EB
:104E00003091DF022817390708F07CCF9091820398
:104E100080918303981759F00E94EF241092DF02CB
:104E20001092DE0210928503109284036BCF0E94D1
:104E3000932410928503109284030E94AA0662CFE5
:104E40002F923F924F925F926F927F928F929F929A
:104E5000AF92BF92CF92DF92EF92FF920F931F9388
:104E6000CF93DF93CDB7DEB769970FB6F894DEBF67
:104E70000FBECDBF942F498B252F5A8B6B8B7C8B0C
:104E80008D8B4C895D89622F892F0E94710681115B
:104E900009C080919D0190919E01019690939E0181
:104EA00080939D018B89811110929D041D861E8621
:104EB0001F86188A85E0FE017196DE011996019021
:104EC0000D928A95E1F78091690482FD1EC0809160
:104ED000880390918903892BC1F00E942D062091AF
:104EE000080230910902821B930B209188033091B4
:104EF00089038217930720F080910A0282FFF5C18F
:104F00000E948E0B81110E94540B4C855D856A8531
:104F100089850E947106811111C061E0CE01099658
:104F20000E9432136C018B8527EFC2162CE5D20646
:104F300081F4882321F181E080931A0129853A8543
:104F40004B855C856D857E858F8598890E941C24A4
:104F5000C5C038EFC3163CE5D30629F4882379F0A1
:104F60000E94E124EBCF49EFC4164CE5D40639F496
:104F7000882329F080911A018111F2CFDCCF02E45D
:104F800013E0512CB12CA12C22242394312C2EEF90
:104F9000422EF8014081518188248A94982C20E087
:104FA000822F90E0FC01EE0FFF1FE40FF51F6081E0
:104FB00071816115710531F0C616D70609F44C01EF
:104FC0002F5FEECFF12CFFEF8F169F0609F448C03C
:104FD000F8014481F0901A018F2D411180E0F82FE3
:104FE000F170FF2EF801E58086819B85992309F4F5
:104FF0000CC1FF2009F409C160909C0370909D03CF
:10500000E11012C0A10101C0440F8A94EAF7842B79
:1050100086838091DE029091DF028615970520F449
:105020007092DF026092DE02C10102C0880F991FF8
:105030002A95E2F70197F80126812817190681F4CD
:105040008091840390918503009709F460C00E94C9
:105050001E066816790608F05AC021E0F80124837C
:105060005F28FFEFAF1ABF0A095F1F4F28E0A216A3
:10507000B10409F08ECF8B85882309F421C1552016
:1050800009F41EC10E942D0690938503809384032A
:105090008091E102883010F591E0980F9093E10241
:1050A00098E0FE013996DE01119601900D929A95D5
:1050B000E1F73CE0839FC00111248E519D4F28E011
:1050C000FE013196DC0101900D922A95E1F72FEF58
:1050D0003FEFFC0131872087D386C28669960FB6E1
:1050E000F894DEBF0FBECDBFDF91CF911F910F911E
:1050F000FF90EF90DF90CF90BF90AF909F908F90F8
:105100007F906F905F904F903F902F900895809187
:10511000820350918303982FF0E0E0E0851314C0E0
:1051200090938203E017F10709F49ACF90E0FC0115
:10513000EE0FFF1FE658FC4FB182A08201968370EC
:105140009927809383038CCF682E712CF301EE0F87
:10515000FF1FE658FC4F2081318147E0429FD0017C
:10516000439FB00D1124AE5BBC4F6D917C911197A4
:10517000798F688F40E020E030E0E32FF0E0EE0F21
:10518000FF1F688D798DE60FF71F80809180811455
:105190009104E1F0F8010190F081E02DFF8BEE8B9E
:1051A00020E005C08616970609F44F2D2F5FE22FE9
:1051B000F0E0EE0FFF1F6E897F89E60FF71F608119
:1051C00071816115710571F73F5FD7CF4423D1F02D
:1051D000F801231708F0FD0121E024830E171F07B3
:1051E00021F490938203F42E3BCF981305C0AE17A1
:1051F000BF0711F49F5F937093012F5F3F4F822F82
:1052000083708CCFF0E0E0E0F7CF90E0E1101FC0BA
:10521000B10102C0660F771F2A95E2F79B0121506A
:1052200031098217930731F4442309F447C0C501BB
:105230000E947C06C10101C0880F8A94EAF7982F6A
:105240009095F801868189238683FE2C09CF9C01E5
:10525000082C02C0359527950A94E2F7A901417000
:105260005527BC016150710986239723892B11F5BD
:10527000452B01F1F80182819381892BC1F01B82BA
:105280001C821D821E8249824A820E942D068160F4
:10529000582F9D838C83F801828193818F83988717
:1052A00029813A814B816D817E810E941C24F80105
:1052B0001582C0CFF22FF170EF2EBCCFEF2CBACFFA
:1052C0009091820380918303981731F00E94EF241C
:1052D000552009F433CE02CF0E9493241092850307
:1052E000109284030E94AA06F3CF82E00E94C10DAF
:1052F00007CECF93DF9300D000D00F92CDB7DEB7AB
:105300009093B6028093B502811520E2920748F48B
:105310000F900F900F900F900F90DF91CF910C9402
:10532000AE0E8EEF89838A831B820E942D068160D8
:10533000782F9D838C8349815A816B818D810F9059
:105340000F900F900F900F90DF91CF910C9420272A
:105350000F931F93CF93DF938C01EB0169E572E00C
:105360008C2F0E940815892BA1F48091A4039091A1
:10537000A5030E947D0FDD27CF5ADD4F8881F801FC
:1053800010821882833009F148F4813059F082305C
:1053900081F0DF91CF911F910F9108958430D1F06A
:1053A0008530B9F78091590290915A02009789F39C
:1053B00006C080915B0290915C02009799F3DF91A7
:1053C000CF911F910F910C94792980915D0290915A
:1053D0005E02F3CF80915F0290916002009779F7AF
:1053E0002091590230915A0280915B0290915C02A7
:1053F00021153105D9F2009711F7C901E0CFCF93FC
:10540000DF9300D000D00F92CDB7DEB79093B602F5
:105410008093B502811520E2920748F40F900F9017
:105420000F900F900F90DF91CF910C94C0108EEFE2
:1054300089838A8381E08B830E942D068160782F87
:105440009D838C8349815A816B818D810F900F9050
:105450000F900F900F90DF91CF910C942027CF9356
:10546000DF93EC010E94FF298091A4039091A50392
:105470000E947D0FCE01DF91CF910C9479290F937B
:105480001F93CF93DF938C01862F69E572E00E9412
:105490000815892BC9F4C0915902D0915A0220975E
:1054A00099F0F8018081833069F4CE010E942F2A9F
:1054B000CE010E942F2ACE01DF91CF911F910F9133
:1054C0000C942F2A8430B8F7DF91CF911F910F9160
:1054D00008950F931F93CF93DF938C01EB0169E540
:1054E00072E08C2F0E940815892B09F064C0FE0120
:1054F000FF27D8018C91EF5AFD4F8130D9F41996CE
:105500009C911997992311F080830CC01A969C9155
:105510009923D1F382E0808380915B0290915C02B9
:105520000097D9F48091590290915A02009709F49A
:1055300042C013C08230E9F519968C9119978111F8
:105540002DC01A968C9181110EC083E080838091CA
:105550005D0290915E02009719F1DF91CF911F914A
:105560000F910C94FF2984E0808380915F029091D9
:105570006002009791F78091590290915A0200972A
:10558000F9F00E942F2A80915B0290915C020097B3
:1055900021F78091590290915A02DFCF85E08083F4
:1055A0008091590290915A02009729F00E942F2A67
:1055B000F0CF86E08083DF91CF911F910F91089506
:1055C00080915B0290915C02B1CF0E94B41881116E
:1055D0000AC00E94BF1880914C028470816280933F
:1055E0004C020E94221486E090E00E94B83480931E
:1055F0004C02883220F08770806280934C02909138
:105600004C02892F817090FF04C0892F8695869562
:1056100086950C9471071F920F920FB60F9211246A
:105620002F933F934F935F936F937F938F939F93AA
:10563000AF93BF93CF93DF93EF93FF93D091E900A4
:10564000DF708091EC00C82FC17080FDC0E810921F
:10565000E9008091F000877F8093F00078940E94A9
:10566000E0151092E9008091F00088608093F000CE
:10567000CD2BCF70C093E900FF91EF91DF91CF91D7
:10568000BF91AF919F918F917F916F915F914F915A
:105690003F912F910F900FBE0F901F9018951F9262
:1056A0000F920FB60F9211242F933F934F935F9356
:1056B0006F937F938F939F93AF93BF93EF93FF93DA
:1056C0008091E10082FF09C08091E20082FF05C065
:1056D0008091E1008B7F8093E1008091DA0080FF70
:1056E00024C08091D80080FF20C08091DA008E7F96
:1056F0008093DA008091D90080FF9DC080E189BD50
:1057000082E189BD09B400FEFDCF81E080939B0456
:1057100080916D04811109C00E9468040E945B059C
:105720008091E20084608093E2008091E10080FF3C
:1057300017C08091E20080FF13C08091E2008E7F4D
:105740008093E2008091E20080618093E20080918A
:10575000D80080628093D80019BC85E080939B04B8
:105760008091E10084FF2BC08091E20084FF27C07C
:1057700080E189BD82E189BD89B5982F917080FF54
:10578000FBCF8091D8008F7D8093D8008091E1007D
:105790008F7E8093E1008091E2008F7E8093E20013
:1057A0008091E20081608093E200809192048823DE
:1057B00009F447C084E080939B0480919B0480910E
:1057C000E10083FF27C08091E20083FF23C0809126
:1057D000E100877F8093E10082E080939B04109238
:1057E00092048091E1008E7F8093E1008091E2003D
:1057F0008E7F8093E2008091E20080618093E200DE
:1058000042E060E080E00E9429058091F00088601D
:105810008093F000FF91EF91BF91AF919F918F9195
:105820007F916F915F914F913F912F910F900FBE9C
:105830000F901F90189519BC10929B0410926D0444
:1058400074CF8091E30087FD93E090939B04B5CFE4
:1058500078941F921FB61F9211248F939F93AF933A
:10586000BF938091640490916504A0916604B09107
:1058700067040196A11DB11D809364049093650493
:10588000A0936604B0936704BF91AF919F918F91ED
:105890001F901FBE1F9018951F921FB61F921124B4
:1058A0008F939F93AF93BF9380916304811113C033
:1058B0008091640490916504A0916604B09167049E
:1058C0004196A11DB11D8093640490936504A0933B
:1058D0006604B0936704BF91AF919F918F911F9021
:1058E0001FBE1F9018951F920F920FB60F92112492
:1058F0002F933F934F935F936F937F938F939F93D8
:10590000AF93BF93EF93FF9380914D02882339F0BB
:1059100080910E01823031F18F5F80930E012091D2
:1059200088003091890080918600909187006AEF0D
:1059300070E00E9411346B5F7F4F6217730708F4A9
:10594000289AFF91EF91BF91AF919F918F917F9195
:105950006F915F914F913F912F910F900FBE0F90DC
:105960001F90189581E080930E0180914F029091D5
:105970005002019660ED72E00E9411349093500243
:1059800080934F0265E070E00E9411346F77809140
:105990004E02823029F4603439F410924D0204C072
:1059A000813011F46F37C9F3E62FF0E0E651FC4F78
:1059B000E4912091860030918700E29FC001E39F2F
:1059C000900D11246CEF73E00E94113480914C0211
:1059D000869586958695282F269FC001279F900D36
:1059E00011240E94E906909389008093880097CF44
:1059F00028981895CDB7DEB7E4970FB6F894DEBFB8
:105A00000FBECDBF84B7877F84BF0FB6F894A8952B
:105A100080916000886180936000109260000FBEEA
:105A200080E890E00FB6F894809361009093610055
:105A30000FBE85B7806885BF85B7806885BF80E762
:105A400099E090937B0180937A010E941C150E943B
:105A500072150E944F120E9468040E945B0580919B
:105A6000E20084608093E200789480919B04882314
:105A7000A1F01091E9001F709091EC00892F8170C6
:105A800090FD80E8182B1092E9008091E80083FDDA
:105A90000E94E0151F701093E90082E084BD93E03E
:105AA00095BD9AEF97BD80936E000E9440138111BF
:105AB00002C00E94F91405E511E0EAE5EE2EE1E0EE
:105AC000FE2ED8018D918D018F3F11F00E94720939
:105AD000E016F106B1F70AE511E07AE6E72E71E08B
