:100000000C943F030C9486030C9486030C94860393
:100010000C9486030C9486030C9486030C9486033C
:100020000C9486030C9486030C94362A0C94F229C3
:100030000C94332B0C9486030C9486030C94860347
:100040000C9486030C94882B0C9486030C948603E2
:100050000C945A2B0C940F2B0C9486030C9486034F
:100060000C9486030C9486030C9486030C948603EC
:100070000C9486030C9486030C9486030C948603DC
:100080000C9486030C9486030C9486030C948603CC
:100090000C9486030C9486030C9486030C948603BC
:1000A0000C9486030C9486030C94860305010902C4
:1000B000A10185020901A100050919012905150001
:1000C00025019505750181029501750381010501E1
:1000D000093009311581257F950275088106093897
:1000E0001581257F950175088106050C0A380215D2
:1000F00081257F950175088106C0C005010980A191
:1001000001850319012AB700150126B7009501756D
:10011000108100C0050C0901A101850419012AA064
:1001200002150126A002950175108100C005010984
:1001300006A1018506050719E029E71500250195A7
:1001400008750181020507190029EF1500250195A1
:10015000F0750181020508190129059505750191C0
:1001600002950175039101C00660FF0961A10109B3
:1001700062150026FF0095207508810209631500AD
:1001800026FF00952075089102C005010906A1010E
:10019000050719E029E71500250195087501810279
:1001A0009501750881010507190029FF150026FF33
:1001B0000095067508810005081901290595057542
:1001C000019102950175039101C00000000000003B
:1001D000000000000000000000000000000000001F
:1001E00000000000000000000000000000007E0F82
:1001F00000D4FFFFFFC700000078000000000000EF
:1002000000002A2B28000000000000000000000071
:10021000000000000029000000002C1E34202122D4
:1002200024342627252E362D3738271E1F2021223D
:10023000232425263333362E37381F0405060708B6
:10024000090A0B0C0D0E0F101112131415161718A6
:10025000191A1B1C1D2F3130232D350405060708E4
:10026000090A0B0C0D0E0F10111213141516171886
:10027000191A1B1C1D2F3130354CFD377A585A0086
:100280000004E6D6B4460200210116000000742FD7
:10029000E5A3E0038D012F5D003D8889C65436C378
:1002A000174FE4E33B694B119285B903F86F56ACE5
:1002B000E42F2B35BC4C59EE0625973B2AA4E4F0DD
:1002C000738C50751BFA044EA3ED801C4DA37FD395
:1002D000D8467B165EAC23923AADCB15F670B5E9E5
:1002E0006CCC23C0C9C3D208DD7F6BD19A21BFBCBF
:1002F00033CD686FD2C25F1C9EF2960334B1642A7C
:1003000006C2E1E8940B497AD364565F003E5B0075
:100310006CA252BBB54BC51BE0A2C6F4A95CD49C31
:1003200055957E5C55A42D84A6C658466AEA743459
:10033000DB26921AE7D6F480BC4B65BEF0840E3BF8
:10034000FCF06467FB59FA557F8383F397F2360B11
:100350008C1771D6D432D0D2E120BD40720A789584
:10036000178B424F83081142AE0F9C92EB69F47ECB
:10037000873BA8608B32F5A1002BCAE0D06E8209C2
:10038000336289A39D338001302EF785313C29F4F7
:100390009FFBC5EAAF33D80E514FB5C185D61F8933
:1003A0001A805194E3C4CAC3F399000C0145B5F512
:1003B00030B3B8174E3D0B3763DFB9A26C7BC93B36
:1003C000A091A8CB28ED81F300002B541DE159D357
:1003D00078870001CB028E07000047BE73CAB1C404
:1003E00067FB020000000004595A680029001E0043
:1003F0001F002000210022002300240025002600E9
:1004000027002D002E002A004C0069002B0014004C
:100410001A000800150017001C0018000C0012003C
:1004200013002F00300031004B006A003900040037
:100430001600070009000A000B000D000E000F0057
:100440003300340028004E0000006B00E1001D0066
:100450001B000600190005001100100036003700CF
:100460003800E500520000000000E000E300E20078
:100470002C000151500051004F000000000000000E
:1004800000000000000000000000010035003A00FC
:100490003B003C003D003E003F0040004100420068
:1004A0004300440045004C00010001000100010030
:1004B0000100010001000100010001000100010034
:1004C00001000100010001004A00010001000100DB
:1004D0000100010001000100010001000100010014
:1004E0000100010001004D000000005C010001005E
:1004F00001000100010001000100010001000100F4
:100500000100010080000000000001000100010066
:100510000100010001008100010000000000000056
:1005200000000000000000000000010001009A032C
:1005300000000200020096030000030001009B037C
:1005400000000400020080030006050001009C0377
:10055000000006000200820300000700020098036A
:100560000000080001009D03000009000200840350
:10057000DB050A0002008603DB050B00020088038E
:10058000DB050C0002008A03DB050D0002008C0372
:10059000DB050E0002008E03DB050F000200900356
:1005A000DB05100002009203DB051100020094033A
:1005B000DB05120002009E03000013000200A003EE
:1005C000000009025B00030100A0FA090400000119
:1005D00003010100092111010001224000070581EA
:1005E0000308000A090401000203000000092111A8
:1005F00001000122220007058203200001070503F4
:100600000320000109040200010300000009211178
:1006100001000122BC000705840320000A1201002A
:100620000200000008D804B5ED0100010203011C1E
:10063000037600690061006C003A00660036003401
:10064000006300320062003300630000000E034EBE
:10065000006900630065003600390000001A03439A
:10066000004C00410043004B002D00410054005459
:1006700000410043004B0000000403090400112462
:100680001FBECFEFDAE0DEBFCDBF04B603FE27C04A
:100690008091980490919904A0919A04B0919B0440
:1006A0008730904BA740B04BD1F410929804109231
:1006B000990410929A0410929B0414BE84B7877F09
:1006C00084BF0FB6F894A8958091600088618093EC
:1006D0006000109260000FBEE0E0F8E3099511E0C1
:1006E000A0E0B1E0EAE5F7E602C005900D92A83778
:1006F000B107D9F724E0A8E7B1E001C01D92A839FD
:10070000B207E1F70E948A2B0C9479330C94000015
:10071000E8EDF0E080818E7F80831092E2001092FD
:10072000DA001092E100A0EEB0E08C9181608C9331
:1007300080818F77808319BCA7EDB0E08C918E7F8C
:100740008C9380818F7E808310926704089520911E
:10075000E4003091E50095E6A9012091EC00822F9C
:10076000817020FF06C08091E80080FF06C080E015
:1007700008952091E80022FD1AC0809195048823F5
:1007800089F0853089F08091EB0085FD0FC02091C4
:10079000E4003091E50042175307F9F29150E1F679
:1007A00084E0089582E0089583E0089581E008954B
:1007B000EF92FF920F931F93CF937C018B010E94C6
:1007C000A703C82F811117C08091E80085FD0BC0D9
:1007D0008091E8008E778093E8000E94A703882329
:1007E00099F3C82F08C0F70181917F018093F10030
:1007F0000150110949F78C2FCF911F910F91FF9054
:10080000EF900895CF93FC0180919504843001F519
:10081000C091E900CF702091EC00922F917020FDE3
:1008200090E8C92B82E08093E9008091E80080FF86
:100830000CC050E040E060E270E0CF010E94D803BD
:100840008091E8008E778093E800CF70C093E90034
:10085000CF91089580918D0487FF13C08091E800A7
:1008600082FF06C08091E8008B778093E80004C087
:10087000809195048111F2CF089580919504882389
:10088000D9F38091E80080FFF8CF8091E8008E775F
:10089000ECCF982F9093E900242F762F50E0891702
:1008A00031F07091EC002091ED005091F00021FDAD
:1008B00007C09F5F973071F78093E90081E008954A
:1008C0003091EB003E7F3093EB003091ED003D7FA7
:1008D0003093ED003091EB0031603093EB0070937A
:1008E000EC002093ED005093F0002091EE0027FDE6
:1008F000E0CF80E00895CF92DF92EF92FF920F93C6
:100900001F93CF93DF93C8EDD0E088818F7E8883DB
:10091000E7EDF0E080818160808384E082BF81E048
:100920008093670488818E7F888302EE10E0F8014F
:1009300010821092DA0081EEC82ED12CF6011082BE
:1009400088818F77888388818068888388818F7D7C
:10095000888319BC1092950410928C0410928B0419
:1009600010928A0490EEE92EF12CF70180818B7FA2
:10097000808388818160888342E060E080E00E941B
:100980004904F60180818E7F8083F8018081816037
:100990008083808188608083F70180818E7F80835F
:1009A000888180618883DF91CF911F910F91FF90A3
:1009B000EF90DF90CF900895FC0180919304909187
:1009C000940486179707A0F06115710529F490919A
:1009D000E8009E779093E80090E06115710551F46E
:1009E000911108C08091E80082FF34C080E0089532
:1009F000BC01F2CF809195048823C1F18530C1F10B
:100A00008091E80083FD30C08091E80082FDEACF4C
:100A10008091E80080FFE1CF8091F3002091F20007
:100A2000382F6115710519F02830310558F091E023
:100A30002830310509F090E02091E8002E772093CE
:100A4000E800CBCF81918093F100615071092F5F55
:100A50003F4FE7CF80919504882341F0853041F0E6
:100A60008091E80083FFBECF81E0089582E0089581
:100A700083E0089508958091690408959C014FB71B
:100A8000F89480915E0490915F04A0916004B0910D
:100A900061044FBF821B930B08952FB7F894809188
:100AA0005E0490915F04A0916004B09161042FBF37
:100AB000089520915B0430915C042817390771F088
:100AC00090935C0480935B04E0915904F0915A0484
:100AD000309721F00084F185E02D0994089520914C
:100AE0005704309158042817390771F0909358042F
:100AF00080935704E0915904F0915A04309721F003
:100B00000680F781E02D09940895E0915904F09151
:100B10005A04309721F00190F081E02D099480E093
:100B20000895452B39F0682381E06F3F09F080E09C
:100B30008170089581E0FCCFDC0160917C0380919D
:100B40007D03962F891301C00895292F30E0F90104
:100B5000EE0FFF1FEC58FC4F408151814A175B0795
:100B6000A1F487E08A9FA0018B9F500D1124445C63
:100B70005C4F81E0FA0184839613E6CF2F5F3F4FED
:100B80002370332720937C0308952F5F3F4F922FCC
:100B90009370D8CF1092D9021092D802ECE3F3E010
:100BA0008581811102C014821682379683E0E43772
:100BB000F807B1F70895E0E8F3E0848195812AE031
:100BC00030E0B9010E9488326093150186818093DC
:100BD0001401828580931301848580931201868598
:100BE0009785B9010E9488326093110180898093B2
:100BF0001001828980930F01848980930E010895EA
:100C00008091800390918103909317018093160146
:100C100008958F929F92AF92BF92EF92FF920F939F
:100C20001F93CF93DF93843008F042C0811141C0FD
:100C30002091880030918900232B51F090916F0012
:100C40009D7F90936F0090916F009E7F90936F00B7
:100C50002898A0918600B0918700282F30E00E944C
:100C6000DF3223E030E040E050E00E94B032890102
:100C70009A0180918600909187006CE070E00E945C
:100C800088326017710730F1C80169E070E00E9496
:100C900088327093890060938800DF91CF911F9113
:100CA0000F91FF90EF90BF90AF909F908F9008951D
:100CB00083E02091880030918900232B51F6909198
:100CC0006F00926090936F0090916F00916090938D
:100CD0006F00BFCF8091860090918700E0908600E2
:100CE000F0908700E0918600F0918700C6E0D0E0A8
:100CF000BE010E948832060F171F211D311D4801B9
:100D0000590185E0880C991CAA1CBB1C8A95D1F757
:100D1000C701BE010E9488329F0150E040E0260FCB
:100D2000371F411D511DC501B4010E94B032490158
:100D30005A01E0918600F0918700CA01B9010E9432
:100D400078329B01AC01DF010E94EE329B01AC01C5
:100D5000C501B4010E9478322FE09695879577956A
:100D600067952A95D1F7009186001091870030E0B1
:100D700020E0061717072807390708F08ACF609187
:100D800086007091870085CF282F220F220F220F17
:100D900090914A029770922B90934A02987F21E09B
:100DA00009F420E090914A0220FB90F990934A02C6
:100DB0000C9409060E944D059C0190914602809179
:100DC0004702982B21F030934302209342029091E6
:100DD000480280914902982B21F0309341022093E0
:100DE0004002E0915904F0915A04309749F082E0B2
:100DF000809344020480F581E02D84E492E009941C
:100E0000089590914602803F59F48091470287FFF0
:100E10000DC01092470291110BC010923E0208C003
:100E2000813F81F48091470218169CF3992381F049
:100E30008091480290914902892B09F064C0109278
:100E40003D020895823F49F497FFF0CF1092460289
:100E5000809147028111ECCFE0CF833F19F419163E
:100E6000ACF3E4CF20914802893F29F41216F4F63E
:100E700010924802DBCF8A3F19F427FFD7CFF8CF73
:100E8000209149028B3F29F427FFD0CF10924902CD
:100E9000CDCF8C3F19F41216CCF3C8CF843F31F478
:100EA000809145028E7F80934502C0CF853F21F41B
:100EB000809145028D7FF7CF863F21F480914502D6
:100EC0008B7FF1CF873F21F480914502877FEBCF65
:100ED000883F21F4809145028F7EE5CF8D3F31F42C
:100EE00080913F028E7F80933F02A0CF8E3F21F4FE
:100EF00080913F028D7FF7CF8F3F09F097CF809190
:100F00003F028B7FF0CF089580913F0280FF0CC09D
:100F100060910F0170E075956795759567956115FE
:100F2000710549F1862F089581FF06C060910F0178
:100F300070E075956795F3CF60910F0182FD0BC04E
:100F400090913D029923A1F060910E0180910F01D3
:100F5000961738F0682F70E06038710500F38FE75E
:100F60000895899FC001112470E00E949C32F4CF43
:100F700061E070E0D7CF81E0089580913F026091F9
:100F800088037091890380FF16C020911301269F6A
:100F9000C001279F900D1124BC0176956795769529
:100FA00067956038710508F043C06115710509F453
:100FB00041C0862F089581FF0BC020911301269F09
:100FC000C001279F900D1124BC0176956795E9CF4C
:100FD00082FF09C0809113019B01829FB001839F12
:100FE000700D1124DECF20913E022223D1F2909188
:100FF000120180911301482F50E0291748F0CB01CE
:10100000849FB001859F700D949F700D1124C9CFEE
:10101000289F90011124269FA001279F500D369FE5
:10102000500D1124692F70E0CA010E948832B9CF97
:101030008FE7089581E00895803F31F40E94BD0755
:101040008195809347020895813F19F40E94BD075E
:10105000F8CF823F31F40E94BD078195809346020C
:101060000895833F19F40E94BD07F8CF893F29F402
:101070000E9484078093480208958A3F21F40E94C9
:1010800084078195F7CF8B3F31F40E9484078195C7
:101090008093490208958C3F19F40E948407F8CF89
:1010A000843F31F480914502816080934502089528
:1010B000853F21F4809145028260F7CF863F21F47D
:1010C000809145028460F1CF873F21F480914502F1
:1010D0008860EBCF883F21F4809145028061E5CFA5
:1010E0008D3F31F480913F02816080933F020895EB
:1010F0008E3F21F480913F028260F7CF8F3FB9F796
:1011000080913F028460F1CF80E00895F894E82F49
:10111000E295EF70F0E031A1282F2F7081E090E090
:1011200001C0880F2A95EAF7982F9095932391A3F1
:1011300092A1892B82A3789408959091620492FFE2
:1011400006C0282F28712830F9F4877F846093FF28
:1011500006C0282F28712831F1F4877E8461209100
:10116000630420FF06C0382F38713830D9F4877FE8
:10117000816021FF06C0282F28712831D1F4877E95
:10118000816194FD877E0895282F24712430F9F61B
:101190008B7F8860DCCF282F2471243101F78B7E70
:1011A0008861DDCF382F3171313019F78E7F88603B
:1011B000E0CF282F2171213121F78E7E8861E1CF88
:1011C000CF93DF93EC0182389105A9F1D8F58133F3
:1011D000910509F496C048F58932910509F48AC051
:1011E0008A9709F495C0C11521E5D20708F0BCC063
:1011F000C11530E5D30708F014C1C83ED10508F089
:101200009CC0C03ED10560F5C83AD10508F087C042
:10121000C53AD10508F0FDC0C130D10509F12097CC
:10122000F9F0C430D105E0F440C08533910509F4EC
:101230005AC0C997C1F680916204837089F0C0EEEC
:10124000D0E00EC0833E910599F170F4803E910587
:1012500001F1823E910539F68091620482FD21C040
:10126000CE01DF91CF910895863E910561F1873ED1
:10127000910571F1843E910509F0B5CF8091630429
:1012800081FFEECF80916204C7EED0E084FD0DC0F7
:10129000E7CF8091620480FD12C19091630490FFBA
:1012A000DFCFC3EED0E084FFDBCFD0E0C0E0D8CF0B
:1012B0008091620482FD06C19091630490FDBFCFCE
:1012C00084FFCECFF2CF8091620483FDDDCFC8CF03
:1012D0008091620483FDF9C09091630491FFF0CF87
:1012E000C4EED0E0BDCF8091620485FFB9CFC9E2E2
:1012F000D0E0B6CF8091620485FFB2CFC5E3D0E0E5
:10130000AFCF8091620486FFABCFCAE2D0E0A8CF16
:101310008091620486FFA4CFC1E3D0E0A1CFCF3B90
:10132000D10518F6C85AD0E0CC0FDD1FCA5DDE4FDC
:101330000990D881C02DD46493CFC11540E2D40761
:1013400058F4C11581E0D80708F08ACFC03FD10515
:1013500008F4ABCFD06584CFC11590E4D90708F469
:10136000A4CFDF70D06A7CCFC11525E5D20700F588
:10137000C11534E5D30708F08AC0C11543E5D40789
:1013800008F071C0C11582E5D80708F467C0CE0126
:101390008370992721E030E002C0220F331F8A9525
:1013A000E2F7C695C69580E2C89FE001112452C0BD
:1013B000C11599E5D907A8F4C11528E5D20708F0A9
:1013C0006BC0C11536E5D30708F06FCF8C2F0E9494
:1013D0009D08C82FD0E0DC2FCC27CC27DF71D0624E
:1013E0003FCFC1154AE5D40708F45BC0CE01905643
:1013F0008115904208F059CF8D2F8F710E949D0862
:1014000090E0982F882788279F719C012C2BE90159
:10141000E6CFC55AD0E0CD5DDE4FC881D0E0D064C4
:101420001FCFCE01E4E096958795EA95E1F78370AA
:101430002C2F26952695237040E2249F900111249D
:10144000382B8C2F8370C1E0D0E002C0CC0FDD1FA1
:101450008A95E2F7C22BD32BDC6802CFDC2FCC2796
:10146000C16FD06AFDCECE018370992721E030E0B4
:1014700002C0220F331F8A95E2F7C695C69590E207
:10148000C99FE0011124C22BD32BDA68E9CEDC2FEF
:10149000CC27C46FD06AE4CEDC2FCC27C06FD06AD3
:1014A000DFCE8C2F8F700E949D0834E0D695C795B3
:1014B0003A95E1F7CF709C2FEC01D069D1CEC9E30A
:1014C000D0E0CECEC2EED0E0CBCEC6EED0E0C8CEDD
:1014D00080910C02882331F010920C0210920B02C2
:1014E00010920A020895CF93C82F8091630482FD61
:1014F0000CC080910C028C1741F00E944D05909316
:101500000B0280930A02C0930C02CF91089580953C
:1015100090919704982390939704089580959091C3
:10152000B30298239093B30208959091B302892B4C
:101530008093B3020895109208021092070210924D
:10154000060208958091820390918303892B89F08C
:101550000E944D0520910A0230910B02AC01421B02
:10156000530B81E02091820330918303421753078C
:1015700008F480E0817008958091B30290919704FF
:10158000892B90910902892B80937A0180910C021A
:10159000882319F18091820390918303892B29F08C
:1015A0000E94A20A81110E94680A80917A0190919A
:1015B0000C02892B80937A0180911A01882341F1D2
:1015C0008091620487FF24C08EE1ECE7F1E090E0B7
:1015D000815000F591110E94680AE0915904F09140
:1015E0005A043097E1F080911A01882359F08091D4
:1015F000620487FF07C080917A0180937B0186E0B7
:1016000080937A010280F381E02D8AE791E00994CA
:1016100086E0DBCF21912223D9F29F5FD9CF0895B5
:10162000EF92FF920F931F93CF93DF93EC018A8584
:10163000811134C0EB80FC8087E5F81A26E12E9DED
:10164000C0012F9D900D1124DC01A955BC4F1496AB
:10165000ED91FC911597309731F054966D917C91F6
:1016600083559C4F099586E18E9D80018F9D100DBD
:10167000112409551C4FF80187810E948E0AF80138
:1016800080850E94870A0E94BC0A188219861B86E0
:101690001E821D821092A6031092A503DF91CF91A6
:1016A0001F910F91FF90EF900895CF93DF93EC017E
:1016B0008989811118C081E0898B8F810E94950AE8
:1016C000809197049885892B809397040E94BC0A87
:1016D000EA81FB81309739F06C897D89CE010696CD
:1016E000DF91CF910994DF91CF91089580911801F6
:1016F000877F8093180182E00E94870A80911801F9
:1017000084FF06C08F7E8093180182E00E94950AB4
:101710008091180185FF06C08F7D8093180180E2BB
:101720000E94950A0C94BC0A8091050281111092C6
:101730000502089590911A019923D1F090916204C5
:1017400097FF16C0E82FE695E695E695EE31E0F4B2
:10175000F0E0E658FE4F282F277081E090E001C0AE
:10176000880F2A95EAF780959281892382830895CC
:10177000ECE7F1E09191891303C0DF0111971C920E
:1017800091E0E238F907B1F7089590911A01992391
:10179000C1F09091620497FF14C0E82FE695E6959A
:1017A000E695EE31F8F4F0E0E658FE4F877021E060
:1017B00030E001C0220F8A95EAF78281822B828372
:1017C0000895ACE7B1E0EFEF90E02D91821751F072
:1017D000EF3F19F4211101C0E92F9F5F9630A9F75F
:1017E000EF3F09F408950E2E000CFF0BE658FE4F54
:1017F000E6CF209104029091C301291302C080E03A
:10180000089530E0F90153E0EE0FFF1F5A95E1F71C
:10181000EC53FE4F5181561306C05081581303C03C
:101820005281541304C02F5F3F4F2770E6CF81E0F1
:101830000895809104029091C301981301C0089506
:101840008F5F8770FACF9E3F41F19295907FE92F8D
:10185000E80F9E2F9770E695E695E69583E0E89F62
:10186000F0011124E356FE4F50E040E080E021916A
:1018700030E0092E02C0369527950A94E2F72170D0
:101880003327042E01C0220F0A94EAF7822B4F5F00
:101890005F4F4330510559F7089580E008959E3F0A
:1018A00061F19295907FE92FE80F8E2F877041E0CC
:1018B00001C0440F8A95EAF7E695E695E69583E040
:1018C000E89FF0011124E356FE4F30E020E070E085
:1018D0005191DF011197CB01022E02C09695879599
:1018E0000A94E2F7817081958527842385278C935C
:1018F0002F5F3F4F2330310559F70895E92FE295C7
:10190000EF70E250EE3070F4F0E0E558FC4C0C94CF
:10191000D232803F19F020F4883E20F481E008950F
:10192000843FE1F380E00895883EC0F3813FD1F722
:10193000F5CF93FB882780F9089590E080E00E941E
:101940006F0590E080E00E94590510929704109274
:1019500009020E94BC0A86E0E4E4F2E0DF011D9285
:101960008A95E9F710923E0210923D0210923F02D2
:101970000C94DA06809396040C949D0C8091960446
:10198000982F9670963019F488600C94BA0C877F63
:10199000FCCF21E030E001C0220F8A95EAF72095C4
:1019A0008091960482230C94BA0C90910802809541
:1019B000892380930802282F277091F4282F082E5E
:1019C000000C330B9217130659F09091630492FDAB
:1019D00007C08595859585950E94C90C0C949B0A36
:1019E000089521E030E001C0220F8A95EAF7809146
:1019F0009604822B0C94BA0C9091630492FD10C053
:101A000098E0899F90011124622B609308020E9444
:101A1000F10C0E944D0590930702809306020895F1
:101A20000C94F10C80930D020C949D0C882321F0F2
:101A30000E94870A0C94BC0A0895882339F090917B
:101A40009704982B909397040C94BC0A08958823CC
:101A500021F00E948E0A0C94BC0A0895882321F07C
:101A60000E94950A0C94BC0A0895882309F452C078
:101A7000823871F40E94850581FF4CC089E30E9481
:101A8000C50B0E94BC0A89E30E949A0B0C94BC0A05
:101A9000833859F40E94850580FF3CC083E50E948D
:101AA000C50B0E94BC0A83E5EFCF843859F40E942D
:101AB000850582FF2FC087E40E94C50B0E94BC0AE7
:101AC00087E4E2CF9CEF980F913AF0F290E2980F02
:101AD000983050F4877091E001C0990F8A95EAF729
:101AE000892F0E948E0AD2CF9BE5980F933020F465
:101AF00090E080E00C946F0598E5980F973120F402
:101B000090E080E00C945905803F20F00E9401078E
:101B10000C94DA06089581FF02C05A9A08955A98E3
:101B200008959C013A9521153F4150F5FC01EE279F
:101B3000F170BC0166277270AC01442754709C019F
:101B40002227387094FF0EC080E1EF2B09F480E06B
:101B5000672B09F08062452B09F08064232B89F004
:101B60008068089581E0EF2B09F480E0672B09F08D
:101B70008260452B09F08460232B19F0886008955A
:101B800080E00895CF93DF93EC010E94350DCE01E4
:101B90000E94910D9E01205E31092830310510F020
:101BA000CD2B21F4DF91CF910C94270DDF91CF91B4
:101BB0000C94160D8093640470936604609365041E
:101BC000809195048430F9F48093E9008FEF90912F
:101BD000E800815095FD06C095ED9A95F1F700005B
:101BE0008111F5CF8091E80085FF0DC050E040E005
:101BF00063E070E084E694E00E94D8038091E800FE
:101C00008E778093E8000895BC0184E00C94DA0D8F
:101C1000BC0183E00C94DA0D9C0184E08093E90020
:101C20009FEF8091E800915085FD06C085ED8A9573
:101C3000F1F700009111F5CF8091E80085FF0CC00D
:101C400050E040E066E070E0C9010E94D803809156
:101C5000E8008E778093E8000895CF93DF93EC013E
:101C600080911A018823B1F18091620487FF32C00C
:101C700060E284E08093E9008FEF9091E80081506A
:101C800095FD06C095ED9A95F1F700008111F5CF0D
:101C90008091E80085FF1BC080911A0170E050E040
:101CA00040E0811104C050E040E068E070E0CE0107
:101CB0000E94D8038091E8008E778093E80080E24C
:101CC000FE01AAE6B4E001900D928A95E1F7DF915A
:101CD000CF91089568E081E0CDCF81E08093E0006E
:101CE00080E28093D8001092C9008FE19EE40197B2
:101CF000F1F700C0000087E090EBDC0180939804CE
:101D000090939904A0939A04B0939B0488E19CE07B
:101D10000FB6F894A895809360000FBE9093600072
:101D2000FFCF019708F40895EFE9FFE03197F1F74D
:101D300000C00000F6CFCF93C82F882309F4AAC0B3
:101D40008238C1F40E94850581FDA4C089E30E9408
:101D5000C50B0E94BC0A2FEF81EE94E02150804019
:101D60009040E1F700C0000089E30E949A0BCF91F8
:101D70000C94BC0A8338A1F40E94850580FD8AC0BA
:101D800083E50E94C50B0E94BC0A2FEF81EE94E010
:101D9000215080409040E1F700C0000083E5E5CF8E
:101DA0008438A1F40E94850582FD74C087E40E94F6
:101DB000C50B0E94BC0A2FEF81EE94E021508040B9
:101DC0009040E1F700C0000087E4CFCF8CEF8C0F8C
:101DD000813A88F580911A01882301F1809162048B
:101DE00087FF1CC0EC2FE695E695E695F0E0E658F7
:101DF000FE4F828190E04C2F477021E030E002C01E
:101E0000220F331F4A95E2F782239323892B79F01F
:101E10008C2F0E949A0B0E94BC0A09C0ECE7F1E0EB
:101E20008191C817A9F321E0E238F207C9F78C2F96
:101E30000E94C50B9CCF80E28C0F883048F4C7709D
:101E400081E001C0880FCA95EAF70E94950A8FCFFA
:101E5000EBE5EC0FE33040F4F0E0ED5DFE4F808108
:101E600090E0CF910C946F05E8E5EC0FE73150F46A
:101E7000F0E0EE0FFF1FEA5DFE4F80819181CF9170
:101E80000C945905C03F30F08C2F0E941C08CF9154
:101E90000C94DA06CF9108951F93CF93DF93182FF8
:101EA000C091A003D091A103893321F0C0919E037A
:101EB000D0919F03812F0E949B0E209731F4812F98
:101EC000DF91CF911F910C94350D8FE99FE0019721
:101ED000F1F700C000002197F0CF0F931F93CF932D
:101EE000DF93C42FD22FFC0182818823A1F040937D
:101EF000A4030E944D059093A3038093A203C7708F
:101F000081E001C0880FCA95EAF7DF91CF911F9158
:101F10000F910C942E0D1091A403141339C08091CD
:101F2000A2039091A3030E943E0520919803309153
:101F300099038217930760F5C0E2CD0F1D17B9F022
:101F400080E2810F883040F4177081E001C0880F73
:101F50001A95EAF70E94270DC83048F481E09D2FBA
:101F6000977001C0880F9A95EAF70E942E0D802F76
:101F70000E944C0FC83098F4D77081E001C0880FE0
:101F8000DA95EAF7DF91CF911F910F910C94270D0D
:101F9000C77081E001C0880FCA95EAF7F3CFDF91DF
:101FA000CF911F910F910895CF93DF93EC010E9481
:101FB000910D9E01205E31092830310510F02097E7
:101FC00039F40E942E0D8C2FDF91CF910C949B0E33
:101FD0000E941D0DF8CF662329F0209197042260FE
:101FE000209397049C013056211540E2340720F0DD
:101FF000305E2115304108F499270C94D40FDF92FC
:10200000EF92FF920F931F93CF93DF937C018B018D
:10201000D42E8091180182FF8CC0C091D602D0913D
:10202000D702CE15DF0521F0E114F10409F081C0DB
:10203000809118018B7F8093180181FD73C080917E
:10204000D4029091D502A801481B590B81E0209140
:102050001601309117014217530708F480E0817090
:10206000F82E80911801F0FA81F980931801FE0191
:1020700083E0F695E7958A95E1F7EE71FF27EC543A
:10208000FD4F20813181AE014F70552781E090E0F6
:1020900002C0880F991F4A95E2F7FF2009F444C057
:1020A000822B932B918380838091B30281FF08C0A0
:1020B0008091180180618093180182E00E948E0A4D
:1020C0008091B30285FF08C08091180180628093DF
:1020D000180180E20E948E0A6F2DCE010E94EB0F44
:1020E000DD2031F080919B0385FF02C086FF3BC05D
:1020F00080919E0390919F030E94910E8091D60241
:102100009091D7029C013056211540E2340720F00F
:10211000305E2115304108F499270E94C20D0E94BB
:10212000760B1DC081E09BCF8095909582239323F1
:10213000B9CFC701992797013056211540E23407DE
:1021400028F0305E2115304108F0C7010E94C20D11
:102150008091D6029091D7028E159F0501F31093BE
:10216000D5020093D402DF91CF911F910F91FF9080
:10217000EF90DF900895AF92BF92CF92DF92EF92EF
:10218000FF920F931F93CF93DF93EC018AE0A82E69
:102190002881222309F48CC02130C9F599818A81D4
:1021A000913021F422960E944C0F05C0923029F400
:1021B00022960E949B0E2196EBCF933021F422961B
:1021C0000E94350DF8CF943011F02196F4CF22966D
:1021D00030E020E0AE014F5F5F4F8053990B8A30B3
:1021E000910550F02150310930F38FE99FE00197BC
:1021F000F1F700C00000F6CFA29EB001A39E700DC3
:1022000011249C01260F371F8981EA01E3CFE22FB9
:10221000F0E0E650FE4FB490822F86958695869525
:1022200090E0FC01E651FE4FE4902770F12C022E65
:1022300002C0F594E7940A94E2F731E0E322FF2428
:10224000FC01E652FE4FC490D12C022E02C0D59460
:10225000C7940A94E2F731E0C322DD24FC01E6537F
:10226000FE4F049110E002C0159507952A95E2F7FC
:1022700001701127E114F10419F081EE0E949B0E08
:10228000C114D10419F086EE0E949B0E8B2D0E9482
:102290004C0FCD2819F086EE0E94350DEF2819F06D
:1022A00081EE0E94350D012B09F485CF8CE27BCFA6
:1022B000DF91CF911F910F91FF90EF90DF90CF9022
:1022C000BF90AF9008950F931F93CF93DF9300E8D3
:1022D00013E0C7EAD2E0CE010E942F33F8018193C8
:1022E0008F012196C93CF2E0DF07A9F7C0E3D5E0F2
:1022F000FE0185919491009711F0FC0109952896B3
:10230000F5E0C83CDF07A1F7DF91CF911F910F9156
:1023100008950F931F93CF93DF93843030F565308A
:1023200020F5403110F520E2629F8001112450E039
:10233000440F551F040F151F30EA839F000D111D18
:102340001124C80187960E942F33C82FD0E0DC2FBC
:10235000CC27C80188960E942F339E01282BC901E3
:10236000DF91CF911F910F91089590E080E0F8CF19
:10237000462F2091B1023091B202232B91F47E3F7F
:1023800039F46E3F71F48091AF029091B0020895DC
:10239000843038F4753028F4603118F4672F0C94C9
:1023A000891190E080E00895CF92DF92FF920F9321
:1023B0001F93CF93DF936C010091960480910D02DF
:1023C000082BC7E0D0E010E0FC2EC8010C2E02C0A4
:1023D000959587950A94E2F780FD0CC02197A0F7A8
:1023E000F12C8F2DDF91CF911F910F91FF90DF90F6
:1023F000CF900895B6018C2F0E94B8110E94E0087A
:10240000019761F3EECFCF93DF93EC010E94D411DB
:10241000BE010E94B811DF91CF910C94E008FC013D
:1024200086819781009721F00E94E0080C947E0C31
:10243000808191810E940312F9CF1F93CF93DF9384
:1024400000D000D00F92CDB7DEB749835A8389817F
:102450009A816623B9F02223A9F00E94D411182F83
:10246000682F89819A810E944F0C69817A81812F1E
:102470000F900F900F900F900F90DF91CF911F91C1
:102480000C94B8110E94230C182FEFCFFC01262FBB
:1024900086819781009739F44081518162817381EF
:1024A00084810C941D12089583E290E00E942F33E2
:1024B000883289F484E290E00E942F33823859F404
:1024C00085E290E00E942F3391E0863309F090E09E
:1024D000892F8170089580E0FCCFCF9384E090E055
:1024E0000E942F33C82F82E290E00E942F33982F52
:1024F0008C2FCF9108950F931F93CF93DF9300E814
:1025000013E0C7EAD2E0CE010E942F33F8016191B7
:102510008F01681719F0CE010E943D332196C93C06
:10252000F2E0DF0781F7DF91CF911F910F910895BE
:10253000E0E8F3E0128E138E8FEA90E091838083BF
:1025400085E0848F88E893E1938382834CE251E0B5
:102550005583448322E330E03783268385E090E08F
:10256000918780878AE090E09387828764E170E0BA
:10257000758764875787468744E650E0518B408BC8
:1025800048E050E0538B428B48E250E0558B448B3F
:10259000378B268B28EC30E0318F208F158E978F6C
:1025A000868F80E590E091A380A30E947B120C941B
:1025B0006311CF93DF93C9E6D3E060E0CE010E94C0
:1025C0003D332196C11584E0D807B9F7DF91CF914B
:1025D00008950F931F93CF93DF938901843048F5BB
:1025E000653038F5403128F521153C4531F420910E
:1025F000AD023091AE02232BE1F090E2699FE00141
:10260000112450E0440F551FC40FD51F90EA899F35
:10261000C00DD11D1124612FCE0187960E943D333C
:10262000602FCE018896DF91CF911F910F910C946E
:102630003D33DF91CF911F910F910895CF93C82F14
:102640006FEF811168E283E290E00E943D336FEF0B
:10265000C11162E884E290E00E943D336FEFC11146
:1026600066E385E290E0CF910C943D33682F86E0DD
:1026700090E00C943D33CF93C0916304C2FB992743
:1026800090F9981799F080FBC2F9C09363046091A8
:10269000620484E090E00E943D336C2F82E290E07F
:1026A0000E943D3382E0CF910C94D50CCF910895D8
:1026B0007F928F929F92AF92BF92CF92DF92EF92D2
:1026C000FF920F931F93CF93DF93CDB7DEB764973D
:1026D0000FB6F894DEBF0FBECDBFA090AD02B09094
:1026E000AE0281E090E09093AE028093AD028AEE5C
:1026F000C82E83E0D82E00E0760110E015C0F4016A
:1027000025913491472D612F802F0E94E91282E09C
:10271000880E911C7394E0E17E12F1CFF0E2EF0E8F
:10272000F11C1F5F153019F04701712CE8CF0F5FC6
:1027300080EAC80ED11C0430F9F60E9498121A8261
:1027400019821C821B821E821D8218861F8288ECC1
:1027500090E09A87898709EC12E04AE050E0B801DE
:10276000CE0101960E946133065F1F4F0931E3E0FD
:102770001E0799F77E01FBE0EF0EF11C8AE0F701DE
:1027800011928A95E9F74AE050E0B801C7010E942A
:102790006133065F1F4F0936F3E01F07A1F7B092C0
:1027A000AE02A092AD0264960FB6F894DEBF0FBEE3
:1027B000CDBFDF91CF911F910F91FF90EF90DF90F0
:1027C000CF90BF90AF909F908F907F90089580E0C2
:1027D0000E941E1360E086E290E00E943D330E945A
:1027E00058130E94D91281E00C941E139B0188306B
:1027F00070F49AE0899FB001112467537D4F4AE03D
:1028000050E0C9010E941F3390E080E008958FEFEF
:102810009FEF08958F929F92AF92BF92CF92DF92D7
:10282000EF92FF920F931F93CF93DF93CDB7DEB755
:102830002A970FB6F894DEBF0FBECDBF07EA13E0AC
:10284000F12CE12C86E2C82E89E2D82E90E5A92E43
:1028500099E2B92E2FE8822E28E2922EF801D18239
:10286000C082B382A28295828482F58AE48ABE0104
:102870006F5F7F4F8E2D0E94F613892B29F4898577
:102880009A85F801938B828BFFEFEF1AFF0A0A5E9D
:102890001F4F88E0E816F10409F72A960FB6F8945E
:1028A000DEBF0FBECDBFDF91CF911F910F91FF9083
:1028B000EF90DF90CF90BF90AF909F908F90089552
:1028C000CF92DF92EF92FF920F931F93CF93DF93FC
:1028D000CDB7DEB72A970FB6F894DEBF0FBECDBFD7
:1028E000EDE5F2E080E5DF011D928A95E9F7ECE382
:1028F000F3E088E3DF011D928A95E9F78DE5C82EA4
:1029000082E0D82E7F0109E113E0F701D182C08275
:102910004AE050E0B801CE0101960E941F3388E0E2
:10292000FE013196D60101900D928A95E1F78985D5
:102930009A85D70113969C938E931297BAE0CB0E8B
:10294000D11CE7E0EE0EF11C065F1F4F0936F3E0E5
:102950001F07D9F62A960FB6F894DEBF0FBECDBF7B
:10296000DF91CF911F910F91FF90EF90DF90CF906B
:1029700008951092B30280911A01ECE7F1E08823E8
:1029800059F08091620487FF07C08EE1DF011D923C
:102990008A95E9F70C949D0C86E0F8CF1F93CF93AE
:1029A000DF93CDB7DEB7AA970FB6F894DEBF0FBEA0
:1029B000CDBF8DE894E02091F100DC012D93CD0195
:1029C000B4E085399B07B9F780918E04833009F410
:1029D00072C0B8F4813009F449C0823009F4B3C040
:1029E0008091E80083FF96C280918D0490918E04BF
:1029F0009A3008F08FC2E92FF0E0E757FC4C0C94B6
:102A0000D2328A3009F48EC08B3009F471C089301B
:102A100039F780918D04813219F78091910490915A
:102A20009204009711F00297D9F68091E800877F11
:102A30008093E8008091E80082FF38C09091F30015
:102A40008091F200029731F48091F100813011F011
:102A5000863021F48091F100809369048091E80030
:102A60008B778093E8000E942A04BACF80918D046E
:102A7000813A09F0B5CF8091E800877F8093E80024
:102A80008091910490919204892B61F460E28AE62E
:102A900094E070E00E94DC048091E8008B778093E2
:102AA000E8009ECF60E090E080E0F3CF8091950455
:102AB0008111C0CF95CF80918D04813A09F090CFDC
:102AC0008091910490919204892B09F089CF809193
:102AD000E800877F8093E8008091E80080FFFCCFCA
:102AE00080911A018093F1008091E8008E77B9CF30
:102AF00080918D04813209F073CF8091910490917F
:102B00009204892B09F06CCF8091E800877F809335
:102B1000E8000E942A0480918F0480931A010E9489
:102B2000B9145ECF80918D04813209F059CF809124
:102B3000E800877F8093E8000E942A048091900437
:102B4000809368044DCF80918D04813A09F048CF7D
:102B50008091E800877F8093E8008091E80080FF03
:102B6000FCCF80916804BECF803899F0823809F09C
:102B7000D1C1809191048F70873008F0CBC18093D0
:102B8000E9008091EB0085FB882780F91092E9002D
:102B900006C080918A0490918B049111826090917B
:102BA000E800977F9093E8008093F1001092F10085
:102BB0008091E8008E77AAC1882309F498C18230F9
:102BC00009F0A8C180918F0481119BC1809191046B
:102BD0008F702FEF280F263008F09CC18093E900FA
:102BE0002091EB0020FF8DC1933031F48091EB00F8
:102BF00080628093EB0085C19091EB00906190938F
:102C0000EB0021E030E001C0220F8A95EAF7209323
:102C1000EA001092EA008091EB008860EACF81110F
:102C200079C110918F041F778091E3008078812B08
:102C30008093E3008091E800877F8093E8000E9402
:102C40002A048091E80080FFFCCF8091E300806837
:102C50008093E30082E0111183E0809395045AC1D0
:102C60008058823008F056C120918F043091900432
:102C70002C3DE3E03E07A1F583E08A838AE2898365
:102C80004FB7F894DE01139620E03EE051E2E32FC7
:102C9000F0E050935700E49120FF03C0E295EF70FD
:102CA0003F5FEF708E2F90E0EA30C0F0C7968D93B3
:102CB0009D932F5F243159F74FBF8091E800877FA4
:102CC0008093E8006AE270E0CE0101960E94DC0485
:102CD0008091E8008B778093E8001CC1C096E7CF15
:102CE0008091910490919204432F552743305105D0
:102CF00009F44AC078F54130510509F485C08BE5E7
:102D000090E0E2ECF5E04230510509F003C120917A
:102D1000E800277F2093E8002091930430919404E9
:102D20008217930708F49C0140E02115310509F052
:102D300070C041116EC08091E80082FDC9CF8091C2
:102D40009504882329F2853019F28091E80083FFE9
:102D5000F2CFBECF4132510509F447C0423251058E
:102D600009F0D8C08330910508F0D4C0FC01EE0F03
:102D7000FF1FE459FE4F0190F081E02D87599E4FCF
:102D8000DC018C9190E01DC0332721303105E9F042
:102D90002115310579F022303105F9F02330310564
:102DA00009F0B8C0EFE2F6E0E4918E2F90E0EFE298
:102DB000F6E007C0E9E7F6E0E4918E2F90E0E9E75E
:102DC000F6E0009709F4A6C0A2CFEDE5F6E0E491A5
:102DD0008E2F90E0EDE5F6E0F4CFEDE4F6E0E4913F
:102DE0008E2F90E0EDE4F6E0ECCF8330910508F013
:102DF00091C0880F991FFC01EE58FE4F0190F081A1
:102E0000E02D89E090E083CF82E190E0EDE1F6E013
:102E10007ECF80919504882309F45ACF853009F438
:102E200057CF8091E80083FD53CF8091E80082FD69
:102E300082CF8091E80080FF78CF9091F30080915D
:102E4000F2002115310519F08830910550F041E06C
:102E5000089709F040E08091E8008E778093E800C1
:102E600064CF44914093F10031962150310901968D
:102E7000E8CF803809F04EC08091E800877F8093CA
:102E8000E80080918C048093F10092CE811142C0C1
:102E900010918F041230F0F58091E800877F8093C5
:102EA000E80010938C040E942A04112311F084E09E
:102EB00005C08091E30087FDFACF81E080939504FF
:102EC00042E061EC81E00E94490442E261EC84E06E
:102ED0000E94490442E261EC82E00E94490442E21D
:102EE00060EC83E00E9449048091950413C08091B6
:102EF0008F04813079F481E0933009F080E0809391
:102F00008B041092E9008091E800877F8093E800AD
:102F10000E942A048091E80083FF0AC08091E800A3
:102F2000877F8093E8008091EB0080628093EB00C4
:102F3000AA960FB6F894DEBF0FBECDBFDF91CF913A
:102F40001F91089590E080E00E9437338A3E9E4FA3
:102F500011F40C94541280E008956AEE7EEF90E034
:102F600080E00E945B3360E082E090E00E943D33AD
:102F700060E083E090E00E943D3310920D0260E03B
:102F800084E090E00E943D3360E082E290E00E94A5
:102F90003D3360E085E090E00E943D3360E086E0F4
:102FA00090E00E943D336FEF87E090E00E943D3358
:102FB00040E050E0BA0188E090E00E944F3360E0CA
:102FC0008DE090E00E943D3340E050E0BA0188E19E
:102FD00090E00E944F3360E087E190E00E943D3333
:102FE00040E050E0BA018CE190E00E944F3370E085
:102FF00060E080E290E00E945B3340E050E0BA0184
:1030000088E190E00E944F3380E00E941E130E94EE
:10301000E71340E050E0BA018FE090E00E944F33A8
:1030200040E050E0BA0183E190E00C944F338F927E
:103030009F92AF92BF92CF92DF92EF92FF920F9347
:103040001F93CF93DF9300D000D0CDB7DEB77C01C4
:10305000DC0113964D915C91149711966C91119728
:103060008C910E949105811165C161E0C7010E94A8
:1030700046128C01F70182818111FCC0D7011296A2
:103080008C91811136C10031FFE51F0709F4DAC1C7
:1030900001312FE5120709F4D9C1680127E5D21AD9
:1030A0003FEFC316D10409F060F563E572E08C2DA3
:1030B0000E94F613892B29F586E18C9DF0018D9DE8
:1030C000F00D1124E955FC4F8681813009F0C0C113
:1030D0008091530290915402892B99F0809155026E
:1030E00090915602892B69F0809157029091580275
:1030F0002091590230915A02822B932B892B09F48B
:10310000B1C1F7012281222391F00D3BFCE51F079D
:1031100009F4DEC108F0B4C10B3B4CE5140709F417
:10312000CFC180E00C3B5CE5150709F4CAC1C801BA
:1031300097558F3F910511F008F040C04091000174
:10314000509101014817590724F49093010180938D
:10315000000136E1389F5001399FB00C1124F50170
:10316000E955FC4F6F01208BD70112969C91868107
:10317000992309F4F8C1128701878F5F86830E9423
:103180004D05F6019687858780910C028783809193
:1031900097049091B302892B80870190F081E02DF4
:1031A000309741F0D60154966D917C91C5018355BD
:1031B0009C4F09951093A6030093A50380919B0350
:1031C00080FF39C00E944D056C01D70112968C9189
:1031D000882309F4E3C18091180182FF08C021E12E
:1031E00032E040E0B60190E080E00E94FF0F0B313A
:1031F000BCE51B0709F4C4C10C31ECE51E0709F45A
:10320000C5C190911801892F8E7F90FF81600A318E
:10321000FCE51F0709F4BDC1C8019056811520E2E5
:10322000920728F0905E8115904108F0C5C1109278
:10323000D7021092D602033FBCE51B0709F40CC36A
:1032400008F0AAC2083DFCE51F0709F4FFC2093DCA
:103250002CE5120709F418C3073D3CE5130709F0F4
:10326000A7C206E221EE41EE67ED7CE5C7010E94B0
:103270006D0F50C08091000190910101019609F4F9
:10328000FDCE67EAC62E63E0D62EB12CA12C992480
:10329000939480910001909101018A159B050CF493
:1032A000EDCEF60186818823E9F0818592850817A5
:1032B000190739F48091A5039091A60308171907FF
:1032C00089F0D6011F969C921F971C961C930E9313
:1032D0001B97C6010E94550BC60106960E94100B53
:1032E00010929704BFEFAB1ABB0AE6E1CE0ED11CD9
:1032F000D0CFC80182519F45409708F0B0C68FEFEC
:1033000093E00E942F335EEED52ED00E09E613E037
:10331000882369F180910802877061F0D7011296C5
:103320008C91882339F08091630482FD03C082E090
:103330000E94D50C0F900F900F900F90DF91CF91BE
:103340001F910F91FF90EF90DF90CF90BF90AF90C3
:103350009F908F9008950115F4E01F07D9F2C801DE
:103360000E942F33811101C0DA940F5F1F4FD110DB
:10337000F2CF19821A821B821C82CC24CA94480183
:103380002FEF821A920AC8010E942F3389831A8272
:10339000882309F4BFCF813009F048C0580132E0DA
:1033A000A30EB11CC4010E942F33982E8A83882358
:1033B00009F4B0CFC5010E942F33D82E8FEF890DAD
:1033C000833068F4580143E0A40EB11CDB82DD2099
:1033D00021F0CE0101960E94BB108501D0CF54E0B0
:1033E0009512FBCF580184E0A80EB11CC8010396CA
:1033F0000E942F33DD2009F48DCF882309F48ACF72
:103400008150990BC89E9001C99E300D1124AD2D9D
:10341000A150BB0BCD01820F931F0197F0F2EFE992
:10342000FFE03197F1F700C00000F7CFCE01019621
:103430000E94BB105401D1CF81E00E94F10C0E9488
:10344000BE0C68CF81E00E94C90CF9CF82E0FBCFAF
:10345000823009F056CE8091570290915802892B04
:1034600009F44FCE26E12C9DC0012D9D900D112415
:1034700089559C4FDC0150961C920E94550B41CE01
:103480000F3B8CE5180709F44AC098F1003CACE505
:103490001A0709F04CCE90914A02892F869586959D
:1034A00086958F5F8F719770843008F059C0880FB0
:1034B000880F880F892B80934A0280914A0210C09E
:1034C00083E00E94C40680914A020E94361322CFF4
:1034D00080914A02982F987FE9F1885080934A02A0
:1034E000887F91E009F490E080914A0290FB80F996
:1034F00013C080914A02982F969596959695933091
:1035000040F49F5F990F990F990F8770892B8093D3
:103510004A0280914A02816080934A0219C08091D8
:103520004A0280FF09C08E7F80934A020E943613B0
:1035300080E00E940906EECE80FDECCE8160809393
:103540004A02813019F489E080934A0280914A024C
:103550000E94361380914A02869586958695E9CF1A
:1035600090934A02AACF882309F428CE8189882320
:1035700009F424CEC50183559C4F0E94100B1ECE2A
:103580008091180181608093180146CE80911801C6
:103590008E7F809318010E94760B3ECE8091180199
:1035A0008F7E013E110531F0053E1105C9F4809171
:1035B00018018F7D809318018091180180FF3BCE08
:1035C000D70112968C910832110528F50E3111059C
:1035D00008F074C00430110580F5811128CE2BCE7F
:1035E000C8019056811540E2940720F0905E811545
:1035F000904110F78091180182FF1DCE80919D03AC
:1036000081FD19CE21E132E040E0B60190E080E09A
:103610000E94FF0F10CE0933110558F40D32110529
:1036200018F40B321105C9F690919B0392FDD5CF8A
:1036300008C004361105C1F3D0CF90919B0394FDCF
:10364000CCCF882309F4A1C09091B30280910C02E1
:10365000282F292B322F3D7FB1F11092D7021092E3
:10366000D60230919B0331FD2EC0F80143E0F69560
:10367000E7954A95E1F7EE71FF27EC54FD4F98016D
:103680002F70332781E090E002C0880F991F2A95A0
:10369000E2F7809590952081318182239323918355
:1036A000808360E0C8010E94EB0F80910C028D7F47
:1036B0000E94730A82E00E94D50C2CCE90919B034D
:1036C00093FD8BCFBECF38E0F701A1E1B2E00190CE
:1036D0000D923A95E1F71092130210921502109292
:1036E0001402A090D602B090D7020A151B05B1F5BE
:1036F00030919B0335FF32C04091180141FB992462
:1037000090F841FF02C036FF29C04091D402509189
:10371000D502B601641B750B409198035091990333
:1037200064177507D8F491FF08C080911801806173
:103730008093180182E00E948E0A8091B30285FF77
:1037400008C08091180180628093180180E20E9475
:103750008E0A692DC5010E94EB0FDCCD90911801F6
:1037600021FB91F9909318018D7F0E94730A1093A9
:10377000D7020093D602D092D502C092D402809193
:10378000180184608093180195CF970140E0B6013D
:10379000C8010E94FF0FBECD053F4CE5140709F498
:1037A00067C008F45FC0063F8CE5180709F466C0DF
:1037B000D70112963C91332309F45DC41092A403FF
:1037C0000330BDE51B0708F065C00A3FECE51E07A6
:1037D00030F4C80182509C45449708F060C00E94B4
:1037E0006D12909363048093620400312CE51207FC
:1037F00009F461C108F0DDC008304CE5140709F494
:1038000048C108F0AFC004308CE5180709F433C193
:1038100008F095C00230ACE51A0709F426C1809182
:103820006204826003301C4509F422C16091620485
:103830001091630484E090E00E943D33612F82E2A6
:1038400090E00E943D330E94B91464CD07E225EE5A
:1038500045EE68ED7CE50ACD06E221EE40EE63EF31
:103860007CE504CD07E225EE44EE64EF7CE5FECC7A
:1038700006E221EE42EE65EF7CE5F8CC07E225EEAC
:1038800046EE66EF7CE5F2CC08E221E045EE69ED1C
:103890007CE5ECCC0136FDE51F0709F4A0CF06312D
:1038A0005CE5150709F4EBC30A354DE5140709F487
:1038B00053C108F02FC101158CE5180709F43CC16C
:1038C0000E3D1C4509F445C1F7018681978100979B
:1038D00009F446C10E94E008182F092FF701D28091
:1038E000C580C2943FE0C322809108028770C1F076
:1038F000AD2CDD20B1F0892F807F803421F080E273
:10390000810F883068F08091630482FD09C082E0F5
:103910000E94D50C809108028770AA24A39481117B
:10392000A12C902E92942FE09222FBE0F91508F43E
:10393000A4C1E92DF0E0ED56FC4C0C94D2328091FC
:10394000620480610630ECE51E0709F491C08091A5
:103950006204886007301C4508F48AC080916204C4
:10396000806286C0809162048D7F0C302CE5120746
:1039700009F47EC070F4809162048C600A304CE5DA
:10398000140709F475C008F488C0809162048E7F22
:103990006FC00E308CE5180709F485C08091620471
:1039A0008B7F0F301C4508F463C0809162048F7ECA
:1039B0005FC00C3FACE51A0709F479C068F5043123
:1039C000ECE51E0709F48BC080F402312CE51207E8
:1039D00009F475C0809162048F7B03311C4508F4A3
:1039E00047C080916204837F43C00A3F4CE51407BF
:1039F00009F445C008F049C005311C4509F016CF4F
:103A00008091620482FB992790F921E0922790FB34
:103A100082F990FB83F92CC001159DE5190709F483
:103A200054C088F48091630483600E3FBCE51B079B
:103A300049F1809163048D7F0F3F1C4518F18091FF
:103A400063048C7F1FC00230FDE51F0709F456C0D8
:103A500008F44EC001361D4509F0E8CE909162048D
:103A6000892F8F7E94FF806103C080916204816002
:103A700080936204DBCE809162048460F9CF8091F0
:103A80006304816080936304D1CE8091630482607B
:103A9000F9CF809162048064EBCF0E94B9148091C9
:103AA00062048068E5CF80916204877FE1CF8091D6
:103AB00063048E7FE7CF809162048F7DD9CF0E940F
:103AC000B914809162048F77D3CF80916304982FCB
:103AD000909591708E7F892B90FB81F9D3CF0E94B6
:103AE000B91490916204892F97FB87F98058C0CF51
:103AF00061E08EE090E00E943D3398CE60E0F9CF27
:103B000080919A01811104C089E20E949A0BE2C25D
:103B100085E3FBCF0B35ADE51A0701F10C351D45EB
:103B200009F0D2CE8091630482FB882780F991E06E
:103B300089270E943B13C8CE0E94B914EFEFF4E32B
:103B40002CE0E150F0402040E1F700C000000E946E
:103B50006D0E0E94AD17DECB81E0EBCF80E0E9CFA8
:103B6000828100811181882369F0C8010E94D411EB
:103B7000D82E682FC8010E944F0CB8018D2D0E94CD
:103B8000B811A8CEC8010E94230CD82EF6CF202F42
:103B90002F70B22E802F807F19F0B29490EFB9224F
:103BA000DD20A9F0BB2059F080E2810F883010F0B1
:103BB000111107C08B2D0E94950A0E94BC0A812F0B
:103BC0005AC080919704B82AB0929704F6CF812FFB
:103BD0000E94350DBB2009F450C080E2810F88306F
:103BE00010F0111104C08B2D0E948E0A03C08B2D82
:103BF0000E94870A0E94BC0A40C0302F3F70B32E3B
:103C0000802F807F803219F0B29480EFB822112388
:103C100021F1113009F4A6C0DD2009F4AFC0CC2099
:103C200009F47FC020E0D7014C9111965C91119767
:103C300012966C91129713967C91139714968C910F
:103C40000E941D1280919D0381FDB9CFF7018581EE
:103C500080FFB5CF8F70858364C08091630482FF3D
:103C600042C0DD20D1F1BB2029F08B2D0E94950AA6
:103C70000E94BC0A80E00E949B0EA92DA850BB0B9D
:103C8000149720F40E9485050E948B0D812F902FA0
:103C90000E947E0C8111C4C110929C0110929B0164
:103CA000AA20B1F08091080280FD12C0D7011296BF
:103CB0001C928595859585950E94F10CC7010E94FF
:103CC0001718809108028595859585950E94C90CE5
:103CD00060E0C7010E9446122DCB80E00E94350DA6
:103CE000BB2059F280CFDD2001F1C11004C08091CA
:103CF0000C028B2917C041E0C41206C080910C024F
:103D00008B290E94730AB9CF80919C03823078F38B
:103D1000C812EDCF0E94680A80910502B812B092D5
:103D200005028B2D0E942E0DA8CFC11006C00E9447
:103D3000680A8B2D0E94270DA0CF80919C0351E033
:103D4000C5120BC0823008F498CF8091B3028B214A
:103D500009F493CF0E94940BEACF823040F3C8124B
:103D6000E6CF8BCFDD2029F085E08C1508F485CFD8
:103D7000D8CF94E09C1508F480CFDBCFCC20C9F2DB
:103D80008091A0039091A103193321F080919E03AB
:103D900090919F030E94910E812F0E94350D6DCF4F
:103DA000802F86958695837069F0813009F065CF04
:103DB000812F902F9370D11002C090E080E00E947C
:103DC00059055BCF812F902F9370D11002C090E0E6
:103DD00080E00E946F0551CF812FDD2029F00E94E5
:103DE0001C080E94DA0649CF0E940107FACF802FF3
:103DF000837091F5D11041CF412F42954695477080
:103E0000440F440F812F8F70042E01C0880F0A9435
:103E1000EAF7212F207114FF07C02FE030E001C026
:103E2000220F4A95EAF72095302F36953695337054
:103E3000323069F050F440910D02313029F0822B7C
:103E400084230E94120D19CF842B822BFACF282BAA
:103E500080910D028227F5CF8695DD2011F0802F0D
:103E60008170882309F409CF412F42954695477008
:103E7000440F440F812F8F70042E01C0880F0A94C5
:103E8000EAF7212F207114FF07C02FE030E001C0B6
:103E9000220F4A95EAF72095302F369536953370E4
:103EA000323069F050F440919604313029F0822B81
:103EB00084230E94BA0CE1CE842B822BFACF282BCC
:103EC000809196048227F5CFF02FFF70BF2EDD2062
:103ED00029F08F2F0E94F10C812F24CF812F0E9477
:103EE000270D8B2D0E94C90CC8CE123F89F160F4BA
:103EF000103FB9F0113F81F0DD2009F48CC0C110F2
:103F00005ECE802F8F7128C0133F49F1143FA1F777
:103F10008091630482FF2FC0802F8F71DD2011F309
:103F20001BC0DD2081F024E02C1508F4A6CE202F44
:103F30002F7181E090E001C0880F2A95EAF79091F7
:103F400096048927B6CF35E03C1508F496CEEFCF1E
:103F5000802F8F71D110C6CF0E94F10C8ECE80E0E1
:103F6000DD2009F4A6CF81E0902F9F7101C0880F5A
:103F70009A95EAF79ECF80919C038230A0F18091C0
:103F80000502DD20F1F00E948E0A80910802877000
:103F9000843041F40E949B0A802F8F710E94C90CCB
:103FA000A12C6BCE80919C03C816D0F7402F4F7187
:103FB000B42E842F0E94F10C63E08B2D0E94FC0C28
:103FC000EFCF0E94950A80919C03C81640F00E9492
:103FD0009B0A0E94940B64E0802F8F71EFCF81E0E9
:103FE0000E94D50CDDCFDD2059F0502F5F71B52E2A
:103FF000852F0E94F10C63E08B2D0E94FC0C3DCEBE
:1040000081E00E94D50C81E08C1508F036CE82E06C
:104010000E94D50C32CEC110B3CE802F8F7162CFEB
:10402000DD2019F0C11038CE3BCEC11035CE20E0D6
:10403000F701408151816281738184810E941D1248
:1040400080919D0383FF28CE80919B0190919C01DC
:10405000029709F021CE812F0E944C0F1DCE003116
:10406000BFE51B0709F4E8C90131EFE51E0709F0B8
:1040700048C882E0E2C906311C4509F025CC809190
:10408000B302982F9A7A20919A0320FF04C0482FF8
:10409000447409F090E021FF04C0482F417109F0F9
:1040A00090E022FF04C0482F487809F090E023FFF9
:1040B00003C0827209F090E0332309F421CD81E03E
:1040C000911101C080E080939A0189E2911185E30A
:1040D0000E94C50B0E94BC0A1DC9CF92DF92EF92CD
:1040E000FF920F931F93CF93DF938091C001807F46
:1040F00031F48091BD01C091040281110BC0DF91A8
:10410000CF911F910F91FF90EF90DF90CF90089586
:104110002196C7708091C3018C1789F3F090BB0181
:10412000E090BC01C090BE01D090BF01A6016E2DF1
:104130008F2D0E949105D0E08111EACF8E0183E09E
:10414000000F111F8A95E1F7F801EC53FE4F8181B2
:104150008E11DECF80818F11DBCF82818111D8CF8C
:10416000E380F480EC18FD0860E08BEB91E00E94A6
:1041700046128091980390919903E816F90640F64B
:104180008091C0018F7080618093C001F801E75376
:10419000FE4F80818F70806180838BEB91E00E9465
:1041A0001718DF91CF911F910F91FF90EF90DF9043
:1041B000CF900C94190C3F924F925F926F927F9226
:1041C0008F929F92AF92BF92CF92DF92EF92FF9227
:1041D0000F931F93CF93DF93CDB7DEB765970FB6DD
:1041E000F894DEBF0FBECDBF8C0185E0F801DE0183
:1041F000519601900D928A95E1F7D8014C90119655
:104200005C9011971296EC9012971396CD90DC90DB
:1042100060E08BEB91E00E9446128BEBA82E81E0D0
:10422000B82E8090BE019090BF01A4016091BC01A6
:104230008091BB010E9491058111CAC1F090BD011E
:10424000F601E819F9094F0160E0FF2009F46DC19A
:10425000C5010E94461260909803709099033090B7
:10426000C0018614970408F013C14091BE0150911B
:10427000BF01B090BB01A090BC01832D807F6A2D4F
:1042800009F0ADC08B2D0E949105FE2C81113BC021
:10429000D80111968C9111978A1135C08C918B1190
:1042A00032C02091C1013091C20116968D919C912E
:1042B0002817390741F5E11026C0832D8F708061E2
:1042C0008093C0018BEB91E00E9417188091C00190
:1042D000F80185838F2D65960FB6F894DEBF0FBE6B
:1042E000CDBFDF91CF911F910F91FF90EF90DF90A5
:1042F000CF90BF90AF909F908F907F906F905F9086
:104300004F903F900895F4EF6F16F1E07F0620F490
:1043100080919D0380FF21C0A601652D842D0E9400
:104320009105811118C081E08E2580FF16C04E2DA9
:10433000652D842D0E94F90B882379F08BEB91E099
:104340000E94171888E0EBEBF1E0DF011D928A95DF
:10435000E9F7F12CBFCF80E0E8CFA601652D842DD1
:104360000E949105811124C081E08E25B82FB17083
:10437000CB2E80FF2BC04E2D652D842D0E94F90B76
:10438000D82E811123C0498A5A8A89899A890E9424
:104390000312292F22952F70223060F0243088F4E8
:1043A0009F7061F0F8019581907F41F4FD2C92CFD0
:1043B00080E0DCCF9F7011F08823C1F3805E8830ED
:1043C000A8F3C8010E941718DC2CF0CFEE2009F4E6
:1043D00081CF8091C00181608093C001BACF8B2DC5
:1043E0000E949105811124C0D80111968C911197DA
:1043F0008A111EC08C918B111BC02091C10130917C
:10440000C20116968D919C9117972817390781F450
:10441000E1100EC015963C92C8010E94171888E062
:10442000F801ABEBB1E001900D928A95E1F752CF24
:10443000C8010E940F12882339F1EE2029F18091E2
:10444000C0018032A0F02091BB013091BC013A87BD
:1044500029871B86DD86CC868E878091C10190914D
:10446000C201988B8F87CE0109960E94171888E0A9
:10447000F801ABEBB1E001900D928A95E1F70E9453
:104480006D20FF24F39426CFC8010E941718F9CF9E
:10449000832D807F09F452CF9090BB018090BC01A6
:1044A0004091BE015091BF01682D892D0E94910558
:1044B00081111CC0F8018181881118C08081891187
:1044C00015C02091C1013091C201868197812817C2
:1044D000390761F4E1100AC03582C8010E9417183B
:1044E00088E0D5011D928A95E9F7F4CEC8010E94B3
:1044F0000F12882349F2EE2039F28091C0018032F8
:1045000008F4B5CF2091BB013091BC013A832983D7
:104510001B82DD82CC828E838091C1019091C20189
:1045200098878F83CE010196A0CF8BEB91E00E94FC
:10453000461280919803909199038816990680F607
:10454000FE2CEE2009F4A0CFE090BB01D090BC017E
:104550004091BE015091BF016D2D8E2D0E9491059D
:10456000811128C0F80181818D1124C080818E11B4
:1045700021C02091C1013091C20186819781281705
:104580003907C1F480919D0382FD49CF9091C0010C
:1045900090FD45CF907F09F442CF8091C001858383
:1045A000903F09F439CF982F907F905F8F70892BBF
:1045B000858332CFC8010E940F12811158CF80919C
:1045C000C00181608093C001C8010E94171882CE8B
:1045D000EE2009F459CFC8010E940F12F82E88234B
:1045E00009F452CF88E0F801ABEBB1E001900D92F5
:1045F0008A95E1F78091BB019091BC010E94031262
:104600000E946D2067CECF93DF93CDB7DEB7609762
:104610000FB6F894DEBF0FBECDBF29873A874B8710
:104620005C876D877E878F87988BCE0109960E9465
:10463000DB2081112FC088E0FE013996DE01119642
:1046400001900D928A95E1F74C855D856A85898593
:104650000E94910581111EC0A091C301B0E0CD015F
:10466000019687709927209104022817190609F1ED
:1046700093E0AA0FBB1F9A95E1F7AC53BE4F98E0A9
:10468000FE01319601900D929A95E1F78093C30156
:104690000E94190C809104029091C301891317C0E4
:1046A00060960FB6F894DEBF0FBECDBFDF91CF91FD
:1046B00008950E94B9141092C3011092040288E078
:1046C000EBEBF1E0DF011D928A95E9F7E3CFB8E06B
:1046D0008B9FC00111248C539E4F0E94DB208823A6
:1046E000F9F28091040290E00196877099278093F7
:1046F0000402D0CFEF92FF920F931F93CF93DF93DB
:104700008091DB02882361F0C091DA028CE0F82E00
:104710008091DB02C81758F01092DB021092DA0287
:10472000DF91CF911F910F91FF90EF900895EE24AC
:10473000E394EC0EE092DA020C2F10E0CF9DE00142
:104740001124C452DD4F4B815C81698188810E94B4
:10475000910581111BC08E819F81892B21F4888551
:104760009985019651F4288139814A815B816C8158
:104770007D818E819F810E940323F09EF001F19E36
:10478000F00D1124E452FD4F14821382CE2DC0CFC0
:1047900010927F0310927E031092190180917D0385
:1047A00080937C030E94CA050C947A233F924F9217
:1047B0005F926F927F928F929F92AF92BF92CF92B1
:1047C000DF92EF92FF920F931F93CF93DF93C091ED
:1047D0007C0397E0892E01E010E02CE0322E3EEFC2
:1047E000932E4424439480917D038C1315C00E9422
:1047F0007A23DF91CF911F910F91FF90EF90DF907F
:10480000CF90BF90AF909F908F907F906F905F9070
:104810004F903F900C94CA05D0E0FE01EE0FFF1FB1
:10482000EC58FC4F80819181889ED001899EB00D0B
:104830001124A45CBC4F14962C911497211157C0DD
:104840005090DB02ECEDF2E030E020E0712C5D01F5
:10485000251508F04AC0E284F384D501CD90DC90A0
:104860006FEF7FEF612C462D50E0DA01AA0FBB1FDE
:10487000AC0DBD1D0D90BC91A02D109731F0EA1626
:10488000FB0609F4BA016394EECF6F3F7607A1F1FE
:10489000D80102C0AA0FBB1F6A95E2F77A2AB801B5
:1048A00002C0660F771F6A94E2F7AB0141505109CD
:1048B00074161506F9F4329EF001339EF00D1124A2
:1048C000E452FD4F889ED001899EB00D1124A45C56
:1048D000BC4F12962D913C9113973783268390827B
:1048E00091829187808715964C920E949C05219613
:1048F000C37079CF148213822F5F3F4F3C96A8CFAD
:104900004F925F926F927F928F929F92AF92BF92DF
:10491000CF92DF92EF92FF920F931F93CF93DF938B
:10492000CDB7DEB72A970FB6F894DEBF0FBECDBF66
:104930008E010F5F1F4F8AE0F80111928A95E9F707
:1049400094E5E92E91E0F92E680129E5422E21E057
:10495000522E66246394712C49E6842E41E0942EF5
:10496000F70181917F018F3F09F445C0F894E82F4A
:10497000E295EF70F0E021A18F70A30102C0440F17
:10498000551F8A95E2F7CA01922F982B91A392A105
:104990008095892382A3789400C0E9E5F1E021E0C5
:1049A00030E0B12CA12C41914F3F09F47EC0A42FDF
:1049B000A295AF70B0E090968C9190E04F7002C0DD
:1049C000959587954A95E2F780FD6FC0C901A82AA1
:1049D000B92A220F331F8E169F0629F7F701319748
:1049E00080818F3F11F00E94860850EA5A95F1F7B6
:1049F000F601B182A082F2E0CF0ED11C4E145F040A
:104A000009F0AECF4AE050E0B80189E192E00E949F
:104A10000233DD24D394009709F4D12C892B09F4B7
:104A200047C08AE0F801A9E1B2E001900D928A95B1
:104A3000E1F781E0809310020E944D0590930F02F0
:104A400080930E0280910E0290910F020E943E050B
:104A5000059790F18091190290911A029093340277
:104A60008093330280911B0290911C029093360236
:104A70008093350280911D0290911E02909338021E
:104A80008093370280911F029091200290933A0206
:104A900080933902809121029091220290933C02EE
:104AA00080933B021092100207C090E080E08FCF0D
:104AB000809110028111C6CF809100019091010177
:104AC00010E006E1019609F06DC080911901811195
:104AD00073C080919B0380FF1EC08091180182FFEC
:104AE0001AC00E944D052091D4023091D502AC012C
:104AF000421B530B209116013091170142175307A7
:104B000050F021E132E041E0BC018091D602909169
:104B1000D7020E94FF0F8D2D2A960FB6F894DEBFA4
:104B20000FBECDBFDF91CF911F910F91FF90EF90FE
:104B3000DF90CF90BF90AF909F908F907F906F90BD
:104B40005F904F900895089FF001099FF00D112488
:104B5000E955FC4FE288F388E114F10421F4E09078
:104B60009803F0909903089FF001099FF00D11241C
:104B7000E955FC4F86818823A1F0858596850E94A2
:104B80003E05E816F90668F4109F70011124C7016C
:104B900089559C4F0E94550BC70183559C4F0E941D
:104BA000100B1F5F812F90E02091000130910101D7
:104BB0002817390744F689CF80917E0390917F03AF
:104BC000009709F486CF0E943E052091D8023091CB
:104BD000D9022817390708F07CCF90917C03809187
:104BE0007D03981759F00E94D6231092D902109293
:104BF000D80210927F0310927E036BCF0E947A231B
:104C000010927F0310927E030E94CA0562CF2F92FA
:104C10003F924F925F926F927F928F929F92AF924C
:104C2000BF92CF92DF92EF92FF920F931F93CF9399
:104C3000DF93CDB7DEB769970FB6F894DEBF0FBE2E
:104C4000CDBF942F498B252F5A8B6B8B7C8B8D8BF3
:104C50004C895D89622F892F0E949105811109C0BD
:104C600080919B0190919C01019690939C0180936F
:104C70009B018B898111109297041D861E861F86C9
:104C8000188A85E0FE017196DE01199601900D9259
:104C90008A95E1F78091630482FD1EC080918203B2
:104CA00090918303892BC1F00E944D05209106024B
:104CB00030910702821B930B209182033091830372
:104CC0008217930720F08091080282FFF5C10E94AD
:104CD000A20A81110E94680A4C855D856A858985D2
:104CE0000E949105811111C061E0CE0109960E94D8
:104CF00046126C018B8527EFC2162CE5D20681F493
:104D0000882321F181E08093190129853A854B851B
:104D10005C856D857E858F8598890E940323C5C03B
:104D200038EFC3163CE5D30629F4882379F00E94B6
:104D3000C823EBCF49EFC4164CE5D40639F48823D9
:104D400029F0809119018111F2CFDCCF0CE313E03F
:104D5000512CB12CA12C22242394312C2EEF422E45
:104D6000F8014081518188248A94982C20E0822F78
:104D700090E0FC01EE0FFF1FE40FF51F60817181D1
:104D80006115710531F0C616D70609F44C012F5F85
:104D9000EECFF12CFFEF8F169F0609F448C0F80103
:104DA0004481F09019018F2D411180E0F82FF170AE
:104DB000FF2EF801E58086819B85992309F40CC1BB
:104DC000FF2009F409C16090960370909703E110E9
:104DD00012C0A10101C0440F8A94EAF7842B868394
:104DE0008091D8029091D9028615970520F470928F
:104DF000D9026092D802C10102C0880F991F2A957A
:104E0000E2F70197F80126812817190681F48091AD
:104E10007E0390917F03009709F460C00E943E05D5
:104E20006816790608F05AC021E0F80124835F284B
:104E3000FFEFAF1ABF0A095F1F4F28E0A216B104A7
:104E400009F08ECF8B85882309F421C1552009F400
:104E50001EC10E944D0590937F0380937E03809135
:104E6000DB02883010F591E0980F9093DB0298E018
:104E7000FE013996DE01119601900D929A95E1F7A7
:104E80003CE0839FC001112484529D4F28E0FE0125
:104E90003196DC0101900D922A95E1F72FEF3FEF5B
:104EA000FC0131872087D386C28669960FB6F894B5
:104EB000DEBF0FBECDBFDF91CF911F910F91FF904D
:104EC000EF90DF90CF90BF90AF909F908F907F90AA
:104ED0006F905F904F903F902F90089580917C034A
:104EE00050917D03982FF0E0E0E0851314C090937B
:104EF0007C03E017F10709F49ACF90E0FC01EE0F74
:104F0000FF1FEC58FC4FB182A08201968370992755
:104F100080937D038CCF682E712CF301EE0FFF1F61
:104F2000EC58FC4F2081318147E0429FD001439FE4
:104F3000B00D1124A45CBC4F6D917C911197798FB9
:104F4000688F40E020E030E0E32FF0E0EE0FFF1F3D
:104F5000688D798DE60FF71F808091808114910410
:104F6000E1F0F8010190F081E02DFF8BEE8B20E065
:104F700005C08616970609F44F2D2F5FE22FF0E04B
:104F8000EE0FFF1F6E897F89E60FF71F6081718129
:104F90006115710571F73F5FD7CF4423D1F0F80158
:104FA000231708F0FD0121E024830E171F0721F4C9
:104FB00090937C03F42E3BCF981305C0AE17BF0728
:104FC00011F49F5F937093012F5F3F4F822F837087
:104FD0008CCFF0E0E0E0F7CF90E0E1101FC0B1012E
:104FE00002C0660F771F2A95E2F79B012150310915
:104FF0008217930731F4442309F447C0C5010E9486
:105000009C05C10101C0880F8A94EAF7982F9095FA
:10501000F801868189238683FE2C09CF9C01082C08
:1050200002C0359527950A94E2F7A90141705527EA
:10503000BC016150710986239723892B11F5452BFB
:1050400001F1F80182819381892BC1F01B821C82BE
:105050001D821E8249824A820E944D058160582F1E
:105060009D838C83F801828193818F839887298126
:105070003A814B816D817E810E940323F801158264
:10508000C0CFF22FF170EF2EBCCFEF2CBACF9091A2
:105090007C0380917D03981731F00E94D623552020
:1050A00009F433CE02CF0E947A2310927F0310922C
:1050B0007E030E94CA05F3CF82E00E94D50C07CE82
:1050C000CF93DF9300D000D00F92CDB7DEB790938F
:1050D000B0028093AF02811520E2920748F40F904E
:1050E0000F900F900F900F90DF91CF910C94C20D05
:1050F0008EEF89838A831B820E944D058160782F01
:105100009D838C8349815A816B818D810F900F9093
:105110000F900F900F90DF91CF910C9407260F9373
:105120001F93CF93DF938C01EB0163E572E08C2F2B
:105130000E94F613892BA1F480919E0390919F0306
:105140000E94910EDD27C55BDD4F8881F80110823A
:105150001882833009F148F4813059F0823081F0AF
:10516000DF91CF911F910F9108958430D1F0853058
:10517000B9F78091530290915402009789F306C0C9
:105180008091550290915602009799F3DF91CF914B
:105190001F910F910C9460288091570290915802B2
:1051A000F3CF8091590290915A02009779F720919C
:1051B000530230915402809155029091560221156C
:1051C0003105D9F2009711F7C901E0CFCF93DF93F2
:1051D00000D000D00F92CDB7DEB79093B00280938D
:1051E000AF02811520E2920748F40F900F900F90C4
:1051F0000F900F90DF91CF910C94D40F8EEF898395
:105200008A8381E08B830E944D058160782F9D8386
:105210008C8349815A816B818D810F900F900F9003
:105220000F900F90DF91CF910C940726CF93DF93CF
:10523000EC010E94E62880919E0390919F030E94BA
:10524000910ECE01DF91CF910C9460280F931F93A4
:10525000CF93DF938C01862F63E572E00E94F613F3
:10526000892BC9F4C0915302D0915402209799F030
:10527000F8018081833069F4CE010E941629CE01A5
:105280000E941629CE01DF91CF911F910F910C94AE
:1052900016298430B8F7DF91CF911F910F910895AF
:1052A0000F931F93CF93DF938C01EB0163E572E0C3
:1052B0008C2F0E94F613892B09F064C0FE01FF2792
:1052C000D8018C91E55BFD4F8130D9F419969C9102
:1052D0001997992311F080830CC01A969C919923F9
:1052E000D1F382E08083809155029091560200971D
:1052F000D9F48091530290915402009709F442C06E
:1053000013C08230E9F519968C91199781112DC03F
:105310001A968C9181110EC083E080838091570290
:1053200090915802009719F1DF91CF911F910F9141
:105330000C94E62884E080838091590290915A026F
:10534000009791F780915302909154020097F9F0E1
:105350000E9416298091550290915602009721F7DC
:105360008091530290915402DFCF85E08083809139
:10537000530290915402009729F00E941629F0CF11
:1053800086E08083DF91CF911F910F9108958091E6
:10539000550290915602B1CF0E94A21781110AC006
:1053A0000E94AD1780914A028470896180934A02FD
:1053B0000E94361386E090E00E942F3380934A02C9
:1053C000803220F08770886180934A0290914A026F
:1053D000892F817090FF04C0892F869586958695C8
:1053E0000C9409061F920F920FB60F9211242F935F
:1053F0003F934F935F936F937F938F939F93AF935D
:10540000BF93CF93DF93EF93FF93D091E900DF70C9
:105410008091EC00C82FC17080FDC0E81092E900B7
:105420008091F000877F8093F00078940E94CE14E2
:105430001092E9008091F00088608093F000CD2BFD
:10544000CF70C093E900FF91EF91DF91CF91BF91B1
:10545000AF919F918F917F916F915F914F913F910C
:105460002F910F900FBE0F901F9018951F920F92C3
:105470000FB60F9211242F933F934F935F936F9327
:105480007F938F939F93AF93BF93EF93FF938091FD
:10549000E10082FF09C08091E20082FF05C0809197
:1054A000E1008B7F8093E1008091DA0080FF24C0CF
:1054B0008091D80080FF20C08091DA008E7F809399
:1054C000DA008091D90080FF9DC080E189BD82E132
:1054D00089BD09B400FEFDCF81E0809395048091E1
:1054E0006704811109C00E9488030E947B04809197
:1054F000E20084608093E2008091E10080FF17C0A9
:105500008091E20080FF13C08091E2008E7F809343
:10551000E2008091E20080618093E2008091D800F7
:1055200080628093D80019BC85E0809395048091B7
:10553000E10084FF2BC08091E20084FF27C080E15E
:1055400089BD82E189BD89B5982F917080FFFBCF1D
:105550008091D8008F7D8093D8008091E1008F7E6C
:105560008093E1008091E2008F7E8093E200809141
:10557000E20081608093E20080918C04882309F42A
:1055800047C084E080939504809195048091E10068
:1055900083FF27C08091E20083FF23C08091E10058
:1055A000877F8093E10082E08093950410928C04C1
:1055B0008091E1008E7F8093E1008091E2008E7FF8
:1055C0008093E2008091E20080618093E20042E0FB
:1055D00060E080E00E9449048091F0008860809340
:1055E000F000FF91EF91BF91AF919F918F917F91CB
:1055F0006F915F914F913F912F910F900FBE0F9040
:105600001F90189519BC109295041092670474CFDE
:105610008091E30087FD93E090939504B5CF789453
:105620001F921FB61F9211248F939F93AF93BF9326
:1056300080915E0490915F04A0916004B091610438
:105640000196A11DB11D80935E0490935F04A09309
:105650006004B0936104BF91AF919F918F911F90AF
:105660001FBE1F9018951F921FB61F9211248F9373
:105670009F93AF93BF9380915D04811113C080917C
:105680005E0490915F04A0916004B0916104419622
:10569000A11DB11D80935E0490935F04A0936004EC
:1056A000B0936104BF91AF919F918F911F901FBEE6
:1056B0001F9018950F920FB60F921F9211242F93DF
:1056C0003F935F936F937F938F939F93AF93BF931A
:1056D0002091880030918900809186009091870008
:1056E0006AEF70E00E9488326B5F7F4F621773072A
:1056F00008F4289ABF91AF919F918F917F916F91FC
:105700005F913F912F911F900F900FBE0F901895B2
:1057100028981895CDB7DEB7E4970FB6F894DEBF9A
:105720000FBECDBF84B7877F84BF0FB6F894A8950E
:1057300080916000886180936000109260000FBECD
:1057400080E890E00FB6F894809361009093610038
:105750000FBE85B7806885BF85B7806885BF84E840
:1057600098E090937901809378010E940A140E9436
:1057700060140E9463110E9488030E947B04809140
:10578000E20084608093E2007894809195048823FD
:10579000A1F01091E9001F709091EC00892F8170A9
:1057A00090FD80E8182B1092E9008091E80083FDBD
:1057B0000E94CE141F701093E90082E084BD93E034
:1057C00095BD9AEF97BD80936E000E94541281118F
:1057D00002C00E94E71304E511E0E9E5EE2EE1E0E6
:1057E000FE2ED8018D918D018F3F11F00E94860809
:1057F000E016F106B1F709E511E079E6E72E71E070
:10580000F72EF80181918F018F3F11F00E948608D9
:10581000E016F106B1F78AE0E3E3F2E0DF01282FBA
:105820001D922A95E9F7E9E1F2E0DF011D928A95E0
:10583000E9F70E94A217811102C00E94AD1782E011
:1058400090E00E942F33809324020E946D12909367
:105850006304809362040E948024EFE3FCE93197A3
:10586000F1F700C000000E9480248091330280FF85
:1058700008C06FEF7FEF90E080E00E945B330E94F2
:105880006D0E83E090E00E942F330E94120D529A19
:105890005A98209A289882E08093800089E180932A
:1058A00081008FEF9FEF90938700809386000E9486
:1058B000CC290E94CC2982E091E090935A048093F5
:1058C00059048E010F5F1F4F8091950450E1E52E22
:1058D00062E1F62E853009F42EC10E9480248823CF
:1058E00059F08FB7F89440915E0450915F04609135
:1058F0006004709161048FBFA3E3B2E0E5E2F2E0DF
:10590000F12CE12C7E2D8D919D91219131912817C3
:10591000390709F424C12827392760E0CC24C3942F
:10592000D12CA9014C215D21452B09F412C16BA793
:105930007CA79C012C213D2191E0232B09F490E0D0
:105940009DA70E944D058160782F9FA78EA74BA52C
:105950005CA56DA58FA50E940726F701EE0FFF1F1E
:10596000EB5DFD4F80819181C826D926D182C0820E
:1059700086E0E4E4F2E0D80101900D928A95E1F727
:10598000C0904602D0904702E0904802F090490251
:105990001092460210924702109248021092490259
:1059A0008C2D8D2991F080914202909143020E94AA
:1059B0003E05AC0190913E02992309F4E9C0809123
:1059C00014018417150608F4F1C08E2D8F2991F06B
:1059D00080914002909141020E943E05AC0190915D
:1059E0003D02992309F421C1809110018417150605
:1059F00008F429C18091460290914702892B909129
:105A00004802892B90914902892B11F00E94DA06F5
:105A100086E0F801A4E4B2E001900D928A95E1F7E6
:105A20000E94850590912302891731F00E94850517
:105A3000809323020E948B0D80919504843009F09D
:105A400043CF83E08093E9008091E80082FF3CCF60
:105A50008091E80090E085FF0AC00E94A70360E201
:105A6000C62ED12C7801882309F436C191E08091AB
:105A7000E8008B778093E800992309F425CFE09024
:105A8000B102F090B2028981E114F10409F432C14B
:105A90008E3F09F0C3C18A81833020F08550833066
:105AA00008F0BCC1EA81EE3008F0B8C1F0E0E15680
:105AB000FC4C0C94D23280919504843051F180E0FA
:105AC0000E94090680E00E948B0D10925D0428E17F
:105AD00030E040E40FB6F894A895209360000FBE24
