:100000000C943F030C9486030C9486030C94860393
:100010000C9486030C9486030C9486030C9486033C
:100020000C9486030C9486030C94B2280C946E28CE
:100030000C94AF290C9486030C9486030C948603CD
:100040000C9486030C9486030C9486030C9486030C
:100050000C9486030C948B290C9486030C948603D1
:100060000C9486030C9486030C9486030C948603EC
:100070000C9486030C9486030C9486030C948603DC
:100080000C9486030C9486030C9486030C948603CC
:100090000C9486030C9486030C9486030C948603BC
:1000A0000C9486030C9486030C94860305010902C4
:1000B000A10185020901A100050919012905150001
:1000C00025019505750181029501750381010501E1
:1000D000093009311581257F950275088106093897
:1000E0001581257F950175088106050C0A380215D2
:1000F00081257F950175088106C0C005010980A191
:1001000001850319012AB700150126B7009501756D
:10011000108100C0050C0901A101850419012AA064
:1001200002150126A002950175108100C005010984
:1001300006A1018506050719E029E71500250195A7
:1001400008750181020507190029EF1500250195A1
:10015000F0750181020508190129059505750191C0
:1001600002950175039101C00660FF0961A10109B3
:1001700062150026FF0095207508810209631500AD
:1001800026FF00952075089102C005010906A1010E
:10019000050719E029E71500250195087501810279
:1001A0009501750881010507190029FF150026FF33
:1001B0000095067508810005081901290595057542
:1001C000019102950175039101C00000000000003B
:1001D000000000000000000000000000000000001F
:1001E00000000000000000000000000000007E0F82
:1001F00000D4FFFFFFC700000078000000000000EF
:1002000000002A2B28000000000000000000000071
:10021000000000000029000000002C1E34202122D4
:1002200024342627252E362D3738271E1F2021223D
:10023000232425263333362E37381F0405060708B6
:10024000090A0B0C0D0E0F101112131415161718A6
:10025000191A1B1C1D2F3130232D350405060708E4
:10026000090A0B0C0D0E0F10111213141516171886
:10027000191A1B1C1D2F3130354CFD377A585A0086
:100280000004E6D6B4460200210116000000742FD7
:10029000E5A3E0038D012F5D003D8889C65436C378
:1002A000174FE4E33B694B119285B903F86F56ACE5
:1002B000E42F2B35BC4C59EE0625973B2AA4E4F0DD
:1002C000738C50751BFA044EA3D2F74251BD420203
:1002D0000BA3E08CDE778991CA66DDF8E66DE70056
:1002E000CCE8093E5D1285A06961BDCCF2963B0960
:1002F000C51679AAE79AEDA7CD6CA8E652DA1BCD10
:1003000074BF825F7F815ED294ABB2E7FF4D2BBB9F
:100310007CC007D28DD14BD9F1B6CFE8D401E1C969
:10032000ABD6C40E0B2DE7040B2325AA6080A22AAE
:100330008B55CA54374611C2420FF936E1EC5FD9EA
:1003400019C89BCF4D0B9C072BBE77761B6FF11DF9
:10035000E7FE2FDF763F20627514F6680726864297
:10036000E879842D7FAC8DA69CA111A47DB9E5FA16
:100370002428D603BC4D561D5B3564AB8F3CFA2E4A
:100380007A8631C2A1C414A96F6EC7ABE73D8D4414
:1003900082C082564463EB23E4A0ED246983E246E5
:1003A0001FE16B53057FC30AD34D6CB649BD24D5FD
:1003B0008E0368EAAE5115C8469FA626AACD321311
:1003C000A738519AB5AE52FB0000B732FFF2F42DB8
:1003D00031010001CB028E07000047BE73CAB1C4D1
:1003E00067FB020000000004595A680029001E0043
:1003F0001F002000210022002300240025002600E9
:1004000027002D002E002A004C0069002B0014004C
:100410001A000800150017001C0018000C0012003C
:1004200013002F00300031004B006A003900040037
:100430001600070009000A000B000D000E000F0057
:100440003300340028004E0000006B00E1001D0066
:100450001B000600190005001100100036003700CF
:100460003800E500520000000000E000E300E20078
:100470002C000151500051004F000000000000000E
:1004800000000000000000000000010035003A00FC
:100490003B003C003D003E003F0040004100420068
:1004A0004300440045004C00010001000100010030
:1004B0000100010001000100010001000100010034
:1004C00001000100010001004A00010001000100DB
:1004D0000100010001000100010001000100010014
:1004E0000100010001004D000000005C010001005E
:1004F00001000100010001000100010001000100F4
:100500000100010080000000000001000100010066
:100510000100010001008100010000000000000056
:10052000000000000000000000000100010099032D
:1005300000000200020095030000030001009A037E
:100540000000040002007F030006050001009B0379
:10055000000006000200810300000700020097036C
:100560000000080001009C03000009000200830352
:10057000DB050A0002008503DB050B000200870390
:10058000DB050C0002008903DB050D0002008B0374
:10059000DB050E0002008D03DB050F0002008F0358
:1005A000DB05100002009103DB051100020093033C
:1005B000DB05120002009D030000130002009F03F0
:1005C000000009025B00030100A0FA090400000119
:1005D00003010100092111010001224000070581EA
:1005E0000308000A090401000203000000092111A8
:1005F00001000122220007058203200001070503F4
:100600000320000109040200010300000009211178
:1006100001000122BC000705840320000A1201002A
:100620000200000008D804B5ED0100010203011C1E
:10063000037600690061006C003A00660036003401
:10064000006300320062003300630000000E034EBE
:10065000006900630065003600390000001A03439A
:10066000004C00410043004B002D00410054005459
:1006700000410043004B0000000403090400112462
:100680001FBECFEFDAE0DEBFCDBF04B603FE27C04A
:100690008091970490919804A0919904B0919A0444
:1006A0008730904BA740B04BD1F410929704109232
:1006B00098041092990410929A0414BE84B7877F0C
:1006C00084BF0FB6F894A8958091600088618093EC
:1006D0006000109260000FBEE0E0F8E3099511E0C1
:1006E000A0E0B1E0E2ECF2E602C005900D92A8377E
:1006F000B107D9F724E0A8E7B1E001C01D92A739FE
:10070000B207E1F70E94D6290C942D310C94000019
:10071000E8EDF0E080818E7F80831092E2001092FD
:10072000DA001092E100A0EEB0E08C9181608C9331
:1007300080818F77808319BCA7EDB0E08C918E7F8C
:100740008C9380818F7E808310926604089520911F
:10075000E4003091E50095E6A9012091EC00822F9C
:10076000817020FF06C08091E80080FF06C080E015
:1007700008952091E80022FD1AC0809194048823F6
:1007800089F0853089F08091EB0085FD0FC02091C4
:10079000E4003091E50042175307F9F29150E1F679
:1007A00084E0089582E0089583E0089581E008954B
:1007B000EF92FF920F931F93CF937C018B010E94C6
:1007C000A703C82F811117C08091E80085FD0BC0D9
:1007D0008091E8008E778093E8000E94A703882329
:1007E00099F3C82F08C0F70181917F018093F10030
:1007F0000150110949F78C2FCF911F910F91FF9054
:10080000EF900895CF93FC0180919404843001F51A
:10081000C091E900CF702091EC00922F917020FDE3
:1008200090E8C92B82E08093E9008091E80080FF86
:100830000CC050E040E060E270E0CF010E94D803BD
:100840008091E8008E778093E800CF70C093E90034
:10085000CF91089580918C0487FF13C08091E800A8
:1008600082FF06C08091E8008B778093E80004C087
:10087000809194048111F2CF08958091940488238B
:10088000D9F38091E80080FFF8CF8091E8008E775F
:10089000ECCF982F9093E900242F762F50E0891702
:1008A00031F07091EC002091ED005091F00021FDAD
:1008B00007C09F5F973071F78093E90081E008954A
:1008C0003091EB003E7F3093EB003091ED003D7FA7
:1008D0003093ED003091EB0031603093EB0070937A
:1008E000EC002093ED005093F0002091EE0027FDE6
:1008F000E0CF80E00895CF92DF92EF92FF920F93C6
:100900001F93CF93DF93C8EDD0E088818F7E8883DB
:10091000E7EDF0E080818160808384E082BF81E048
:100920008093660488818E7F888302EE10E0F80150
:1009300010821092DA0081EEC82ED12CF6011082BE
:1009400088818F77888388818068888388818F7D7C
:10095000888319BC1092940410928B0410928A041C
:100960001092890490EEE92EF12CF70180818B7FA3
:10097000808388818160888342E060E080E00E941B
:100980004904F60180818E7F8083F8018081816037
:100990008083808188608083F70180818E7F80835F
:1009A000888180618883DF91CF911F910F91FF90A3
:1009B000EF90DF90CF900895FC0180919204909188
:1009C000930486179707A0F06115710529F490919B
:1009D000E8009E779093E80090E06115710551F46E
:1009E000911108C08091E80082FF34C080E0089532
:1009F000BC01F2CF809194048823C1F18530C1F10C
:100A00008091E80083FD30C08091E80082FDEACF4C
:100A10008091E80080FFE1CF8091F3002091F20007
:100A2000382F6115710519F02830310558F091E023
:100A30002830310509F090E02091E8002E772093CE
:100A4000E800CBCF81918093F100615071092F5F55
:100A50003F4FE7CF80919404882341F0853041F0E7
:100A60008091E80083FFBECF81E0089582E0089581
:100A700083E0089508958091680408959C014FB71C
:100A8000F89480915D0490915E04A0915F04B09110
:100A900060044FBF821B930B08952FB7F894809189
:100AA0005D0490915E04A0915F04B09160042FBF3B
:100AB000089520915A0430915B042817390771F08A
:100AC00090935B0480935A04E0915804F091590488
:100AD000309721F00084F185E02D0994089520914C
:100AE0005604309157042817390771F09093570432
:100AF00080935604E0915804F0915904309721F006
:100B00000680F781E02D09940895E0915804F09152
:100B10005904309721F00190F081E02D099480E094
:100B20000895452B39F0682381E06F3F09F080E09C
:100B30008170089581E0FCCFDC0160917B0380919E
:100B40007C03962F891301C00895292F30E0F90105
:100B5000EE0FFF1FED58FC4F408151814A175B0794
:100B6000A1F487E08A9FA0018B9F500D1124455C62
:100B70005C4F81E0FA0184839613E6CF2F5F3F4FED
:100B80002370332720937B0308952F5F3F4F922FCD
:100B90009370D8CF1092D8021092D702EBE3F3E013
:100BA0008581811102C014821682379683E0E33773
:100BB000F807B1F70895EFE7F3E0848195812AE023
:100BC00030E0B9010E9478306093150186818093EE
:100BD0001401828580931301848580931201868598
:100BE0009785B9010E9478306093110180898093C4
:100BF0001001828980930F01848980930E010895EA
:100C000080917F0390918003909317018093160148
:100C100008950E944D059C019091460280914702E3
:100C2000982B21F030934302209342029091480286
:100C300080914902982B21F0309341022093400289
:100C4000E0915804F0915904309749F082E0809384
:100C500044020480F581E02D84E492E00994089533
:100C600090914602803F59F48091470287FF0DC062
:100C70001092470291110BC010923E0208C0813FB2
:100C800081F48091470218169CF3992381F080919A
:100C9000480290914902892B09F064C010923D02EC
:100CA0000895823F49F497FFF0CF10924602809159
:100CB00047028111ECCFE0CF833F19F41916ACF352
:100CC000E4CF20914802893F29F41216F4F61092DD
:100CD0004802DBCF8A3F19F427FFD7CFF8CF209106
:100CE00049028B3F29F427FFD0CF10924902CDCF84
:100CF0008C3F19F41216CCF3C8CF843F31F48091A5
:100D000045028E7F80934502C0CF853F21F48091BC
:100D100045028D7FF7CF863F21F4809145028B7F7E
:100D2000F1CF873F21F480914502877FEBCF883F49
:100D300021F4809145028F7EE5CF8D3F31F4809183
:100D40003F028E7F80933F02A0CF8E3F21F480919F
:100D50003F028D7FF7CF8F3F09F097CF80913F0201
:100D60008B7FF0CF089580913F0280FF0CC060918F
:100D70000F0170E07595679575956795611571051B
:100D800049F1862F089581FF06C060910F0170E040
:100D900075956795F3CF60910F0182FD0BC090911F
:100DA0003D029923A1F060910E0180910F019617E9
:100DB00038F0682F70E06038710500F38FE7089510
:100DC000899FC001112470E00E948C30F4CF61E053
:100DD00070E0D7CF81E0089580913F026091870352
:100DE0007091880380FF16C020911301269FC001D7
:100DF000279F900D1124BC01769567957695679590
:100E00006038710508F043C06115710509F441C0EF
:100E1000862F089581FF0BC020911301269FC001EA
:100E2000279F900D1124BC0176956795E9CF82FF2D
:100E300009C0809113019B01829FB001839F700DB7
:100E40001124DECF20913E022223D1F29091120193
:100E500080911301482F50E0291748F0CB01849F5F
:100E6000B001859F700D949F700D1124C9CF289FEC
:100E700090011124269FA001279F500D369F500DF1
:100E80001124692F70E0CA010E947830B9CF8FE732
:100E9000089581E00895803F31F40E94EC06819529
:100EA000809347020895813F19F40E94EC06F8CF21
:100EB000823F31F40E94EC068195809346020895AA
:100EC000833F19F40E94EC06F8CF893F29F40E9471
:100ED000B3068093480208958A3F21F40E94B30626
:100EE0008195F7CF8B3F31F40E94B30681958093B3
:100EF000490208958C3F19F40E94B306F8CF843F4D
:100F000031F4809145028160809345020895853FC8
:100F100021F4809145028260F7CF863F21F48091D1
:100F200045028460F1CF873F21F4809145028860BB
:100F3000EBCF883F21F4809145028061E5CF8D3F62
:100F400031F480913F02816080933F0208958E3F8B
:100F500021F480913F028260F7CF8F3FB9F78091F3
:100F60003F028460F1CF80E00895F894E82FE29585
:100F7000EF70F0E031A1282F2F7081E090E001C0E8
:100F8000880F2A95EAF7982F9095932391A392A121
:100F9000892B82A3789408959091610492FF06C0F2
:100FA000282F28712830F9F4877F846093FF06C0CA
:100FB000282F28712831F1F4877E84612091620402
:100FC00020FF06C0382F38713830D9F4877F816010
:100FD00021FF06C0282F28712831D1F4877E816136
:100FE00094FD877E0895282F24712430F9F68B7F95
:100FF0008860DCCF282F2471243101F78B7E886133
:10100000DDCF382F3171313019F78E7F8860E0CF16
:10101000282F2171213121F78E7E8861E1CFCF9376
:10102000DF93EC0182389105A9F1D8F58133910560
:1010300009F496C048F58932910509F48AC08A9767
:1010400009F495C0C11521E5D20708F0BCC0C1154F
:1010500030E5D30708F014C1C83ED10508F09CC0A4
:10106000C03ED10560F5C83AD10508F087C0C53A41
:10107000D10508F0FDC0C130D10509F12097F9F084
:10108000C430D105E0F440C08533910509F45AC05D
:10109000C997C1F680916104837089F0C0EED0E0F9
:1010A0000EC0833E910599F170F4803E910501F1E7
:1010B000823E910539F68091610482FD21C0CE0106
:1010C000DF91CF910895863E910561F1873E9105AC
:1010D00071F1843E910509F0B5CF8091620481FFE2
:1010E000EECF80916104C7EED0E084FD0DC0E7CF64
:1010F0008091610480FD12C19091620490FFDFCF66
:10110000C3EED0E084FFDBCFD0E0C0E0D8CF809149
:10111000610482FD06C19091620490FDBFCF84FFFF
:10112000CECFF2CF8091610483FDDDCFC8CF809117
:10113000610483FDF9C09091620491FFF0CFC4EE89
:10114000D0E0BDCF8091610485FFB9CFC9E2D0E086
:10115000B6CF8091610485FFB2CFC5E3D0E0AFCFB9
:101160008091610486FFABCFCAE2D0E0A8CF809126
:10117000610486FFA4CFC1E3D0E0A1CFCF3BD1056E
:1011800018F6C85AD0E0CC0FDD1FCA5DDE4F0990BB
:10119000D881C02DD46493CFC11540E2D40758F450
:1011A000C11581E0D80708F08ACFC03FD10508F407
:1011B000ABCFD06584CFC11590E4D90708F4A4CF94
:1011C000DF70D06A7CCFC11525E5D20700F5C115C7
:1011D00034E5D30708F08AC0C11543E5D40708F009
:1011E00071C0C11582E5D80708F467C0CE018370CD
:1011F000992721E030E002C0220F331F8A95E2F7E1
:10120000C695C69580E2C89FE001112452C0C11561
:1012100099E5D907A8F4C11528E5D20708F06BC0F5
:10122000C11536E5D30708F06FCF8C2F0E94CC078D
:10123000C82FD0E0DC2FCC27CC27DF71D0623FCF86
:10124000C1154AE5D40708F45BC0CE01905681155C
:10125000904208F059CF8D2F8F710E94CC0790E0FB
:10126000982F882788279F719C012C2BE901E6CFB6
:10127000C55AD0E0CD5DDE4FC881D0E0D0641FCF2D
:10128000CE01E4E096958795EA95E1F783702C2FDF
:1012900026952695237040E2249F90011124382B37
:1012A0008C2F8370C1E0D0E002C0CC0FDD1F8A9587
:1012B000E2F7C22BD32BDC6802CFDC2FCC27C16F27
:1012C000D06AFDCECE018370992721E030E002C0C4
:1012D000220F331F8A95E2F7C695C69590E2C99F03
:1012E000E0011124C22BD32BDA68E9CEDC2FCC2706
:1012F000C46FD06AE4CEDC2FCC27C06FD06ADFCEBB
:101300008C2F8F700E94CC0734E0D695C7953A9504
:10131000E1F7CF709C2FEC01D069D1CEC9E3D0E0CA
:10132000CECEC2EED0E0CBCEC6EED0E0C8CE80911D
:101330000C02882331F010920C0210920B021092D2
:101340000A020895CF93C82F8091620482FD0CC0D9
:1013500080910C028C1741F00E944D0590930B0276
:1013600080930A02C0930C02CF91089580959091CA
:101370009604982390939604089580959091B202D4
:1013800098239093B20208959091B202892B809392
:10139000B2020895109208021092070210920602FB
:1013A00008958091810390918203892B89F00E9496
:1013B0004D0520910A0230910B02AC01421B530BE8
:1013C00081E020918103309182034217530708F492
:1013D00080E0817008958091B20290919604892BEB
:1013E00090910902892B80937A0180910C028823C5
:1013F00019F18091810390918203892B29F00E9439
:10140000D10981110E94970980917A0190910C0273
:10141000892B80937A0180911A01882341F1809170
:10142000610487FF24C08EE1ECE7F1E090E0815099
:1014300000F591110E949709E0915804F091590428
:101440003097E1F080911A01882359F0809161046E
:1014500087FF07C080917A0180937B0186E08093AB
:101460007A010280F381E02D8AE791E0099486E019
:10147000DBCF21912223D9F29F5FD9CF0895EF923C
:10148000FF920F931F93CF93DF93EC018A85811115
:1014900034C0EB80FC8087E5F81A26E12E9DC00160
:1014A0002F9D900D1124DC01AA55BC4F1496ED918F
:1014B000FC911597309731F054966D917C9184553D
:1014C0009C4F099586E18E9D80018F9D100D112402
:1014D0000A551C4FF80187810E94BD09F8018085DB
:1014E0000E94B6090E94EB09188219861B861E828B
:1014F0001D821092A5031092A403DF91CF911F913A
:101500000F91FF90EF900895CF93DF93EC018989BD
:10151000811118C081E0898B8F810E94C40980915C
:1015200096049885892B809396040E94EB09EA81A2
:10153000FB81309739F06C897D89CE010696DF9169
:10154000CF910994DF91CF91089580911801877F01
:101550008093180182E00E94B6098091180184FFEF
:1015600006C08F7E8093180182E00E94C40980919A
:10157000180185FF06C08F7D8093180180E20E94CC
:10158000C4090C94EB0980910502811110920502A7
:10159000089590911A019923D1F09091610497FFD9
:1015A00016C0E82FE695E695E695EE31E0F4F0E01A
:1015B000E658FE4F282F277081E090E001C0880F89
:1015C0002A95EAF780959281892382830895ECE732
:1015D000F1E09191891303C0DF0111971C9291E012
:1015E000E238F907B1F7089590911A019923C1F0F3
:1015F0009091610497FF14C0E82FE695E695E69573
:10160000EE31F8F4F0E0E658FE4F877021E030E06C
:1016100001C0220F8A95EAF78281822B8283089586
:10162000ACE7B1E0EFEF90E02D91821751F0EF3F82
:1016300019F4211101C0E92F9F5F9630A9F7EF3F00
:1016400009F408950E2E000CFF0BE658FE4FE6CF6E
:10165000209104029091C301291302C080E00895F3
:1016600030E0F90153E0EE0FFF1F5A95E1F7EC531C
:10167000FE4F5181561306C05081581303C052814A
:10168000541304C02F5F3F4F2770E6CF81E00895C9
:10169000809104029091C301981301C008958F5F57
:1016A0008770FACF9E3F41F19295907FE92FE80F26
:1016B0009E2F9770E695E695E69583E0E89FF0010A
:1016C0001124E356FE4F50E040E080E0219130E0ED
:1016D000092E02C0369527950A94E2F72170332728
:1016E000042E01C0220F0A94EAF7822B4F5F5F4F4E
:1016F0004330510559F7089580E008959E3F61F108
:101700009295907FE92FE80F8E2F877041E001C0FE
:10171000440F8A95EAF7E695E695E69583E0E89F1B
:10172000F0011124E356FE4F30E020E070E05191CB
:10173000DF011197CB01022E02C0969587950A947E
:10174000E2F7817081958527842385278C932F5F0D
:101750003F4F2330310559F70895E92FE295EF7097
:10176000E250EE3070F4F0E0E15DFE4C0C94A030FD
:10177000803F19F020F4883E20F481E00895843FF2
:10178000E1F380E00895883EC0F3813FD1F7F5CFC3
:1017900093FB882780F9089590E080E00E946F0510
:1017A00090E080E00E945905109296041092090280
:1017B0000E94EB0986E0E4E4F2E0DF011D928A95E5
:1017C000E9F710923E0210923D0210923F020C94F3
:1017D0000906809395040C94CC0B80919504982F66
:1017E0009670963019F488600C94E90B877FFCCFD3
:1017F00021E030E001C0220F8A95EAF72095809120
:10180000950482230C94E90B90910802809589231A
:1018100080930802282F277091F4282F082E000C9F
:10182000330B9217130659F09091620492FD07C092
:101830008595859585950E94F80B0C94CA090895A5
:1018400021E030E001C0220F8A95EAF780919504EB
:10185000822B0C94E90B9091620492FD10C098E0E9
:10186000899F90011124622B609308020E94200C32
:101870000E944D05909307028093060208950C94F0
:10188000200C80930D020C94CC0B882321F00E9435
:10189000B6090C94EB090895882339F090919604C9
:1018A000982B909396040C94EB090895882321F0CB
:1018B0000E94BD090C94EB090895882321F00E9431
:1018C000C4090C94EB090895882309F452C08238A6
:1018D00071F40E94850581FF4CC089E30E94F40ADF
:1018E0000E94EB0989E30E94C90A0C94EB09833832
:1018F00059F40E94850580FF3CC083E50E94F40AEC
:101900000E94EB0983E5EFCF843859F40E948505E6
:1019100082FF2FC087E40E94F40A0E94EB0987E44B
:10192000E2CF9CEF980F913AF0F290E2980F983046
:1019300050F4877091E001C0990F8A95EAF7892FDA
:101940000E94BD09D2CF9BE5980F933020F490E020
:1019500080E00C946F0598E5980F973120F490E0A3
:1019600080E00C945905803F20F00E9430060C94D2
:101970000906089581FF02C05A9A08955A98089559
:101980009C013A9521153F4150F5FC01EE27F1707D
:10199000BC0166277270AC01442754709C01222759
:1019A000387094FF0EC080E1EF2B09F480E0672BC4
:1019B00009F08062452B09F08064232B89F0806850
:1019C000089581E0EF2B09F480E0672B09F0826035
:1019D000452B09F08460232B19F08860089580E07E
:1019E0000895CF93DF93EC010E94640CCE010E9416
:1019F000C00C9E01205E31092830310510F0CD2B3E
:101A000021F4DF91CF910C94560CDF91CF910C947F
:101A1000450C809363047093650460936404809123
:101A200094048430F9F48093E9008FEF9091E800FA
:101A3000815095FD06C095ED9A95F1F70000811152
:101A4000F5CF8091E80085FF0DC050E040E063E0F5
:101A500070E083E694E00E94D8038091E8008E77DE
:101A60008093E8000895BC0184E00C94090DBC014A
:101A700083E00C94090D9C0184E08093E9009FEFC2
:101A80008091E800915085FD06C085ED8A95F1F7BB
:101A900000009111F5CF8091E80085FF0CC050E067
:101AA00040E066E070E0C9010E94D8038091E80040
:101AB0008E778093E8000895CF93DF93EC018091B7
:101AC0001A018823B1F18091610487FF32C060E27E
:101AD00084E08093E9008FEF9091E800815095FDBC
:101AE00006C095ED9A95F1F700008111F5CF809130
:101AF000E80085FF1BC080911A0170E050E040E0D3
:101B0000811104C050E040E068E070E0CE010E9426
:101B1000D8038091E8008E778093E80080E2FE0190
:101B2000A9E6B4E001900D928A95E1F7DF91CF919B
:101B3000089568E081E0CDCF81E08093E00080E20D
:101B40008093D8001092C9008FE19EE40197F1F7CD
:101B500000C0000087E090EBDC0180939704909335
:101B60009804A0939904B0939A0488E19CE00FB67E
:101B7000F894A895809360000FBE90936000FFCF0B
:101B8000019708F40895EFE9FFE03197F1F700C0FD
:101B90000000F6CFCF93C82F882309F4AAC082385B
:101BA000C1F40E94850581FDA4C089E30E94F40A66
:101BB0000E94EB092FEF81EE94E02150804090408D
:101BC000E1F700C0000089E30E94C90ACF910C949C
:101BD000EB098338A1F40E94850580FD8AC083E566
:101BE0000E94F40A0E94EB092FEF81EE94E021504D
:101BF00080409040E1F700C0000083E5E5CF8438E5
:101C0000A1F40E94850582FD74C087E40E94F40A55
:101C10000E94EB092FEF81EE94E02150804090402C
:101C2000E1F700C0000087E4CFCF8CEF8C0F813A42
:101C300088F580911A01882301F18091610487FF62
:101C40001CC0EC2FE695E695E695F0E0E658FE4FD1
:101C5000828190E04C2F477021E030E002C0220FDB
:101C6000331F4A95E2F782239323892B79F08C2F37
:101C70000E94C90A0E94EB0909C0ECE7F1E08191DA
:101C8000C817A9F321E0E238F207C9F78C2F0E94A8
:101C9000F40A9CCF80E28C0F883048F4C77081E052
:101CA00001C0880FCA95EAF70E94C4098FCFEBE5FF
:101CB000EC0FE33040F4F0E0ED5DFE4F808190E00A
:101CC000CF910C946F05E8E5EC0FE73150F4F0E0AC
:101CD000EE0FFF1FEA5DFE4F80819181CF910C9442
:101CE0005905C03F30F08C2F0E944B07CF910C94C8
:101CF0000906CF9108951F93CF93DF93182FC091BA
:101D00009F03D091A003893321F0C0919D03D0910E
:101D10009E03812F0E94CA0D209731F4812FDF91FD
:101D2000CF911F910C94640C8FE99FE00197F1F71C
:101D300000C000002197F0CF0F931F93CF93DF9344
:101D4000C42FD22FFC0182818823A1F04093A303EA
:101D50000E944D059093A2038093A103C77081E078
:101D600001C0880FCA95EAF7DF91CF911F910F91BB
:101D70000C945D0C1091A303141339C08091A1033E
:101D80009091A2030E943E05209197033091980301
:101D90008217930760F5C0E2CD0F1D17B9F080E2FE
:101DA000810F883040F4177081E001C0880F1A95C8
:101DB000EAF70E94560CC83048F481E09D2F9770D6
:101DC00001C0880F9A95EAF70E945D0C802F0E944F
:101DD0007B0EC83098F4D77081E001C0880FDA9587
:101DE000EAF7DF91CF911F910F910C94560CC770B9
:101DF00081E001C0880FCA95EAF7F3CFDF91CF9158
:101E00001F910F910895CF93DF93EC010E94C00CB6
:101E10009E01205E31092830310510F0209739F4F9
:101E20000E945D0C8C2FDF91CF910C94CA0D0E9403
:101E30004C0CF8CF662329F0209196042260209361
:101E400096049C013056211540E2340720F0305EA4
:101E50002115304108F499270C94030FDF92EF927B
:101E6000FF920F931F93CF93DF937C018B01D42EAE
:101E70008091180182FF8CC0C091D502D091D6020A
:101E8000CE15DF0521F0E114F10409F081C0809145
:101E900018018B7F8093180181FD73C08091D3025C
:101EA0009091D402A801481B590B81E020911601A2
:101EB000309117014217530708F480E08170F82E23
:101EC00080911801F0FA81F980931801FE0183E0F6
:101ED000F695E7958A95E1F7EE71FF27ED54FD4FF2
:101EE00020813181AE014F70552781E090E002C022
:101EF000880F991F4A95E2F7FF2009F444C0822B0E
:101F0000932B918380838091B20281FF08C08091DE
:101F1000180180618093180182E00E94BD098091C0
:101F2000B20285FF08C08091180180628093180179
:101F300080E20E94BD096F2DCE010E941A0FDD20A4
:101F400031F080919A0385FF02C086FF3BC08091EB
:101F50009D0390919E030E94C00D8091D5029091A7
:101F6000D6029C013056211540E2340720F0305E45
:101F70002115304108F499270E94F10C0E94A50A0E
:101F80001DC081E09BCF8095909582239323B9CF8C
:101F9000C701992797013056211540E2340728F0F0
:101FA000305E2115304108F0C7010E94F10C80918C
:101FB000D5029091D6028E159F0501F31093D4029D
:101FC0000093D302DF91CF911F910F91FF90EF907B
:101FD000DF900895AF92BF92CF92DF92EF92FF927F
:101FE0000F931F93CF93DF93EC018AE0A82E2881F3
:101FF000222309F48CC02130C9F599818A8191305E
:1020000021F422960E947B0E05C0923029F422967C
:102010000E94CA0D2196EBCF933021F422960E94A4
:10202000640CF8CF943011F02196F4CF229630E072
:1020300020E0AE014F5F5F4F8053990B8A309105CE
:1020400050F02150310930F38FE99FE00197F1F70B
:1020500000C00000F6CFA29EB001A39E700D112417
:102060009C01260F371F8981EA01E3CFE22FF0E0C0
:10207000E650FE4FB490822F86958695869590E027
:10208000FC01E651FE4FE4902770F12C022E02C0B5
:10209000F594E7940A94E2F731E0E322FF24FC018F
:1020A000E652FE4FC490D12C022E02C0D594C794A4
:1020B0000A94E2F731E0C322DD24FC01E653FE4F2F
:1020C000049110E002C0159507952A95E2F701707A
:1020D0001127E114F10419F081EE0E94CA0DC11418
:1020E000D10419F086EE0E94CA0D8B2D0E947B0E42
:1020F000CD2819F086EE0E94640CEF2819F081EECD
:102100000E94640C012B09F485CF8CE27BCFDF9118
:10211000CF911F910F91FF90EF90DF90CF90BF90E4
:10212000AF9008950F931F93CF93DF930FE713E0C2
:10213000C7EAD2E0CE010E94E330F80181938F011B
:102140002196C93CF2E0DF07A9F7C0E3D5E0FE0124
:1021500085919491009711F0FC0109952896F5E07E
:10216000C83CDF07A1F7DF91CF911F910F91089530
:102170000F931F93CF93DF93843030F5653020F5B4
:10218000403110F520E2629F8001112450E0440F9D
:10219000551F040F151F30EA839F000D111D1124D8
:1021A000C80187960E94E330C82FD0E0DC2FCC27EF
:1021B000C80188960E94E3309E01282BC901DF9157
:1021C000CF911F910F91089590E080E0F8CF462FB6
:1021D0002091B0023091B102232B91F47E3F39F46B
:1021E0006E3F71F48091AE029091AF0208958430F9
:1021F00038F4753028F4603118F4672F0C94B81057
:1022000090E080E00895CF92DF92FF920F931F93AA
:10221000CF93DF936C010091950480910D02082B00
:10222000C7E0D0E010E0FC2EC8010C2E02C095954E
:1022300087950A94E2F780FD0CC02197A0F7F12C56
:102240008F2DDF91CF911F910F91FF90DF90CF9055
:102250000895B6018C2F0E94E7100E940F08019785
:1022600061F3EECFCF93DF93EC010E940311BE0127
:102270000E94E710DF91CF910C940F08FC0186813A
:102280009781009721F00E940F080C94AD0B80817C
:1022900091810E943211F9CF1F93CF93DF9300D029
:1022A00000D00F92CDB7DEB749835A8389819A81D6
:1022B0006623B9F02223A9F00E940311182F682F7A
:1022C00089819A810E947E0B69817A81812F0F908A
:1022D0000F900F900F900F90DF91CF911F910C9462
:1022E000E7100E94520B182FEFCFFC01262F86819A
:1022F0009781009739F44081518162817381848193
:102300000C944C11089583E290E00E94E3308832EF
:1023100089F484E290E00E94E3308E3159F485E242
:1023200090E00E94E33091E0803609F090E0892F40
:102330008170089580E0FCCFCF9384E090E00E940C
:10234000E330C82F82E290E00E94E330982F8C2F78
:10235000CF9108950F931F93CF93DF930FE713E06F
:10236000C7EAD2E0CE010E94E330F80161918F010B
:10237000681719F0CE010E94F1302196C93CF2E0B5
:10238000DF0781F7DF91CF911F910F910895EFE75C
:10239000F3E0128E138E8FEA90E09183808385E0C4
:1023A000848F88E893E1938382834CE251E05583E4
:1023B000448322E330E03783268385E090E09187F1
:1023C00080878AE090E09387828764E170E0758778
:1023D00064875787468744E650E0518B408B48E03E
:1023E00050E0538B428B48E250E0558B448B378B47
:1023F000268B28EC30E0318F208F158E978F868FBB
:1024000080E590E091A380A30E94AA110C94921001
:10241000CF93DF93C9E6D3E060E0CE010E94F130B4
:102420002196C11584E0D807B9F7DF91CF910895BF
:102430000F931F93CF93DF938901843048F5653064
:1024400038F5403128F521153C4531F42091AC0296
:102450003091AD02232BE1F090E2699FE00111245D
:1024600050E0440F551FC40FD51F90EA899FC00D3F
:10247000D11D1124612FCE0187960E94F130602F6B
:10248000CE018896DF91CF911F910F910C94F1307E
:10249000DF91CF911F910F910895CF93C82F6FEFC8
:1024A000811168E283E290E00E94F1306FEFC11188
:1024B0006EE184E290E00E94F1306FEFC11160E6BE
:1024C00085E290E0CF910C94F130CF93C0916204FB
:1024D000C2FB992790F9981799F080FBC2F9C09335
:1024E00062046091610484E090E00E94F1306C2FFE
:1024F00082E290E00E94F13082E0CF910C94040CD3
:10250000CF9108957F928F929F92AF92BF92CF9278
:10251000DF92EF92FF920F931F93CF93DF93CDB78C
:10252000DEB764970FB6F894DEBF0FBECDBFA090A4
:10253000AC02B090AD0281E090E09093AD02809348
:10254000AC028AEEC82E83E0D82E00E0760110E0BF
:1025500015C0F40125913491472D612F802F0E94E1
:10256000181282E0880E911C7394E0E17E12F1CF84
:10257000F0E2EF0EF11C1F5F153019F04701712CCE
:10258000E8CF0F5F80EAC80ED11C0430F9F60E9434
:10259000C7111A8219821C821B821E821D82188614
:1025A0001F8288EC90E09A87898709EC12E04AE064
:1025B00050E0B801CE0101960E941531065F1F4F11
:1025C0000931E3E01E0799F77E01FBE0EF0EF11CF5
:1025D0008AE0F70111928A95E9F74AE050E0B801E4
:1025E000C7010E941531065F1F4F0936F3E01F0730
:1025F000A1F7B092AD02A092AC0264960FB6F89427
:10260000DEBF0FBECDBFDF91CF911F910F91FF9025
:10261000EF90DF90CF90BF90AF909F908F907F9082
:10262000089580E00E944D1260E086E290E00E94F2
:10263000F1300E9482120E94081281E00C944D1227
:102640009B01883070F49AE0899FB0011124675390
:102650007D4F4AE050E0C9010E94D33090E080E015
:1026600008958FEF9FEF08958F929F92AF92BF9240
:10267000CF92DF92EF92FF920F931F93CF93DF934E
:10268000CDB7DEB72A970FB6F894DEBF0FBECDBF29
:1026900006EA13E0F12CE12C88ECC82E87E2D82E54
:1026A00092EFA92E97E2B92E21E3822E27E2922EF5
:1026B000F801D182C082B382A28295828482F58A97
:1026C000E48ABE016F5F7F4F8E2D0E942013892BFD
:1026D00029F489859A85F801938B828BFFEFEF1A95
:1026E000FF0A0A5E1F4F88E0E816F10409F72A96F0
:1026F0000FB6F894DEBF0FBECDBFDF91CF911F9113
:102700000F91FF90EF90DF90CF90BF90AF909F9090
:102710008F900895CF92DF92EF92FF920F931F93C5
:10272000CF93DF93CDB7DEB72A970FB6F894DEBF0D
:102730000FBECDBFECE5F2E080E5DF011D928A958A
:10274000E9F7EBE3F3E088E3DF011D928A95E9F70F
:102750008CE5C82E82E0D82E7F0109E113E0F70155
:10276000D182C0824AE050E0B801CE0101960E94B9
:10277000D33088E0FE013196D60101900D928A9502
:10278000E1F789859A85D70113969C938E931297CA
:10279000BAE0CB0ED11CE7E0EE0EF11C065F1F4F36
:1027A0000936F3E01F07D9F62A960FB6F894DEBF74
:1027B0000FBECDBFDF91CF911F910F91FF90EF9092
:1027C000DF90CF9008951092B20280911A01ECE749
:1027D000F1E0882359F08091610487FF07C08EE102
:1027E000DF011D928A95E9F70C94CC0B86E0F8CFB7
:1027F0001F93CF93DF93CDB7DEB7AA970FB6F894A8
:10280000DEBF0FBECDBF8CE894E02091F100DC016B
:102810002D93CD01B4E084399B07B9F780918D04E5
:10282000833009F472C0B8F4813009F449C08230B1
:1028300009F4B3C08091E80083FF96C280918C04B4
:1028400090918D049A3008F08FC2E92FF0E0E35C9C
:10285000FE4C0C94A0308A3009F48EC08B3009F401
:1028600071C0893039F780918C04813219F78091D9
:10287000900490919104009711F00297D9F68091FD
:10288000E800877F8093E8008091E80082FF38C0ED
:102890009091F3008091F200029731F48091F10061
:1028A000813011F0863021F48091F100809368042A
:1028B0008091E8008B778093E8000E942A04BACFC9
:1028C00080918C04813A09F0B5CF8091E800877F30
:1028D0008093E8008091900490919104892B61F499
:1028E00060E289E694E070E00E94DC048091E800F8
:1028F0008B778093E8009ECF60E090E080E0F3CF9C
:10290000809194048111C0CF95CF80918C04813A3D
:1029100009F090CF8091900490919104892B09F057
:1029200089CF8091E800877F8093E8008091E8005C
:1029300080FFFCCF80911A018093F1008091E80024
:102940008E77B9CF80918C04813209F073CF80915A
:10295000900490919104892B09F06CCF8091E8004C
:10296000877F8093E8000E942A0480918E048093E0
:102970001A010E94E3135ECF80918C04813209F02A
:1029800059CF8091E800877F8093E8000E942A0455
:1029900080918F04809367044DCF80918C04813A9D
:1029A00009F048CF8091E800877F8093E80080910C
:1029B000E80080FFFCCF80916704BECF803899F09B
:1029C000823809F0D1C1809190048F70873008F06F
:1029D000CBC18093E9008091EB0085FB882780F9CB
:1029E0001092E90006C08091890490918A049111A7
:1029F00082609091E800977F9093E8008093F100C7
:102A00001092F1008091E8008E77AAC1882309F422
:102A100098C1823009F0A8C180918E0481119BC1B8
:102A2000809190048F702FEF280F263008F09CC102
:102A30008093E9002091EB0020FF8DC1933031F4A9
:102A40008091EB0080628093EB0085C19091EB0058
:102A500090619093EB0021E030E001C0220F8A9555
:102A6000EAF72093EA001092EA008091EB00886078
:102A7000EACF811179C110918E041F778091E30014
:102A80008078812B8093E3008091E800877F80939A
:102A9000E8000E942A048091E80080FFFCCF80912A
:102AA000E30080688093E30082E0111183E080936B
:102AB00094045AC18058823008F056C120918E0487
:102AC00030918F042C3DE3E03E07A1F583E08A833B
:102AD0008AE289834FB7F894DE01139620E03EE046
:102AE00051E2E32FF0E050935700E49120FF03C040
:102AF000E295EF703F5FEF708E2F90E0EA30C0F00C
:102B0000C7968D939D932F5F243159F74FBF8091C6
:102B1000E800877F8093E8006AE270E0CE010196CA
:102B20000E94DC048091E8008B778093E8001CC150
:102B3000C096E7CF8091900490919104432F552740
:102B40004330510509F44AC078F54130510509F484
:102B500085C08BE590E0E2ECF5E04230510509F0EC
:102B600003C12091E800277F2093E8002091920480
:102B7000309193048217930708F49C0140E02115DB
:102B8000310509F070C041116EC08091E80082FDEE
:102B9000C9CF80919404882329F2853019F280915D
:102BA000E80083FFF2CFBECF4132510509F447C0A0
:102BB0004232510509F0D8C08330910508F0D4C0E5
:102BC000FC01EE0FFF1FE459FE4F0190F081E02D54
:102BD00087599E4FDC018C9190E01DC03327213036
:102BE0003105E9F02115310579F022303105F9F090
:102BF0002330310509F0B8C0EFE2F6E0E4918E2F02
:102C000090E0EFE2F6E007C0E9E7F6E0E4918E2F0E
:102C100090E0E9E7F6E0009709F4A6C0A2CFEDE561
:102C2000F6E0E4918E2F90E0EDE5F6E0F4CFEDE4F0
:102C3000F6E0E4918E2F90E0EDE4F6E0ECCF833007
:102C4000910508F091C0880F991FFC01EE58FE4FC6
:102C50000190F081E02D89E090E083CF82E190E067
:102C6000EDE1F6E07ECF80919404882309F45ACFF9
:102C7000853009F457CF8091E80083FD53CF8091D0
:102C8000E80082FD82CF8091E80080FF78CF9091AC
:102C9000F3008091F2002115310519F0883091057B
:102CA00050F041E0089709F040E08091E8008E770D
:102CB0008093E80064CF44914093F1003196215015
:102CC00031090196E8CF803809F04EC08091E800C4
:102CD000877F8093E80080918B048093F10092CEEF
:102CE000811142C010918E041230F0F58091E800FD
:102CF000877F8093E80010938B040E942A0411239D
:102D000011F084E005C08091E30087FDFACF81E0F7
:102D10008093940442E061EC81E00E94490442E225
:102D200061EC84E00E94490442E261EC82E00E948E
:102D3000490442E260EC83E00E94490480919404DB
:102D400013C080918E04813079F481E0933009F0D2
:102D500080E080938A041092E9008091E800877FE8
:102D60008093E8000E942A048091E80083FF0AC053
:102D70008091E800877F8093E8008091EB0080627B
:102D80008093EB00AA960FB6F894DEBF0FBECDBFBE
:102D9000DF91CF911F9108956AEE7EEF90E080E081
:102DA0000E940F3160E082E090E00E94F13060E02C
:102DB00083E090E00E94F13010920D0260E084E028
:102DC00090E00E94F13060E082E290E00E94F130F9
:102DD00060E085E090E00E94F13060E086E090E005
:102DE0000E94F1306FEF87E090E00E94F13040E008
:102DF00050E0BA0188E090E00E94033160E08DE08D
:102E000090E00E94F13040E050E0BA0188E190E0AB
:102E10000E94033160E087E190E00E94F13040E0E1
:102E200050E0BA018CE190E00E94033170E060E074
:102E300080E290E00E940F3140E050E0BA0188E16A
:102E400090E00E94033180E00E944D120E94111315
:102E500040E050E0BA018FE090E00E94033140E092
:102E600050E0BA0183E190E00C9403318F929F927D
:102E7000AF92BF92CF92DF92EF92FF920F931F9388
:102E8000CF93DF9300D000D0CDB7DEB77C01DC015B
:102E900013964D915C91149711966C9111978C91AA
:102EA0000E949105811179C061E0C7010E947511EE
:102EB0008C01F7018281811111C0D70112968C918A
:102EC000811149C00031FFE51F0709F4EEC001314F
:102ED0002FE5120709F009C782E0E8C080910001E0
:102EE00090910101019649F366EAC62E63E0D62E61
:102EF000B12CA12C9924939480910001909101010F
:102F00008A159B05D4F2F60186818823E9F0818534
:102F100092850817190739F48091A4039091A503AD
:102F20000817190789F0D6011F969C921F971C96C7
:102F30001C930E931B97C6010E94840AC601069635
:102F40000E943F0A10929604BFEFAB1ABB0AE6E15B
:102F5000CE0ED11CD1CF980122513F4520313105F1
:102F600008F0B9C68FEF93E00E94E3305EEED52EF5
:102F7000D00E09E613E0882369F18091080287707A
:102F800061F0D70112968C91882339F08091620408
:102F900082FD03C082E00E94040C0F900F900F90FE
:102FA0000F90DF91CF911F910F91FF90EF90DF90E5
:102FB000CF90BF90AF909F908F9008950115F4E04F
:102FC0001F07D9F2C8010E94E330811101C0DA94D1
:102FD0000F5F1F4FD110F2CF19821A821B821C8201
:102FE000CC24CA9448012FEF821A920AC8010E9489
:102FF000E33089831A82882309F4BFCF813009F036
:1030000048C0580132E0A30EB11CC4010E94E33055
:10301000982E8A83882309F4B0CFC5010E94E3303B
:10302000D82E8FEF890D833068F4580143E0A40E49
:10303000B11CDB82DD2021F0CE0101960E94EA0F57
:103040008501D0CF54E09512FBCF580184E0A80E43
:10305000B11CC80103960E94E330DD2009F48DCF36
:10306000882309F48ACF8150990BC89E9001C99E8C
:10307000300D1124AD2DA150BB0BCD01820F931F3C
:103080000197F0F2EFE9FFE03197F1F700C000009F
:10309000F7CFCE0101960E94EA0F5401D1CF81E013
:1030A0000E94200C0E94ED0B68CF81E00E94F80B7B
:1030B000F9CF82E0F5CF4FEFC416D10411F008F03C
:1030C00020C662E572E08C2D0E942013892B29F521
:1030D00086E18C9DF0018D9DF00D1124EA55FC4F89
:1030E0008681813009F062C0809152029091530232
:1030F000892B99F08091540290915502892B69F0A7
:1031000080915602909157022091580230915902B5
:10311000822B932B892B09F453C08091000190914D
:1031200001018C159D0524F4D0920101C09200018B
:10313000F701828196E19C9D50019D9DB00C112468
:1031400095012A553C4F6901D90150968C935097AF
:10315000928116968C911697992309F43FC01A967E
:103160001C930E9319978F5F16968C930E944D05B2
:10317000F6019687858780910C028783809196045B
:103180009091B202892B80870190F081E02D3097D9
:1031900041F0D60154966D917C91C50184559C4FA8
:1031A00009951093A5030093A403ABC5823009F0E1
:1031B000B4CF8091560290915702892B09F4ADCF7C
:1031C00026E12C9DC0012D9D900D11248A559C4F08
:1031D000DC0150961C920E94840A9FCF882309F438
:1031E00090C5F9018189882309F48BC5C5018455EF
:1031F0009C4F0E943F0A85C5809118018160809391
:103200001801ADC5809118018E7F809318010E942E
:10321000A50AA5C5809118018F7E013E110531F0E8
:10322000053E1105C9F4809118018F7D8093180126
:103230008091180180FFA2C5D70112968C910832A7
:10324000110528F50E31110508F074C00430110580
:1032500080F581118FC592C5C8019056811540E255
:10326000940720F0905E8115904110F7809118012D
:1032700082FF84C580919C0381FD80C521E132E0FD
:1032800040E0B60190E080E00E942E0F77C5093340
:10329000110558F40D32110518F40B321105C9F659
:1032A00090919A0392FDD5CF08C004361105C1F361
:1032B000D0CF90919A0394FDCCCF882309F4A1C07C
:1032C0009091B20280910C02282F292B322F3D7F42
:1032D000B1F11092D6021092D50230919A0331FDCD
:1032E0002EC0F80143E0F695E7954A95E1F7EE71B7
:1032F000FF27ED54FD4F98012F70332781E090E0B8
:1033000002C0880F991F2A95E2F780959095208139
:103310003181822393239183808360E0C8010E94DE
:103320001A0F80910C028D7F0E94A20982E00E94F8
:10333000040C23CE90919A0393FD8BCFBECF38E03F
:10334000F701A1E1B2E001900D923A95E1F71092F8
:1033500013021092150210921402A090D502B090A0
:10336000D6020A151B05B1F530919A0335FF32C01C
:103370004091180141FB992490F841FF02C036FFAB
:1033800029C04091D3025091D402B601641B750B41
:10339000409197035091980364177507D8F491FFF3
:1033A00008C08091180180618093180182E00E941A
:1033B000BD098091B20285FF08C08091180180622A
:1033C0008093180180E20E94BD09692DC5010E9409
:1033D0001A0FD3CD9091180121FB91F99093180108
:1033E0008D7F0E94A2091093D6020093D502D0923D
:1033F000D402C092D3028091180184608093180196
:1034000095CF970140E0B601C8010E942E0FB5CDBF
:10341000053F4CE5140709F467C008F45FC0063F98
:103420008CE5180709F466C0D70112963C91332346
:1034300009F4C3C41092A3030330BDE51B0708F0D1
:1034400065C00A3FECE51E0730F4C80182509C4578
:10345000449708F060C00E949C119093620480938E
:10346000610400312CE5120709F461C108F0DDC0E8
:1034700008304CE5140709F448C108F0AFC0043027
:103480008CE5180709F433C108F095C00230ACE5AB
:103490001A0709F426C180916104826003301C453B
:1034A00009F422C1609161041091620484E090E00B
:1034B0000E94F130612F82E290E00E94F1300E9480
:1034C000E3135BCD07E225EE45EE68ED7CE571C4C4
:1034D00006E221EE40EE63EF7CE56BC407E225EEE9
:1034E00044EE64EF7CE565C406E221EE42EE65EF52
:1034F0007CE55FC407E225EE46EE66EF7CE559C445
:1035000008E221E045EE69ED7CE553C40136FDE5B6
:103510001F0709F4A0CF06315CE5150709F451C473
:103520000A354DE5140709F453C108F02FC1011500
:103530008CE5180709F43CC10E3D1C4509F445C152
:10354000F70186819781009709F446C10E940F0810
:10355000182F092FF701D280C580C2943FE0C32203
:10356000809108028770C1F0AD2CDD20B1F0892F69
:10357000807F803421F080E2810F883068F0809174
:10358000620482FD09C082E00E94040C809108025E
:103590008770AA24A3948111A12C902E92942FE0DD
:1035A0009222FBE0F91508F4A4C1E92DF0E0E95BF3
:1035B000FE4C0C94A0308091610480610630ECE5F3
:1035C0001E0709F491C080916104886007301C4592
:1035D00008F48AC080916104806286C08091610491
:1035E0008D7F0C302CE5120709F47EC070F48091B9
:1035F00061048C600A304CE5140709F475C008F4C6
:1036000088C0809161048E7F6FC00E308CE51807F2
:1036100009F485C0809161048B7F0F301C4508F44C
:1036200063C0809161048F7E5FC00C3FACE51A07D8
:1036300009F479C068F50431ECE51E0709F48BC084
:1036400080F402312CE5120709F475C08091610401
:103650008F7B03311C4508F447C080916104837F50
:1036600043C00A3F4CE5140709F445C008F049C0BF
:1036700005311C4509F016CF8091610482FB992722
:1036800090F921E0922790FB82F990FB83F92CC0FE
:1036900001159DE5190709F454C088F4809162046E
:1036A00083600E3FBCE51B0749F1809162048D7F6A
:1036B0000F3F1C4518F1809162048C7F1FC00230BF
:1036C000FDE51F0709F456C008F44EC001361D453C
:1036D00009F0E8CE90916104892F8F7E94FF80617C
:1036E00003C080916104816080936104DBCE80918E
:1036F00061048460F9CF80916204816080936204E8
:10370000D1CE809162048260F9CF8091610480649F
:10371000EBCF0E94E313809161048068E5CF809134
:103720006104877FE1CF809162048E7FE7CF809133
:1037300061048F7DD9CF0E94E313809161048F775C
:10374000D3CF80916204982F909591708E7F892BB2
:1037500090FB81F9D3CF0E94E31390916104892FEC
:1037600097FB87F98058C0CF61E08EE090E00E941F
:10377000F13098CE60E0F9CF80919A01811104C0B8
:1037800089E20E94C90A48C385E3FBCF0B35ADE54A
:103790001A0701F10C351D4509F0D2CE8091620463
:1037A00082FB882780F991E089270E946512C8CEA4
:1037B0000E94E313EFEFF4E32CE0E150F0402040EF
:1037C000E1F700C000000E949C0D0E94CC16D5CBF2
:1037D00081E0EBCF80E0E9CF8281008111818823F5
:1037E00069F0C8010E940311D82E682FC8010E94F9
:1037F0007E0BB8018D2D0E94E710A8CEC8010E9453
:10380000520BD82EF6CF202F2F70B22E802F807F14
:1038100019F0B29490EFB922DD20A9F0BB2059F045
:1038200080E2810F883010F0111107C08B2D0E94AB
:10383000C4090E94EB09812F5AC080919604B82ACE
:10384000B0929604F6CF812F0E94640CBB2009F43D
:1038500050C080E2810F883010F0111104C08B2D10
:103860000E94BD0903C08B2D0E94B6090E94EB097E
:1038700040C0302F3F70B32E802F807F803219F0F0
:10388000B29480EFB822112321F1113009F4A6C0BF
:10389000DD2009F4AFC0CC2009F47FC020E0D701BF
:1038A0004C9111965C91119712966C911297139608
:1038B0007C91139714968C910E944C1180919C03DB
:1038C00081FDB9CFF701858180FFB5CF8F708583EA
:1038D00064C08091620482FF42C0DD20D1F1BB2030
:1038E00029F08B2D0E94C4090E94EB0980E00E9400
:1038F000CA0DA92DA850BB0B149720F40E94850572
:103900000E94BA0C812F902F0E94AD0B8111C4C16F
:1039100010929C0110929B01AA20B1F080910802A4
:1039200080FD12C0D70112961C92859585958595CC
:103930000E94200CC7010E943617809108028595CD
:10394000859585950E94F80B60E0C7010E9475116E
:1039500024CB80E00E94640CBB2059F280CFDD2094
:1039600001F1C11004C080910C028B2917C041E005
:10397000C41206C080910C028B290E94A209B9CF03
:1039800080919B03823078F3C812EDCF0E94970993
:1039900080910502B812B09205028B2D0E945D0C39
:1039A000A8CFC11006C00E9497098B2D0E94560C0B
:1039B000A0CF80919B0351E0C5120BC0823008F468
:1039C00098CF8091B2028B2109F493CF0E94C30A51
:1039D000EACF823040F3C812E6CF8BCFDD2029F04A
:1039E00085E08C1508F485CFD8CF94E09C1508F4B9
:1039F00080CFDBCFCC20C9F280919F039091A003B0
:103A0000193321F080919D0390919E030E94C00D77
:103A1000812F0E94640C6DCF802F869586958370D0
:103A200069F0813009F065CF812F902F9370D1100C
:103A300002C090E080E00E9459055BCF812F902F5B
:103A40009370D11002C090E080E00E946F0551CFCA
:103A5000812FDD2029F00E944B070E94090649CFE3
:103A60000E943006FACF802F837091F5D11041CF9C
:103A7000412F429546954770440F440F812F8F7018
:103A8000042E01C0880F0A94EAF7212F207114FF39
:103A900007C02FE030E001C0220F4A95EAF72095D9
:103AA000302F369536953370323069F050F44091AE
:103AB0000D02313029F0822B84230E94410C19CF52
:103AC000842B822BFACF282B80910D028227F5CFF1
:103AD0008695DD2011F0802F8170882309F409CFAD
:103AE000412F429546954770440F440F812F8F70A8
:103AF000042E01C0880F0A94EAF7212F207114FFC9
:103B000007C02FE030E001C0220F4A95EAF7209568
:103B1000302F369536953370323069F050F440913D
:103B20009504313029F0822B84230E94E90BE1CEE9
:103B3000842B822BFACF282B809195048227F5CFF6
:103B4000F02FFF70BF2EDD2029F08F2F0E94200C58
:103B5000812F24CF812F0E94560C8B2D0E94F80BB1
:103B6000C8CE123F89F160F4103FB9F0113F81F0E7
:103B7000DD2009F48CC0C1105ECE802F8F7128C06B
:103B8000133F49F1143FA1F78091620482FF2FC0D7
:103B9000802F8F71DD2011F31BC0DD2081F024E028
:103BA0002C1508F4A6CE202F2F7181E090E001C0E3
:103BB000880F2A95EAF7909195048927B6CF35E0CA
:103BC0003C1508F496CEEFCF802F8F71D110C6CF61
:103BD0000E94200C8ECE80E0DD2009F4A6CF81E08B
:103BE000902F9F7101C0880F9A95EAF79ECF809120
:103BF0009B038230A0F180910502DD20F1F00E944C
:103C0000BD09809108028770843041F40E94CA097E
:103C1000802F8F710E94F80BA12C6BCE80919B039B
:103C2000C816D0F7402F4F71B42E842F0E94200C5D
:103C300063E08B2D0E942B0CEFCF0E94C409809172
:103C40009B03C81640F00E94CA090E94C30A64E0A0
:103C5000802F8F71EFCF81E00E94040CDDCFDD203B
:103C600059F0502F5F71B52E852F0E94200C63E014
:103C70008B2D0E942B0C3DCE81E00E94040C81E034
:103C80008C1508F036CE82E00E94040C32CEC110B2
:103C9000B3CE802F8F7162CFDD2019F0C11038CEE6
:103CA0003BCEC11035CE20E0F701408151816281C9
:103CB000738184810E944C1180919C0383FF28CEE4
:103CC00080919B0190919C01029709F021CE812F58
:103CD0000E947B0E1DCE0031BFE51B0709F4DFC932
:103CE0000131EFE51E0709F4E4C9680127E5D21A9E
:103CF000882309F4E0C93FEFC316D10409F008F4A2
:103D00000CCA80919A0380FF39C00E944D056C0156
:103D1000D70112968C91882309F47CCA80911801EE
:103D200082FF08C021E132E040E0B60190E080E08F
:103D30000E942E0F0B31BCE51B0709F45DCA0C3144
:103D4000ECE51E0709F45ECA90911801892F8E7F59
:103D500090FF81600A31FCE51F0709F456CAC801CB
:103D60009056811520E2920728F0905E81159041CF
:103D700008F05ECA1092D6021092D502033FBCE54D
:103D80001B0709F4A5CB08F043CB083DFCE51F0752
:103D900009F498CB093D2CE5120709F4B1CB073D96
:103DA0003CE5130709F040CB06E221EE41EE67ED5A
:103DB0007CE5C7010E949C0EE0C806311C4509F055
:103DC000BFCB8091B202982F9A7A2091990320FF5D
:103DD00004C0482F447409F090E021FF04C0482F2C
:103DE000417109F090E022FF04C0482F487809F0A3
:103DF00090E023FF03C0827209F090E0332309F4BE
:103E0000BBCC81E0911101C080E080939A0189E2EE
:103E1000911185E30E94F40A0E94EB09AEC8CF928B
:103E2000DF92EF92FF920F931F93CF93DF938091D6
:103E3000C001807F31F48091BD01C09104028111E5
:103E40000BC0DF91CF911F910F91FF90EF90DF900A
:103E5000CF9008952196C7708091C3018C1789F384
:103E6000F090BB01E090BC01C090BE01D090BF01BA
:103E7000A6016E2D8F2D0E949105D0E08111EACF11
:103E80008E0183E0000F111F8A95E1F7F801EC53D2
:103E9000FE4F81818E11DECF80818F11DBCF828139
:103EA0008111D8CFE380F480EC18FD0860E08BEB43
:103EB00091E00E9475118091970390919803E81604
:103EC000F90640F68091C0018F7080618093C00137
:103ED000F801E753FE4F80818F70806180838BEB08
:103EE00091E00E943617DF91CF911F910F91FF90C3
:103EF000EF90DF90CF900C94480B3F924F925F92DF
:103F00006F927F928F929F92AF92BF92CF92DF92E9
:103F1000EF92FF920F931F93CF93DF93CDB7DEB74E
:103F200065970FB6F894DEBF0FBECDBF8C0185E05C
:103F3000F801DE01519601900D928A95E1F7D801C2
:103F40004C9011965C9011971296EC9012971396E4
:103F5000CD90DC9060E08BEB91E00E9475118BEBD3
:103F6000A82E81E0B82E8090BE019090BF01A401E0
:103F70006091BC018091BB010E9491058111CAC171
:103F8000F090BD01F601E819F9094F0160E0FF204A
:103F900009F46DC1C5010E9475116090970370907E
:103FA00098033090C0018614970408F013C1409123
:103FB000BE015091BF01B090BB01A090BC01832D08
:103FC000807F6A2D09F0ADC08B2D0E949105FE2CDB
:103FD00081113BC0D80111968C9111978A1135C07F
:103FE0008C918B1132C02091C1013091C201169683
:103FF0008D919C912817390741F5E11026C0832D3A
:104000008F7080618093C0018BEB91E00E94361726
:104010008091C001F80185838F2D65960FB6F894C5
:10402000DEBF0FBECDBFDF91CF911F910F91FF90EB
:10403000EF90DF90CF90BF90AF909F908F907F9048
:104040006F905F904F903F900895F4EF6F16F1E0FE
:104050007F0620F480919C0380FF21C0A601652D7E
:10406000842D0E949105811118C081E08E2580FF6A
:1040700016C04E2D652D842D0E94280B882379F0C3
:104080008BEB91E00E94361788E0EBEBF1E0DF016B
:104090001D928A95E9F7F12CBFCF80E0E8CFA60109
:1040A000652D842D0E949105811124C081E08E250B
:1040B000B82FB170CB2E80FF2BC04E2D652D842DD7
:1040C0000E94280BD82E811123C0498A5A8A8989D7
:1040D0009A890E943211292F22952F70223060F088
:1040E000243088F49F7061F0F8019581907F41F44D
:1040F000FD2C92CF80E0DCCF9F7011F08823C1F3BC
:10410000805E8830A8F3C8010E943617DC2CF0CFFF
:10411000EE2009F481CF8091C00181608093C001BD
:10412000BACF8B2D0E949105811124C0D801119620
:104130008C9111978A111EC08C918B111BC02091FC
:10414000C1013091C20116968D919C911797281745
:10415000390781F4E1100EC015963C92C8010E9407
:10416000361788E0F801ABEBB1E001900D928A952B
:10417000E1F752CFC8010E943E11882339F1EE20A9
:1041800029F18091C0018032A0F02091BB013091D3
:10419000BC013A8729871B86DD86CC868E87809175
:1041A000C1019091C201988B8F87CE0109960E9420
:1041B000361788E0F801ABEBB1E001900D928A95DB
:1041C000E1F70E940F1FFF24F39426CFC8010E943D
:1041D0003617F9CF832D807F09F452CF9090BB0121
:1041E0008090BC014091BE015091BF01682D892D86
:1041F0000E94910581111CC0F8018181881118C0AD
:104200008081891115C02091C1013091C201868140
:1042100097812817390761F4E1100AC03582C80177
:104220000E94361788E0D5011D928A95E9F7F4CEF1
:10423000C8010E943E11882349F2EE2039F2809194
:10424000C001803208F4B5CF2091BB013091BC0190
:104250003A8329831B82DD82CC828E838091C101C7
:104260009091C20198878F83CE010196A0CF8BEBEE
:1042700091E00E94751180919703909198038816A0
:10428000990680F6FE2CEE2009F4A0CFE090BB0149
:10429000D090BC014091BE015091BF016D2D8E2D7B
:1042A0000E949105811128C0F80181818D1124C0DF
:1042B00080818E1121C02091C1013091C20186817F
:1042C000978128173907C1F480919C0382FD49CF5B
:1042D0009091C00190FD45CF907F09F442CF80912D
:1042E000C0018583903F09F439CF982F907F905F6C
:1042F0008F70892B858332CFC8010E943E118111B6
:1043000058CF8091C00181608093C001C8010E9494
:10431000361782CEEE2009F459CFC8010E943E1113
:10432000F82E882309F452CF88E0F801ABEBB1E016
:1043300001900D928A95E1F78091BB019091BC01AB
:104340000E9432110E940F1F67CECF93DF93CDB72B
:10435000DEB760970FB6F894DEBF0FBECDBF2987DA
:104360003A874B875C876D877E878F87988BCE01D6
:1043700009960E947D1F81112FC088E0FE013996A9
:10438000DE01119601900D928A95E1F74C855D85CD
:104390006A8589850E94910581111EC0A091C30183
:1043A000B0E0CD010196877099272091040228176B
:1043B000190609F193E0AA0FBB1F9A95E1F7AC53D8
:1043C000BE4F98E0FE01319601900D929A95E1F76B
:1043D0008093C3010E94480B809104029091C30115
:1043E000891317C060960FB6F894DEBF0FBECDBF1D
:1043F000DF91CF9108950E94E3131092C3011092B0
:10440000040288E0EBEBF1E0DF011D928A95E9F709
:10441000E3CFB8E08B9FC00111248C539E4F0E94C4
:104420007D1F8823F9F28091040290E00196877045
:10443000992780930402D0CFEF92FF920F931F939E
:10444000CF93DF938091DA02882361F0C091D90283
:104450008CE0F82E8091DA02C81758F01092DA0238
:104460001092D902DF91CF911F910F91FF90EF90A1
:104470000895EE24E394EC0EE092D9020C2F10E0A4
:10448000CF9DE0011124C552DD4F4B815C816981D4
:1044900088810E94910581111BC08E819F81892B8B
:1044A00021F488859985019651F4288139814A81C2
:1044B0005B816C817D818E819F810E94A521F09E10
:1044C000F001F19EF00D1124E552FD4F148213828C
:1044D000CE2DC0CF10927E0310927D031092190151
:1044E00080917C0380937B030E94CA050C941C225C
:1044F0003F924F925F926F927F928F929F92AF9274
:10450000BF92CF92DF92EF92FF920F931F93CF93C0
:10451000DF93C0917B0397E0892E01E010E02CE04F
:10452000322E3EEF932E4424439480917C038C13CF
:1045300015C00E941C22DF91CF911F910F91FF9017
:10454000EF90DF90CF90BF90AF909F908F907F9033
:104550006F905F904F903F900C94CA05D0E0FE01A1
:10456000EE0FFF1FED58FC4F80819181889ED00196
:10457000899EB00D1124A55CBC4F14962C91149704
:10458000211157C05090DA02EBEDF2E030E020E06C
:10459000712C5D01251508F04AC0E284F384D50131
:1045A000CD90DC906FEF7FEF612C462D50E0DA016B
:1045B000AA0FBB1FAC0DBD1D0D90BC91A02D109777
:1045C00031F0EA16FB0609F4BA016394EECF6F3FAF
:1045D0007607A1F1D80102C0AA0FBB1F6A95E2F7C6
:1045E0007A2AB80102C0660F771F6A94E2F7AB011E
:1045F0004150510974161506F9F4329EF001339EAC
:10460000F00D1124E552FD4F889ED001899EB00D1A
:104610001124A55CBC4F12962D913C9113973783C2
:104620002683908291829187808715964C920E9472
:104630009C052196C37079CF148213822F5F3F4F60
:104640003C96A8CF4F925F926F927F928F929F92EB
:10465000AF92BF92CF92DF92EF92FF920F931F9390
:10466000CF93DF93CDB7DEB72A970FB6F894DEBFAE
:104670000FBECDBF8E010F5F1F4F8AE0F801119270
:104680008A95E9F794E5E92E91E0F92E680129E58C
:10469000422E21E0522E66246394712C49E6842E2A
:1046A00041E0942EF70181917F018F3F09F445C0CD
:1046B000F894E82FE295EF70F0E021A18F70A3014C
:1046C00002C0440F551F8A95E2F7CA01922F982B1A
:1046D00091A392A18095892382A3789400C0E9E5F3
:1046E000F1E021E030E0B12CA12C41914F3F09F4E1
:1046F0007EC0A42FA295AF70B0E090968C9190E010
:104700004F7002C0959587954A95E2F780FD6FC07E
:10471000C901A82AB92A220F331F8E169F0629F72E
:10472000F701319780818F3F11F00E94B50750EA61
:104730005A95F1F7F601B182A082F2E0CF0ED11CBA
:104740004E145F0409F0AECF4AE050E0B80189E1B1
:1047500092E00E94B630DD24D394009709F4D12C66
:10476000892B09F447C08AE0F801A9E1B2E0019081
:104770000D928A95E1F781E0809310020E944D0529
:1047800090930F0280930E0280910E0290910F027F
:104790000E943E05059790F18091190290911A02AE
:1047A000909334028093330280911B0290911C02FB
:1047B000909336028093350280911D0290911E02E3
:1047C000909338028093370280911F0290912002CB
:1047D00090933A02809339028091210290912202B3
:1047E00090933C0280933B021092100207C090E02D
:1047F00080E08FCF809110028111C6CF809100019F
:104800009091010110E006E1019609F06DC08091E0
:104810001901811173C080919A0380FF1EC080919D
:10482000180182FF1AC00E944D052091D3023091D9
:10483000D402AC01421B530B209116013091170199
:104840004217530750F021E132E041E0BC01809172
:10485000D5029091D6020E942E0F8D2D2A960FB66A
:10486000F894DEBF0FBECDBFDF91CF911F910F91A6
:10487000FF90EF90DF90CF90BF90AF909F908F9080
:104880007F906F905F904F900895089FF001099F6F
:10489000F00D1124EA55FC4FE288F388E114F1048D
:1048A00021F4E0909703F0909803089FF001099F8E
:1048B000F00D1124EA55FC4F86818823A1F08585EF
:1048C00096850E943E05E816F90668F4109F70016F
:1048D0001124C7018A559C4F0E94840AC701845540
:1048E0009C4F0E943F0A1F5F812F90E020910001A2
:1048F000309101012817390744F689CF80917D0353
:1049000090917E03009709F486CF0E943E05209186
:10491000D7023091D8022817390708F07CCF909140
:104920007B0380917C03981759F00E9478221092A3
:10493000D8021092D70210927E0310927D036BCFA3
:104940000E941C2210927E0310927D030E94CA05D1
:1049500062CF2F923F924F925F926F927F928F928F
:104960009F92AF92BF92CF92DF92EF92FF920F93FE
:104970001F93CF93DF93CDB7DEB769970FB6F89447
:10498000DEBF0FBECDBF942F498B252F5A8B6B8B6B
:104990007C8B8D8B4C895D89622F892F0E949105BC
:1049A000811109C080919B0190919C010196909387
:1049B0009C0180939B018B898111109296041D8626
:1049C0001E861F86188A85E0FE017196DE01199603
:1049D00001900D928A95E1F78091620482FD1EC0DC
:1049E0008091810390918203892BC1F00E944D0533
:1049F0002091060230910702821B930B20918103C4
:104A0000309182038217930720F08091080282FF81
:104A1000F5C10E94D10981110E9497094C855D85DD
:104A20006A8589850E949105811111C061E0CE01DE
:104A300009960E9475116C018B8527EFC2162CE533
:104A4000D20681F4882321F181E080931901298520
:104A50003A854B855C856D857E858F8598890E941A
:104A6000A521C5C038EFC3163CE5D30629F4882339
:104A700079F00E946A22EBCF49EFC4164CE5D406C8
:104A800039F4882329F0809119018111F2CFDCCF0C
:104A90000BE313E0512CB12CA12C22242394312CB4
:104AA0002EEF422EF8014081518188248A94982C5F
:104AB00020E0822F90E0FC01EE0FFF1FE40FF51FB6
:104AC000608171816115710531F0C616D70609F450
:104AD0004C012F5FEECFF12CFFEF8F169F0609F4EC
:104AE00048C0F8014481F09019018F2D411180E0F8
:104AF000F82FF170FF2EF801E58086819B859923C0
:104B000009F40CC1FF2009F409C16090950370906D
:104B10009603E11012C0A10101C0440F8A94EAF784
:104B2000842B86838091D7029091D80286159705B1
:104B300020F47092D8026092D702C10102C0880F9F
:104B4000991F2A95E2F70197F8012681281719067F
:104B500081F480917D0390917E03009709F460C0F9
:104B60000E943E056816790608F05AC021E0F80157
:104B700024835F28FFEFAF1ABF0A095F1F4F28E0A9
:104B8000A216B10409F08ECF8B85882309F421C1C8
:104B9000552009F41EC10E944D0590937E03809319
:104BA0007D038091DA02883010F591E0980F9093A0
:104BB000DA0298E0FE013996DE01119601900D921D
:104BC0009A95E1F73CE0839FC001112485529D4FE7
:104BD00028E0FE013196DC0101900D922A95E1F763
:104BE0002FEF3FEFFC0131872087D386C28669967D
:104BF0000FB6F894DEBF0FBECDBFDF91CF911F91EE
:104C00000F91FF90EF90DF90CF90BF90AF909F906B
:104C10008F907F906F905F904F903F902F9008956E
:104C200080917B0350917C03982FF0E0E0E08513A6
:104C300014C090937B03E017F10709F49ACF90E03A
:104C4000FC01EE0FFF1FED58FC4FB182A0820196D0
:104C50008370992780937C038CCF682E712CF3018D
:104C6000EE0FFF1FED58FC4F2081318147E0429F3E
:104C7000D001439FB00D1124A55CBC4F6D917C9178
:104C80001197798F688F40E020E030E0E32FF0E06B
:104C9000EE0FFF1F688D798DE60FF71F80809180E2
:104CA00081149104E1F0F8010190F081E02DFF8B77
:104CB000EE8B20E005C08616970609F44F2D2F5F76
:104CC000E22FF0E0EE0FFF1F6E897F89E60FF71FDE
:104CD000608171816115710571F73F5FD7CF442302
:104CE000D1F0F801231708F0FD0121E024830E170D
:104CF0001F0721F490937B03F42E3BCF981305C03C
:104D0000AE17BF0711F49F5F937093012F5F3F4F62
:104D1000822F83708CCFF0E0E0E0F7CF90E0E110DD
:104D20001FC0B10102C0660F771F2A95E2F79B01F1
:104D3000215031098217930731F4442309F447C005
:104D4000C5010E949C05C10101C0880F8A94EAF741
:104D5000982F9095F801868189238683FE2C09CFB0
:104D60009C01082C02C0359527950A94E2F7A90109
:104D700041705527BC016150710986239723892B07
:104D800011F5452B01F1F80182819381892BC1F046
:104D90001B821C821D821E8249824A820E944D050E
:104DA0008160582F9D838C83F801828193818F834A
:104DB000988729813A814B816D817E810E94A5214E
:104DC000F8011582C0CFF22FF170EF2EBCCFEF2C7F
:104DD000BACF90917B0380917C03981731F00E94A9
:104DE0007822552009F433CE02CF0E941C22109263
:104DF0007E0310927D030E94CA05F3CF82E00E94D9
:104E0000040C07CECF93DF9300D000D00F92CDB724
:104E1000DEB79093AF028093AE02811520E2920735
:104E200048F40F900F900F900F900F90DF91CF915B
:104E30000C94F10C8EEF89838A831B820E944D05AE
:104E40008160782F9D838C8349815A816B818D810C
:104E50000F900F900F900F900F90DF91CF910C94C7
:104E6000A9240F931F93CF93DF938C01EB0162E58D
:104E700072E08C2F0E942013892BA1F480919D0356
:104E800090919E030E94C00DDD27C65BDD4F888197
:104E9000F80110821882833009F148F4813059F00A
:104EA000823081F0DF91CF911F910F91089584306E
:104EB000D1F08530B9F7809152029091530200975A
:104EC00089F306C08091540290915502009799F39E
:104ED000DF91CF911F910F910C9402278091560280
:104EE00090915702F3CF8091580290915902009708
:104EF00079F720915202309153028091540290919F
:104F0000550221153105D9F2009711F7C901E0CFFB
:104F1000CF93DF9300D000D00F92CDB7DEB7909340
:104F2000AF028093AE02811520E2920748F40F9001
:104F30000F900F900F900F90DF91CF910C94030F73
:104F40008EEF89838A8381E08B830E944D05816087
:104F5000782F9D838C8349815A816B818D810F903D
:104F60000F900F900F900F90DF91CF910C94A92488
:104F7000CF93DF93EC010E94882780919D0390914D
:104F80009E030E94C00DCE01DF91CF910C940227A9
:104F90000F931F93CF93DF938C01862F62E572E00E
:104FA0000E942013892BC9F4C0915202D091530260
:104FB000209799F0F8018081833069F4CE010E9436
:104FC000B827CE010E94B827CE01DF91CF911F9163
:104FD0000F910C94B8278430B8F7DF91CF911F91CF
:104FE0000F9108950F931F93CF93DF938C01EB01E3
:104FF00062E572E08C2F0E942013892B09F064C0B7
:10500000FE01FF27D8018C91E65BFD4F8130D9F47A
:1050100019969C911997992311F080830CC01A96C8
:105020009C919923D1F382E08083809154029091E6
:1050300055020097D9F48091520290915302009743
:1050400009F442C013C08230E9F519968C91199782
:1050500081112DC01A968C9181110EC083E080833E
:105060008091560290915702009719F1DF91CF91EC
:105070001F910F910C94882784E0808380915802BF
:1050800090915902009791F78091520290915302AA
:105090000097F9F00E94B827809154029091550230
:1050A000009721F78091520290915302DFCF85E063
:1050B00080838091520290915302009729F00E94C0
:1050C000B827F0CF86E08083DF91CF911F910F91B9
:1050D00008958091540290915502B1CF1F920F9282
:1050E0000FB60F9211242F933F934F935F936F93BB
:1050F0007F938F939F93AF93BF93CF93DF93EF9360
:10510000FF93D091E900DF708091EC00C82FC1704F
:1051100080FDC0E81092E9008091F000877F8093C5
:10512000F00078940E94F8131092E9008091F0004A
:1051300088608093F000CD2BCF70C093E900FF9181
:10514000EF91DF91CF91BF91AF919F918F917F911F
:105150006F915F914F913F912F910F900FBE0F90E4
:105160001F9018951F920F920FB60F9211242F9334
:105170003F934F935F936F937F938F939F93AF93DF
:10518000BF93EF93FF938091E10082FF09C080916C
:10519000E20082FF05C08091E1008B7F8093E100F7
:1051A0008091DA0080FF24C08091D80080FF20C069
:1051B0008091DA008E7F8093DA008091D90080FFA1
:1051C0009DC080E189BD82E189BD09B400FEFDCFAB
:1051D00081E08093940480916604811109C00E944B
:1051E00088030E947B048091E20084608093E20047
:1051F0008091E10080FF17C08091E20080FF13C022
:105200008091E2008E7F8093E2008091E2008061D5
:105210008093E2008091D80080628093D80019BC0E
:1052200085E0809394048091E10084FF2BC08091FD
:10523000E20084FF27C080E189BD82E189BD89B594
:10524000982F917080FFFBCF8091D8008F7D809345
:10525000D8008091E1008F7E8093E1008091E20090
:105260008F7E8093E2008091E20081608093E20073
:1052700080918B04882309F447C084E080939404D0
:10528000809194048091E10083FF27C08091E20027
:1052900083FF23C08091E100877F8093E10082E05B
:1052A0008093940410928B048091E1008E7F809310
:1052B000E1008091E2008E7F8093E2008091E20025
:1052C00080618093E20042E060E080E00E94490457
:1052D0008091F00088608093F000FF91EF91BF9182
:1052E000AF919F918F917F916F915F914F913F917E
:1052F0002F910F900FBE0F901F90189519BC109210
:1053000094041092660474CF8091E30087FD93E0CB
:1053100090939404B5CF78941F921FB61F921124D6
:105320008F939F93AF93BF9380915D0490915E04A0
:10533000A0915F04B09160040196A11DB11D8093FE
:105340005D0490935E04A0935F04B0936004BF91EA
:10535000AF919F918F911F901FBE1F9018951F9224
:105360001FB61F9211248F939F93AF93BF93809189
:105370005C04811113C080915D0490915E04A09142
:105380005F04B09160044196A11DB11D80935D043E
:1053900090935E04A0935F04B0936004BF91AF91BB
:1053A0009F918F911F901FBE1F901895CDB7DEB7AC
:1053B000E4970FB6F894DEBF0FBECDBF84B7877FEA
:1053C00084BF0FB6F894A89580916000886180939F
:1053D0006000109260000FBE80E890E00FB6F89475
:1053E00080936100909361000FBE85B7806885BF90
:1053F00085B7806885BF83EB97E0909379018093B0
:1054000078010E9434130E948A130E9492100E9415
:1054100088030E947B048091E20084608093E20014
:105420007894809194048823A1F01091E9001F7072
:105430009091EC00892F817090FD80E8182B1092DC
:10544000E9008091E80083FD0E94F8131F7010931B
:10545000E90082E084BD93E095BD9AEF97BD80930B
:105460006E000E948311811102C00E94111304E595
:1054700011E0D8018D918D018F3F11F00E94B50789
:10548000B1E009351B07A9F709E511E079E6E72E38
:1054900071E0F72EF80181918F018F3F11F00E948A
:1054A000B507E016F106B1F78AE0E3E3F2E0DF01C9
:1054B000282F1D922A95E9F7E9E1F2E0DF011D921C
:1054C0008A95E9F790E080E00E94EB308A3E9E4F9B
:1054D00021F40E948311811102C00E94CC1682E047
:1054E00090E00E94E330809324020E949C119093EC
:1054F0006204809361040E942223EFE3FCE9319768
:10550000F1F700C000000E9422238091330280FF47
:1055100008C06FEF7FEF90E080E00E940F310E94A3
:105520009C0D83E090E00E94E3300E94410C529A6F
:105530005A9882E091E090935904809358048E0128
:105540000F5F1F4F8091940450E1E52E62E1F62E2B
:10555000853009F42BC10E942223882359F08FB78C
:10556000F89440915D0450915E0460915F047091E5
:1055700060048FBFA3E3B2E0E5E2F2E0F12CE12C9E
:105580007E2D8D919D91219131912817390709F434
:105590001FC12827392760E0CC24C394D12CA60151
:1055A00042235323452B09F40DC16BA77CA7960119
:1055B0002823392391E0232B09F490E09DA70E9432
:1055C0004D058160782F9FA78EA74BA55CA56DA583
:1055D0008FA50E94A924F701EE0FFF1FEB5DFD4F81
:1055E00080819181C826D926D182C08286E0E4E4F8
:1055F000F2E0D80101900D928A95E1F7C090460241
:10560000D0904702E0904802F09049021092460282
:105610001092470210924802109249028C2D8D2957
:1056200091F080914202909143020E943E05AC01AC
:1056300090913E02992309F4E4C0809114018417EB
:10564000150608F4ECC08E2D8F2991F08091400250
:10565000909141020E943E05AC0190913D02992338
:1056600009F41CC1809110018417150608F424C1A7
:105670008091460290914702892B90914802892B94
:1056800090914902892B11F00E94090686E0F801E9
:10569000A4E4B2E001900D928A95E1F70E9485059D
:1056A00090912302891731F00E948505809323028F
:1056B0000E94BA0C80919404843009F043CF83E0B7
:1056C0008093E9008091E80082FF3CCF8091E80060
:1056D00090E085FF0AC00E94A70360E2C62ED12C8D
:1056E0007801882309F431C191E08091E8008B773B
:1056F0008093E800992309F425CFE090B002F09060
:10570000B1028981E114F10409F42DC18E3F09F041
:10571000B6C18A81833020F08550833008F0AFC154
:10572000EA81EE3008F0ABC1F0E0ED5AFE4C0C948B
:10573000A03080919404843039F180E00E94BA0C4A
:1057400010925C0428E130E040E40FB6F894A8958C
:10575000209360000FBE4093600083B7817F846018
:1057600083BF83B7816083BF7894889583B78E7F2A
:1057700083BF0FB6F894A8958091600088618093EC
:105780006000109260000FBE80918A04882371F03F
:105790000E942223E3E3F2E081919191892B09F0A9
:1057A00050C48DE392E08E179F07B1F78091940467
:1057B000853009F4BECF0E94E3130E9485050E9444
:1057C000BA0CC9CE6F5FCC0CDD1C603109F0E7CE9E
:1057D0009FEFE91AF90A25E0E216F10409F0D0CEAC
:1057E0008FEF88AB89AB1AAA0E944D058160782F94
:1057F0009CAB8BAB48A959A96AA98CA90E94A92482
:10580000F5CE209115018AE0289F900111242417DC
:10581000350708F018CF9F5F90933E0202C09F3F6C
:10582000D1F7CC2059F00E94EC069FEF1C140CF429
:1058300091E0899F802D112480934602DD2059F04C
:105840000E94EC069FEF1D140CF491E0899F802DBF
:1058500011248093470230914602332309F4F3CE9A
:1058600020914702222309F4EECE45EB3403C00118
:105870001124992359F09093460245EB240390019B
:105880001124332339F030934702DDCE81E0809339
:105890004602F3CF81E080934702D5CE20911101DB
:1058A0008AE0289F900111242417350708F0E0CEE4
:1058B0009F5F90933D0202C09F3FD1F7EE2059F0C9
:1058C0000E94B3069FEF1E140CF491E0899F802D77
:1058D000112480934802FF2059F00E94B3069FEFE5
:1058E0001F140CF491E0899F802D112480934902AC
:1058F00030914802332309F4BBCE20914902222380
:1059000009F4B6CE45EB3403C0011124992359F0B4
:105910009093480245EB240390011124332339F07E
:1059200030934902A5CE81E080934802F3CF81E015
:10593000809349029DCE8091F100D7018D937D0126
:10594000B1E0CB1AD10809F4CFCE8091E80085FDF3
:10595000F2CF8091E8008B778093E8000E94A70344
:10596000882399F3C1CE8C3009F4E9C048F584301E
:1059700009F4CCC050F4823009F467C008F0B7C015
:10598000813009F45EC08FEF88C3863009F4D4C03B
:1059900008F4C7C08B30B9F78091AC029091AD028A
:1059A000892B09F46CC0C8010E940204FFEF21EEAC
:1059B00034E0F15020403040E1F700C00000AFCDAE
:1059C000803109F4EBC088F58E3009F4BEC008F4CC
:1059D000B9C08091AC029091AD02892B09F44FC0FF
:1059E000EC80F12C3DE1E316F10408F048C0CA80D8
:1059F000DB80DC24CD24DC245801E00EF11EC6013E
:105A000087599C4FEA14FB04D1F147E9C416D1042D
:105A100028F4D50114966C910E94F130BFEFAB1AB7
:105A2000BB0AEFEFCE1ADE0AEACF823109F4BBC01F
:105A300008F4B7C0833109F4DFC08E3F09F0A3CF6B
:105A40006FCE1A8289E08B831AC08A81823009F472
:105A500046C38330C1F0813009F095CF2FB7F89459
:105A600060915D0470915E0480915F049091600488
:105A70002FBF0E94A6306B837C838D839E83C801D9
:105A80000E9402045FCD8091AC029091AD02892BFF
:105A9000B1F3809133029091340298278927982797
:105AA0009C838B83809135029091360298278927B9
:105AB00098279E838D838091370290913802982792
:105AC0008927982798878F838091390290913A028D
:105AD0009827892798279A87898780913B029091F8
